{
  "contracts/POGPlay.sol": {
    "POGPlay": {
      "abi": [
        {
          "anonymous": false,
          "inputs": [
            {
              "indexed": true,
              "internalType": "address",
              "name": "owner",
              "type": "address"
            },
            {
              "indexed": true,
              "internalType": "address",
              "name": "spender",
              "type": "address"
            },
            {
              "indexed": false,
              "internalType": "uint256",
              "name": "value",
              "type": "uint256"
            }
          ],
          "name": "Approval",
          "type": "event"
        },
        {
          "anonymous": false,
          "inputs": [
            {
              "indexed": false,
              "internalType": "uint8",
              "name": "version",
              "type": "uint8"
            }
          ],
          "name": "Initialized",
          "type": "event"
        },
        {
          "anonymous": false,
          "inputs": [
            {
              "indexed": true,
              "internalType": "address",
              "name": "previousOwner",
              "type": "address"
            },
            {
              "indexed": true,
              "internalType": "address",
              "name": "newOwner",
              "type": "address"
            }
          ],
          "name": "OwnershipTransferred",
          "type": "event"
        },
        {
          "anonymous": false,
          "inputs": [
            {
              "indexed": true,
              "internalType": "address",
              "name": "from",
              "type": "address"
            },
            {
              "indexed": true,
              "internalType": "address",
              "name": "to",
              "type": "address"
            },
            {
              "indexed": false,
              "internalType": "uint256",
              "name": "value",
              "type": "uint256"
            }
          ],
          "name": "Transfer",
          "type": "event"
        },
        {
          "inputs": [],
          "name": "_itemIds",
          "outputs": [
            {
              "internalType": "uint256",
              "name": "_value",
              "type": "uint256"
            }
          ],
          "stateMutability": "view",
          "type": "function"
        },
        {
          "inputs": [],
          "name": "admin",
          "outputs": [
            {
              "internalType": "address payable",
              "name": "",
              "type": "address"
            }
          ],
          "stateMutability": "view",
          "type": "function"
        },
        {
          "inputs": [
            {
              "internalType": "address",
              "name": "owner",
              "type": "address"
            },
            {
              "internalType": "address",
              "name": "spender",
              "type": "address"
            }
          ],
          "name": "allowance",
          "outputs": [
            {
              "internalType": "uint256",
              "name": "",
              "type": "uint256"
            }
          ],
          "stateMutability": "view",
          "type": "function"
        },
        {
          "inputs": [
            {
              "internalType": "address",
              "name": "spender",
              "type": "address"
            },
            {
              "internalType": "uint256",
              "name": "amount",
              "type": "uint256"
            }
          ],
          "name": "approve",
          "outputs": [
            {
              "internalType": "bool",
              "name": "",
              "type": "bool"
            }
          ],
          "stateMutability": "nonpayable",
          "type": "function"
        },
        {
          "inputs": [
            {
              "internalType": "address",
              "name": "account",
              "type": "address"
            }
          ],
          "name": "balanceOf",
          "outputs": [
            {
              "internalType": "uint256",
              "name": "",
              "type": "uint256"
            }
          ],
          "stateMutability": "view",
          "type": "function"
        },
        {
          "inputs": [],
          "name": "burnHere",
          "outputs": [
            {
              "internalType": "uint256",
              "name": "",
              "type": "uint256"
            }
          ],
          "stateMutability": "payable",
          "type": "function"
        },
        {
          "inputs": [
            {
              "internalType": "uint256",
              "name": "principal",
              "type": "uint256"
            },
            {
              "internalType": "uint256",
              "name": "noOfDaysPassed",
              "type": "uint256"
            }
          ],
          "name": "calculateNetInterestValue",
          "outputs": [
            {
              "internalType": "uint256",
              "name": "",
              "type": "uint256"
            }
          ],
          "stateMutability": "pure",
          "type": "function"
        },
        {
          "inputs": [],
          "name": "chanceOfUserToBeWinner",
          "outputs": [
            {
              "internalType": "uint256",
              "name": "",
              "type": "uint256"
            }
          ],
          "stateMutability": "view",
          "type": "function"
        },
        {
          "inputs": [],
          "name": "decimals",
          "outputs": [
            {
              "internalType": "uint8",
              "name": "",
              "type": "uint8"
            }
          ],
          "stateMutability": "view",
          "type": "function"
        },
        {
          "inputs": [
            {
              "internalType": "address",
              "name": "spender",
              "type": "address"
            },
            {
              "internalType": "uint256",
              "name": "subtractedValue",
              "type": "uint256"
            }
          ],
          "name": "decreaseAllowance",
          "outputs": [
            {
              "internalType": "bool",
              "name": "",
              "type": "bool"
            }
          ],
          "stateMutability": "nonpayable",
          "type": "function"
        },
        {
          "inputs": [
            {
              "internalType": "uint256",
              "name": "amount",
              "type": "uint256"
            }
          ],
          "name": "deposit",
          "outputs": [
            {
              "internalType": "uint256",
              "name": "",
              "type": "uint256"
            }
          ],
          "stateMutability": "payable",
          "type": "function"
        },
        {
          "inputs": [],
          "name": "distributePrizeMoney",
          "outputs": [],
          "stateMutability": "payable",
          "type": "function"
        },
        {
          "inputs": [],
          "name": "duration",
          "outputs": [
            {
              "internalType": "uint256",
              "name": "",
              "type": "uint256"
            }
          ],
          "stateMutability": "view",
          "type": "function"
        },
        {
          "inputs": [
            {
              "internalType": "uint256",
              "name": "userAmount",
              "type": "uint256"
            }
          ],
          "name": "forceWithdraw",
          "outputs": [],
          "stateMutability": "payable",
          "type": "function"
        },
        {
          "inputs": [],
          "name": "getAdmin",
          "outputs": [
            {
              "internalType": "address payable",
              "name": "",
              "type": "address"
            }
          ],
          "stateMutability": "view",
          "type": "function"
        },
        {
          "inputs": [],
          "name": "getMyAccumulatedInterest",
          "outputs": [
            {
              "internalType": "uint256",
              "name": "",
              "type": "uint256"
            }
          ],
          "stateMutability": "view",
          "type": "function"
        },
        {
          "inputs": [],
          "name": "getMyTotalDeposits",
          "outputs": [
            {
              "internalType": "uint256",
              "name": "",
              "type": "uint256"
            }
          ],
          "stateMutability": "view",
          "type": "function"
        },
        {
          "inputs": [],
          "name": "getPrizeMoney",
          "outputs": [
            {
              "internalType": "uint256",
              "name": "",
              "type": "uint256"
            }
          ],
          "stateMutability": "view",
          "type": "function"
        },
        {
          "inputs": [
            {
              "internalType": "address",
              "name": "spender",
              "type": "address"
            },
            {
              "internalType": "uint256",
              "name": "addedValue",
              "type": "uint256"
            }
          ],
          "name": "increaseAllowance",
          "outputs": [
            {
              "internalType": "bool",
              "name": "",
              "type": "bool"
            }
          ],
          "stateMutability": "nonpayable",
          "type": "function"
        },
        {
          "inputs": [],
          "name": "initialize",
          "outputs": [],
          "stateMutability": "nonpayable",
          "type": "function"
        },
        {
          "inputs": [
            {
              "internalType": "uint256",
              "name": "",
              "type": "uint256"
            }
          ],
          "name": "lastLotteryRoundWinners",
          "outputs": [
            {
              "internalType": "address",
              "name": "",
              "type": "address"
            }
          ],
          "stateMutability": "view",
          "type": "function"
        },
        {
          "inputs": [],
          "name": "name",
          "outputs": [
            {
              "internalType": "string",
              "name": "",
              "type": "string"
            }
          ],
          "stateMutability": "view",
          "type": "function"
        },
        {
          "inputs": [],
          "name": "netClaimableAmount",
          "outputs": [
            {
              "internalType": "uint256",
              "name": "",
              "type": "uint256"
            }
          ],
          "stateMutability": "view",
          "type": "function"
        },
        {
          "inputs": [],
          "name": "netLockedAmount",
          "outputs": [
            {
              "internalType": "uint256",
              "name": "",
              "type": "uint256"
            }
          ],
          "stateMutability": "view",
          "type": "function"
        },
        {
          "inputs": [],
          "name": "owner",
          "outputs": [
            {
              "internalType": "address",
              "name": "",
              "type": "address"
            }
          ],
          "stateMutability": "view",
          "type": "function"
        },
        {
          "inputs": [
            {
              "internalType": "uint256",
              "name": "",
              "type": "uint256"
            }
          ],
          "name": "playerData",
          "outputs": [
            {
              "internalType": "uint256",
              "name": "tokenNumber",
              "type": "uint256"
            },
            {
              "internalType": "address",
              "name": "playerAddress",
              "type": "address"
            },
            {
              "internalType": "uint256",
              "name": "startNumber",
              "type": "uint256"
            },
            {
              "internalType": "uint256",
              "name": "endNumber",
              "type": "uint256"
            },
            {
              "internalType": "uint256",
              "name": "amount",
              "type": "uint256"
            },
            {
              "internalType": "uint256",
              "name": "startTime",
              "type": "uint256"
            },
            {
              "internalType": "uint256",
              "name": "end",
              "type": "uint256"
            }
          ],
          "stateMutability": "view",
          "type": "function"
        },
        {
          "inputs": [],
          "name": "redeemClaimable",
          "outputs": [],
          "stateMutability": "payable",
          "type": "function"
        },
        {
          "inputs": [],
          "name": "renounceOwnership",
          "outputs": [],
          "stateMutability": "nonpayable",
          "type": "function"
        },
        {
          "inputs": [
            {
              "internalType": "address",
              "name": "addr",
              "type": "address"
            }
          ],
          "name": "setWinners",
          "outputs": [],
          "stateMutability": "nonpayable",
          "type": "function"
        },
        {
          "inputs": [
            {
              "internalType": "uint256",
              "name": "noOfWinners",
              "type": "uint256"
            }
          ],
          "name": "startLottery",
          "outputs": [],
          "stateMutability": "payable",
          "type": "function"
        },
        {
          "inputs": [],
          "name": "symbol",
          "outputs": [
            {
              "internalType": "string",
              "name": "",
              "type": "string"
            }
          ],
          "stateMutability": "view",
          "type": "function"
        },
        {
          "inputs": [],
          "name": "total",
          "outputs": [
            {
              "internalType": "uint256",
              "name": "",
              "type": "uint256"
            }
          ],
          "stateMutability": "view",
          "type": "function"
        },
        {
          "inputs": [],
          "name": "totalSupply",
          "outputs": [
            {
              "internalType": "uint256",
              "name": "",
              "type": "uint256"
            }
          ],
          "stateMutability": "view",
          "type": "function"
        },
        {
          "inputs": [
            {
              "internalType": "address",
              "name": "to",
              "type": "address"
            },
            {
              "internalType": "uint256",
              "name": "amount",
              "type": "uint256"
            }
          ],
          "name": "transfer",
          "outputs": [
            {
              "internalType": "bool",
              "name": "",
              "type": "bool"
            }
          ],
          "stateMutability": "nonpayable",
          "type": "function"
        },
        {
          "inputs": [
            {
              "internalType": "address",
              "name": "from",
              "type": "address"
            },
            {
              "internalType": "address",
              "name": "to",
              "type": "address"
            },
            {
              "internalType": "uint256",
              "name": "amount",
              "type": "uint256"
            }
          ],
          "name": "transferFrom",
          "outputs": [
            {
              "internalType": "bool",
              "name": "",
              "type": "bool"
            }
          ],
          "stateMutability": "nonpayable",
          "type": "function"
        },
        {
          "inputs": [
            {
              "internalType": "address",
              "name": "newOwner",
              "type": "address"
            }
          ],
          "name": "transferOwnership",
          "outputs": [],
          "stateMutability": "nonpayable",
          "type": "function"
        },
        {
          "inputs": [
            {
              "internalType": "uint256",
              "name": "",
              "type": "uint256"
            }
          ],
          "name": "winners",
          "outputs": [
            {
              "internalType": "address",
              "name": "",
              "type": "address"
            }
          ],
          "stateMutability": "view",
          "type": "function"
        },
        {
          "inputs": [
            {
              "internalType": "uint256",
              "name": "amount",
              "type": "uint256"
            }
          ],
          "name": "withdraw",
          "outputs": [],
          "stateMutability": "nonpayable",
          "type": "function"
        }
      ],
      "evm": {
        "bytecode": {
          "linkReferences": {},
          "object": "608060405234801561001057600080fd5b50614479806100206000396000f3fe6080604052600436106102255760003560e01c806370a0823111610123578063a9059cbb116100ab578063d357d0ba1161006f578063d357d0ba146107fc578063dd62ed3e14610806578063e2a5cd2c14610843578063f2fde38b1461086e578063f851a4401461089757610225565b8063a9059cbb1461072c578063b6b55f2514610769578063b8033d7614610799578063c6bec93a146107d6578063d0342d65146107f257610225565b80638da5cb5b116100f25780638da5cb5b1461063157806395d89b411461065c57806398c98cad14610687578063a2fb1175146106b2578063a457c2d7146106ef57610225565b806370a0823114610589578063715018a6146105c657806379a0c073146105dd5780638129fc1c1461061a57610225565b806323b872dd116101b157806334a7f1931161017557806334a7f193146104a057806339509351146104cb5780635d0dd51a146105085780636d9e1cc2146105335780636e9960c31461055e57610225565b806323b872dd146103c657806327f2ac6c146104035780632ddbd13a146104215780632e1a7d4d1461044c578063313ce5671461047557610225565b80630dee1929116101f85780630dee1929146103005780630fb5a6b4146103295780630fcc56f71461035457806318160ddd146103705780631930b13a1461039b57610225565b806306fdde031461022a5780630737c24b14610255578063095ea7b3146102805780630aec4ed1146102bd575b600080fd5b34801561023657600080fd5b5061023f6108c2565b60405161024c91906139ff565b60405180910390f35b34801561026157600080fd5b5061026a610954565b6040516102779190613be1565b60405180910390f35b34801561028c57600080fd5b506102a760048036038101906102a2919061352a565b610a56565b6040516102b491906139c9565b60405180910390f35b3480156102c957600080fd5b506102e460048036038101906102df919061358f565b610a79565b6040516102f79796959493929190613bfc565b60405180910390f35b34801561030c57600080fd5b5061032760048036038101906103229190613476565b610adb565b005b34801561033557600080fd5b5061033e610bbd565b60405161034b9190613be1565b60405180910390f35b61036e6004803603810190610369919061358f565b610bc2565b005b34801561037c57600080fd5b50610385610fff565b6040516103929190613be1565b60405180910390f35b3480156103a757600080fd5b506103b0611009565b6040516103bd9190613be1565b60405180910390f35b3480156103d257600080fd5b506103ed60048036038101906103e891906134db565b611114565b6040516103fa91906139c9565b60405180910390f35b61040b611143565b6040516104189190613be1565b60405180910390f35b34801561042d57600080fd5b50610436611375565b6040516104439190613be1565b60405180910390f35b34801561045857600080fd5b50610473600480360381019061046e919061358f565b61137b565b005b34801561048157600080fd5b5061048a6115bb565b6040516104979190613c6b565b60405180910390f35b3480156104ac57600080fd5b506104b56115c4565b6040516104c29190613be1565b60405180910390f35b3480156104d757600080fd5b506104f260048036038101906104ed919061352a565b6115d0565b6040516104ff91906139c9565b60405180910390f35b34801561051457600080fd5b5061051d611607565b60405161052a9190613be1565b60405180910390f35b34801561053f57600080fd5b50610548611644565b6040516105559190613be1565b60405180910390f35b34801561056a57600080fd5b50610573611750565b6040516105809190613940565b60405180910390f35b34801561059557600080fd5b506105b060048036038101906105ab9190613476565b61177a565b6040516105bd9190613be1565b60405180910390f35b3480156105d257600080fd5b506105db6117c3565b005b3480156105e957600080fd5b5061060460048036038101906105ff91906135e1565b61184b565b6040516106119190613be1565b60405180910390f35b34801561062657600080fd5b5061062f6118b6565b005b34801561063d57600080fd5b50610646611a17565b6040516106539190613925565b60405180910390f35b34801561066857600080fd5b50610671611a41565b60405161067e91906139ff565b60405180910390f35b34801561069357600080fd5b5061069c611ad3565b6040516106a99190613be1565b60405180910390f35b3480156106be57600080fd5b506106d960048036038101906106d4919061358f565b611c51565b6040516106e69190613925565b60405180910390f35b3480156106fb57600080fd5b506107166004803603810190610711919061352a565b611c90565b60405161072391906139c9565b60405180910390f35b34801561073857600080fd5b50610753600480360381019061074e919061352a565b611d07565b60405161076091906139c9565b60405180910390f35b610783600480360381019061077e919061358f565b611d2a565b6040516107909190613be1565b60405180910390f35b3480156107a557600080fd5b506107c060048036038101906107bb919061358f565b611f3b565b6040516107cd9190613925565b60405180910390f35b6107f060048036038101906107eb919061358f565b611f7a565b005b6107fa612291565b005b61080461255b565b005b34801561081257600080fd5b5061082d6004803603810190610828919061349f565b6127a7565b60405161083a9190613be1565b60405180910390f35b34801561084f57600080fd5b5061085861282e565b6040516108659190613be1565b60405180910390f35b34801561087a57600080fd5b5061089560048036038101906108909190613476565b612911565b005b3480156108a357600080fd5b506108ac612a09565b6040516108b99190613940565b60405180910390f35b6060603680546108d190613e99565b80601f01602080910402602001604051908101604052809291908181526020018280546108fd90613e99565b801561094a5780601f1061091f5761010080835404028352916020019161094a565b820191906000526020600020905b81548152906001019060200180831161092d57829003601f168201915b5050505050905090565b6000806109616097612a2f565b90506000805b82811015610a4d576000603c609e60006001856109849190613ca2565b815260200190815260200160002060050154426109a19190613d83565b6109ab9190613cf8565b90506000609e60006001856109c09190613ca2565b81526020019081526020016000206004015490506000805b83811015610a28576103e86003846109f09190613d29565b6109fa9190613cf8565b82610a059190613ca2565b91508183610a139190613ca2565b92508080610a2090613ecb565b9150506109d8565b508085610a359190613ca2565b94505050508080610a4590613ecb565b915050610967565b50809250505090565b600080610a61612a3d565b9050610a6e818585612a45565b600191505092915050565b609e6020528060005260406000206000915090508060000154908060010160009054906101000a900473ffffffffffffffffffffffffffffffffffffffff16908060020154908060030154908060040154908060050154908060060154905087565b610ae3612a3d565b73ffffffffffffffffffffffffffffffffffffffff16610b01611a17565b73ffffffffffffffffffffffffffffffffffffffff1614610b57576040517f08c379a0000000000000000000000000000000000000000000000000000000008152600401610b4e90613b21565b60405180910390fd5b6098819080600181540180825580915050600190039060005260206000200160009091909190916101000a81548173ffffffffffffffffffffffffffffffffffffffff021916908373ffffffffffffffffffffffffffffffffffffffff16021790555050565b603c81565b60008111610c05576040517f08c379a0000000000000000000000000000000000000000000000000000000008152600401610bfc90613ac1565b60405180910390fd5b610c0d611009565b811115610c4f576040517f08c379a0000000000000000000000000000000000000000000000000000000008152600401610c4690613b01565b60405180910390fd5b6000610c5b6097612a2f565b9050600082905060005b82811015610ff9573373ffffffffffffffffffffffffffffffffffffffff16609e6000600184610c959190613ca2565b815260200190815260200160002060010160009054906101000a900473ffffffffffffffffffffffffffffffffffffffff1673ffffffffffffffffffffffffffffffffffffffff16148015610d0b5750609e6000600183610cf69190613ca2565b81526020019081526020016000206006015442105b15610fe6576000603c609e6000600185610d259190613ca2565b81526020019081526020016000206005015442610d429190613d83565b610d4c9190613cf8565b90506000816002610d5d9190613d29565b601c610d699190613d83565b90506000606482610d7a9190613cf8565b85610d859190613d29565b905060008186610d959190613d83565b905085609e6000600188610da99190613ca2565b8152602001908152602001600020600401541115610eb557609d60009054906101000a900473ffffffffffffffffffffffffffffffffffffffff1673ffffffffffffffffffffffffffffffffffffffff166323b872dd3033846040518463ffffffff1660e01b8152600401610e2093929190613992565b602060405180830381600087803b158015610e3a57600080fd5b505af1158015610e4e573d6000803e3d6000fd5b505050506040513d601f19601f82011682018060405250810190610e729190613566565b5080609e6000600188610e859190613ca2565b81526020019081526020016000206004016000828254610ea59190613d83565b9250508190555050505050610ff9565b609d60009054906101000a900473ffffffffffffffffffffffffffffffffffffffff1673ffffffffffffffffffffffffffffffffffffffff166323b872dd3033609e600060018b610f069190613ca2565b8152602001908152602001600020600401546040518463ffffffff1660e01b8152600401610f3693929190613992565b602060405180830381600087803b158015610f5057600080fd5b505af1158015610f64573d6000803e3d6000fd5b505050506040513d601f19601f82011682018060405250810190610f889190613566565b506000609e6000600188610f9c9190613ca2565b815260200190815260200160002060040181905550609e6000600187610fc29190613ca2565b81526020019081526020016000206004015486610fdf9190613d83565b9550505050505b8080610ff190613ecb565b915050610c65565b50505050565b6000603554905090565b6000806110166097612a2f565b90506000805b8281101561110b573373ffffffffffffffffffffffffffffffffffffffff16609e600060018461104c9190613ca2565b815260200190815260200160002060010160009054906101000a900473ffffffffffffffffffffffffffffffffffffffff1673ffffffffffffffffffffffffffffffffffffffff161480156110c25750609e60006001836110ad9190613ca2565b81526020019081526020016000206006015442105b156110f857609e60006001836110d89190613ca2565b815260200190815260200160002060040154826110f59190613ca2565b91505b808061110390613ecb565b91505061101c565b50809250505090565b60008061111f612a3d565b905061112c858285612c10565b611137858585612c9c565b60019150509392505050565b600061114d612a3d565b73ffffffffffffffffffffffffffffffffffffffff1661116b611a17565b73ffffffffffffffffffffffffffffffffffffffff16146111c1576040517f08c379a00000000000000000000000000000000000000000000000000000000081526004016111b890613b21565b60405180910390fd5b60006111cd6097612a2f565b90506000805b828110156112b9576000603c609e60006001856111f09190613ca2565b8152602001908152602001600020600501544261120d9190613d83565b6112179190613cf8565b90506000609e600060018561122c9190613ca2565b81526020019081526020016000206004015490506000805b83811015611294576103e860028461125c9190613d29565b6112669190613cf8565b826112719190613ca2565b9150818361127f9190613ca2565b9250848061128c90613ecb565b955050611244565b5080856112a19190613ca2565b945050505080806112b190613ecb565b9150506111d3565b50609d60009054906101000a900473ffffffffffffffffffffffffffffffffffffffff1673ffffffffffffffffffffffffffffffffffffffff166323b872dd306000846040518463ffffffff1660e01b815260040161131a93929190613992565b602060405180830381600087803b15801561133457600080fd5b505af1158015611348573d6000803e3d6000fd5b505050506040513d601f19601f8201168201806040525081019061136c9190613566565b50809250505090565b609c5481565b611383612a3d565b73ffffffffffffffffffffffffffffffffffffffff166113a1611a17565b73ffffffffffffffffffffffffffffffffffffffff16146113f7576040517f08c379a00000000000000000000000000000000000000000000000000000000081526004016113ee90613b21565b60405180910390fd5b609d60009054906101000a900473ffffffffffffffffffffffffffffffffffffffff1673ffffffffffffffffffffffffffffffffffffffff166370a08231306040518263ffffffff1660e01b81526004016114529190613925565b60206040518083038186803b15801561146a57600080fd5b505afa15801561147e573d6000803e3d6000fd5b505050506040513d601f19601f820116820180604052508101906114a291906135b8565b8111156114e4576040517f08c379a00000000000000000000000000000000000000000000000000000000081526004016114db90613b41565b60405180910390fd5b609d60009054906101000a900473ffffffffffffffffffffffffffffffffffffffff1673ffffffffffffffffffffffffffffffffffffffff166323b872dd30609a60009054906101000a900473ffffffffffffffffffffffffffffffffffffffff16846040518463ffffffff1660e01b81526004016115659392919061395b565b602060405180830381600087803b15801561157f57600080fd5b505af1158015611593573d6000803e3d6000fd5b505050506040513d601f19601f820116820180604052508101906115b79190613566565b5050565b60006012905090565b60978060000154905081565b6000806115db612a3d565b90506115fc8185856115ed85896127a7565b6115f79190613ca2565b612a45565b600191505092915050565b60008061161261282e565b9050600080609c541461163c57609c5460648361162f9190613d29565b6116399190613cf8565b90505b809250505090565b6000806116516097612a2f565b90506000805b82811015611747573373ffffffffffffffffffffffffffffffffffffffff16609e60006001846116879190613ca2565b815260200190815260200160002060010160009054906101000a900473ffffffffffffffffffffffffffffffffffffffff1673ffffffffffffffffffffffffffffffffffffffff161480156116fe5750609e60006001836116e89190613ca2565b8152602001908152602001600020600601544210155b1561173457609e60006001836117149190613ca2565b815260200190815260200160002060040154826117319190613ca2565b91505b808061173f90613ecb565b915050611657565b50809250505090565b6000609a60009054906101000a900473ffffffffffffffffffffffffffffffffffffffff16905090565b6000603360008373ffffffffffffffffffffffffffffffffffffffff1673ffffffffffffffffffffffffffffffffffffffff168152602001908152602001600020549050919050565b6117cb612a3d565b73ffffffffffffffffffffffffffffffffffffffff166117e9611a17565b73ffffffffffffffffffffffffffffffffffffffff161461183f576040517f08c379a000000000000000000000000000000000000000000000000000000000815260040161183690613b21565b60405180910390fd5b6118496000612f20565b565b6000808390506000805b848110156118aa576402540be40062cab25d846118729190613d29565b61187c9190613cf8565b826118879190613ca2565b915081836118959190613ca2565b925080806118a290613ecb565b915050611855565b50809250505092915050565b60006118c26001612fe6565b905080156118e6576001600060016101000a81548160ff0219169083151502179055505b61190e60405180602001604052806000815250604051806020016040528060008152506130d6565b611916613133565b33609a60006101000a81548173ffffffffffffffffffffffffffffffffffffffff021916908373ffffffffffffffffffffffffffffffffffffffff16021790555042609b819055507302f21d483becfe74e8e1c67590d265e493498d1e609d60006101000a81548173ffffffffffffffffffffffffffffffffffffffff021916908373ffffffffffffffffffffffffffffffffffffffff1602179055506000609c819055508015611a145760008060016101000a81548160ff0219169083151502179055507f7f26b83ff96e1f2b6a682f133852f6798a09c465da95921460cefb38474024986001604051611a0b91906139e4565b60405180910390a15b50565b6000606560009054906101000a900473ffffffffffffffffffffffffffffffffffffffff16905090565b606060378054611a5090613e99565b80601f0160208091040260200160405190810160405280929190818152602001828054611a7c90613e99565b8015611ac95780601f10611a9e57610100808354040283529160200191611ac9565b820191906000526020600020905b815481529060010190602001808311611aac57829003601f168201915b5050505050905090565b600080611ae06097612a2f565b90506000805b82811015611c48573373ffffffffffffffffffffffffffffffffffffffff16609e6000600184611b169190613ca2565b815260200190815260200160002060010160009054906101000a900473ffffffffffffffffffffffffffffffffffffffff1673ffffffffffffffffffffffffffffffffffffffff161415611c35576000603c609e6000600185611b799190613ca2565b81526020019081526020016000206005015442611b969190613d83565b611ba09190613cf8565b90506000609e6000600185611bb59190613ca2565b81526020019081526020016000206004015490506000805b83811015611c22576402540be40062cab25d84611bea9190613d29565b611bf49190613cf8565b82611bff9190613ca2565b91508183611c0d9190613ca2565b92508080611c1a90613ecb565b915050611bcd565b508085611c2f9190613ca2565b94505050505b8080611c4090613ecb565b915050611ae6565b50809250505090565b60988181548110611c6157600080fd5b906000526020600020016000915054906101000a900473ffffffffffffffffffffffffffffffffffffffff1681565b600080611c9b612a3d565b90506000611ca982866127a7565b905083811015611cee576040517f08c379a0000000000000000000000000000000000000000000000000000000008152600401611ce590613bc1565b60405180910390fd5b611cfb8286868403612a45565b60019250505092915050565b600080611d12612a3d565b9050611d1f818585612c9c565b600191505092915050565b6000611d36609761318c565b6000611d426097612a2f565b90506040518060e0016040528061162e83611d5d9190613ca2565b81526020013373ffffffffffffffffffffffffffffffffffffffff1681526020016001609c54611d8d9190613ca2565b815260200184609c54611da09190613ca2565b8152602001848152602001428152602001603c42611dbe9190613ca2565b815250609e60008381526020019081526020016000206000820151816000015560208201518160010160006101000a81548173ffffffffffffffffffffffffffffffffffffffff021916908373ffffffffffffffffffffffffffffffffffffffff16021790555060408201518160020155606082015181600301556080820151816004015560a0820151816005015560c0820151816006015590505082609c6000828254611e6c9190613ca2565b92505081905550609d60009054906101000a900473ffffffffffffffffffffffffffffffffffffffff1673ffffffffffffffffffffffffffffffffffffffff166323b872dd3330866040518463ffffffff1660e01b8152600401611ed293929190613992565b602060405180830381600087803b158015611eec57600080fd5b505af1158015611f00573d6000803e3d6000fd5b505050506040513d601f19601f82011682018060405250810190611f249190613566565b5061162e81611f339190613ca2565b915050919050565b60998181548110611f4b57600080fd5b906000526020600020016000915054906101000a900473ffffffffffffffffffffffffffffffffffffffff1681565b611f82612a3d565b73ffffffffffffffffffffffffffffffffffffffff16611fa0611a17565b73ffffffffffffffffffffffffffffffffffffffff1614611ff6576040517f08c379a0000000000000000000000000000000000000000000000000000000008152600401611fed90613b21565b60405180910390fd5b60005b8181101561226457816098805490501461224c5760006120176131a2565b90506000609c54826120299190613f42565b905060006120376097612a2f565b905060005b8181101561224357609e60006001836120559190613ca2565b815260200190815260200160002060030154831015612230576000805b60988054905081101561217557609e60006001856120909190613ca2565b815260200190815260200160002060010160009054906101000a900473ffffffffffffffffffffffffffffffffffffffff1673ffffffffffffffffffffffffffffffffffffffff1660988281548110612112577f4e487b7100000000000000000000000000000000000000000000000000000000600052603260045260246000fd5b9060005260206000200160009054906101000a900473ffffffffffffffffffffffffffffffffffffffff1673ffffffffffffffffffffffffffffffffffffffff1614156121625760019150612175565b808061216d90613ecb565b915050612072565b5060001515811515141561222e576098609e60006001856121969190613ca2565b815260200190815260200160002060010160009054906101000a900473ffffffffffffffffffffffffffffffffffffffff169080600181540180825580915050600190039060005260206000200160009091909190916101000a81548173ffffffffffffffffffffffffffffffffffffffff021916908373ffffffffffffffffffffffffffffffffffffffff16021790555050612243565b505b808061223b90613ecb565b91505061203c565b50505050612251565b612264565b808061225c90613ecb565b915050611ff9565b5061226d612291565b6098609990805461227f92919061330c565b506098600061228e919061335e565b50565b612299612a3d565b73ffffffffffffffffffffffffffffffffffffffff166122b7611a17565b73ffffffffffffffffffffffffffffffffffffffff161461230d576040517f08c379a000000000000000000000000000000000000000000000000000000000815260040161230490613b21565b60405180910390fd5b6000612317610954565b90506000606460508361232a9190613d29565b6123349190613cf8565b9050600060646014846123479190613d29565b6123519190613cf8565b90506000609880549050836123669190613cf8565b9050609d60009054906101000a900473ffffffffffffffffffffffffffffffffffffffff1673ffffffffffffffffffffffffffffffffffffffff166323b872dd306000856040518463ffffffff1660e01b81526004016123c893929190613992565b602060405180830381600087803b1580156123e257600080fd5b505af11580156123f6573d6000803e3d6000fd5b505050506040513d601f19601f8201168201806040525081019061241a9190613566565b5060005b60988054905081101561255457609d60009054906101000a900473ffffffffffffffffffffffffffffffffffffffff1673ffffffffffffffffffffffffffffffffffffffff166323b872dd30609884815481106124a4577f4e487b7100000000000000000000000000000000000000000000000000000000600052603260045260246000fd5b9060005260206000200160009054906101000a900473ffffffffffffffffffffffffffffffffffffffff16856040518463ffffffff1660e01b81526004016124ee93929190613992565b602060405180830381600087803b15801561250857600080fd5b505af115801561251c573d6000803e3d6000fd5b505050506040513d601f19601f820116820180604052508101906125409190613566565b50808061254c90613ecb565b91505061241e565b5050505050565b60006125676097612a2f565b905060005b818110156127a3573373ffffffffffffffffffffffffffffffffffffffff16609e600060018461259c9190613ca2565b815260200190815260200160002060010160009054906101000a900473ffffffffffffffffffffffffffffffffffffffff1673ffffffffffffffffffffffffffffffffffffffff161480156126135750609e60006001836125fd9190613ca2565b8152602001908152602001600020600601544210155b15612790576000603c609e600060018561262d9190613ca2565b8152602001908152602001600020600501544261264a9190613d83565b6126549190613cf8565b90506000612684609e600060018661266c9190613ca2565b8152602001908152602001600020600401548361184b565b9050609d60009054906101000a900473ffffffffffffffffffffffffffffffffffffffff1673ffffffffffffffffffffffffffffffffffffffff166323b872dd303384609e600060018a6126d89190613ca2565b8152602001908152602001600020600401546126f49190613ca2565b6040518463ffffffff1660e01b815260040161271293929190613992565b602060405180830381600087803b15801561272c57600080fd5b505af1158015612740573d6000803e3d6000fd5b505050506040513d601f19601f820116820180604052508101906127649190613566565b506000609e60006001866127789190613ca2565b81526020019081526020016000206004018190555050505b808061279b90613ecb565b91505061256c565b5050565b6000603460008473ffffffffffffffffffffffffffffffffffffffff1673ffffffffffffffffffffffffffffffffffffffff16815260200190815260200160002060008373ffffffffffffffffffffffffffffffffffffffff1673ffffffffffffffffffffffffffffffffffffffff16815260200190815260200160002054905092915050565b6000806000905060006128416097612a2f565b905060005b81811015612908573373ffffffffffffffffffffffffffffffffffffffff16609e60006001846128769190613ca2565b815260200190815260200160002060010160009054906101000a900473ffffffffffffffffffffffffffffffffffffffff1673ffffffffffffffffffffffffffffffffffffffff1614156128f557609e60006001836128d59190613ca2565b815260200190815260200160002060040154836128f29190613ca2565b92505b808061290090613ecb565b915050612846565b50819250505090565b612919612a3d565b73ffffffffffffffffffffffffffffffffffffffff16612937611a17565b73ffffffffffffffffffffffffffffffffffffffff161461298d576040517f08c379a000000000000000000000000000000000000000000000000000000000815260040161298490613b21565b60405180910390fd5b600073ffffffffffffffffffffffffffffffffffffffff168173ffffffffffffffffffffffffffffffffffffffff1614156129fd576040517f08c379a00000000000000000000000000000000000000000000000000000000081526004016129f490613a41565b60405180910390fd5b612a0681612f20565b50565b609a60009054906101000a900473ffffffffffffffffffffffffffffffffffffffff1681565b600081600001549050919050565b600033905090565b600073ffffffffffffffffffffffffffffffffffffffff168373ffffffffffffffffffffffffffffffffffffffff161415612ab5576040517f08c379a0000000000000000000000000000000000000000000000000000000008152600401612aac90613b81565b60405180910390fd5b600073ffffffffffffffffffffffffffffffffffffffff168273ffffffffffffffffffffffffffffffffffffffff161415612b25576040517f08c379a0000000000000000000000000000000000000000000000000000000008152600401612b1c90613a61565b60405180910390fd5b80603460008573ffffffffffffffffffffffffffffffffffffffff1673ffffffffffffffffffffffffffffffffffffffff16815260200190815260200160002060008473ffffffffffffffffffffffffffffffffffffffff1673ffffffffffffffffffffffffffffffffffffffff168152602001908152602001600020819055508173ffffffffffffffffffffffffffffffffffffffff168373ffffffffffffffffffffffffffffffffffffffff167f8c5be1e5ebec7d5bd14f71427d1e84f3dd0314c0f7b2291e5b200ac8c7c3b92583604051612c039190613be1565b60405180910390a3505050565b6000612c1c84846127a7565b90507fffffffffffffffffffffffffffffffffffffffffffffffffffffffffffffffff8114612c965781811015612c88576040517f08c379a0000000000000000000000000000000000000000000000000000000008152600401612c7f90613a81565b60405180910390fd5b612c958484848403612a45565b5b50505050565b600073ffffffffffffffffffffffffffffffffffffffff168373ffffffffffffffffffffffffffffffffffffffff161415612d0c576040517f08c379a0000000000000000000000000000000000000000000000000000000008152600401612d0390613b61565b60405180910390fd5b600073ffffffffffffffffffffffffffffffffffffffff168273ffffffffffffffffffffffffffffffffffffffff161415612d7c576040517f08c379a0000000000000000000000000000000000000000000000000000000008152600401612d7390613a21565b60405180910390fd5b612d878383836131fd565b6000603360008573ffffffffffffffffffffffffffffffffffffffff1673ffffffffffffffffffffffffffffffffffffffff16815260200190815260200160002054905081811015612e0e576040517f08c379a0000000000000000000000000000000000000000000000000000000008152600401612e0590613aa1565b60405180910390fd5b818103603360008673ffffffffffffffffffffffffffffffffffffffff1673ffffffffffffffffffffffffffffffffffffffff1681526020019081526020016000208190555081603360008573ffffffffffffffffffffffffffffffffffffffff1673ffffffffffffffffffffffffffffffffffffffff1681526020019081526020016000206000828254612ea39190613ca2565b925050819055508273ffffffffffffffffffffffffffffffffffffffff168473ffffffffffffffffffffffffffffffffffffffff167fddf252ad1be2c89b69c2b068fc378daa952ba7f163c4a11628f55a4df523b3ef84604051612f079190613be1565b60405180910390a3612f1a848484613202565b50505050565b6000606560009054906101000a900473ffffffffffffffffffffffffffffffffffffffff16905081606560006101000a81548173ffffffffffffffffffffffffffffffffffffffff021916908373ffffffffffffffffffffffffffffffffffffffff1602179055508173ffffffffffffffffffffffffffffffffffffffff168173ffffffffffffffffffffffffffffffffffffffff167f8be0079c531659141344cd1fd0a4f28419497f9722a3daafe3b4186f6b6457e060405160405180910390a35050565b60008060019054906101000a900460ff161561305d5760018260ff16148015613015575061301330613207565b155b613054576040517f08c379a000000000000000000000000000000000000000000000000000000000815260040161304b90613ae1565b60405180910390fd5b600090506130d1565b8160ff1660008054906101000a900460ff1660ff16106130b2576040517f08c379a00000000000000000000000000000000000000000000000000000000081526004016130a990613ae1565b60405180910390fd5b816000806101000a81548160ff021916908360ff160217905550600190505b919050565b600060019054906101000a900460ff16613125576040517f08c379a000000000000000000000000000000000000000000000000000000000815260040161311c90613ba1565b60405180910390fd5b61312f828261322a565b5050565b600060019054906101000a900460ff16613182576040517f08c379a000000000000000000000000000000000000000000000000000000000815260040161317990613ba1565b60405180910390fd5b61318a6132ab565b565b6001816000016000828254019250508190555050565b6000609a60009054906101000a900473ffffffffffffffffffffffffffffffffffffffff16609b5444426040516020016131df94939291906138d7565b6040516020818303038152906040528051906020012060001c905090565b505050565b505050565b6000808273ffffffffffffffffffffffffffffffffffffffff163b119050919050565b600060019054906101000a900460ff16613279576040517f08c379a000000000000000000000000000000000000000000000000000000000815260040161327090613ba1565b60405180910390fd5b816036908051906020019061328f92919061337f565b5080603790805190602001906132a692919061337f565b505050565b600060019054906101000a900460ff166132fa576040517f08c379a00000000000000000000000000000000000000000000000000000000081526004016132f190613ba1565b60405180910390fd5b61330a613305612a3d565b612f20565b565b82805482825590600052602060002090810192821561334d5760005260206000209182015b8281111561334c578254825591600101919060010190613331565b5b50905061335a9190613405565b5090565b508054600082559060005260206000209081019061337c9190613405565b50565b82805461338b90613e99565b90600052602060002090601f0160209004810192826133ad57600085556133f4565b82601f106133c657805160ff19168380011785556133f4565b828001600101855582156133f4579182015b828111156133f35782518255916020019190600101906133d8565b5b5090506134019190613405565b5090565b5b8082111561341e576000816000905550600101613406565b5090565b600081359050613431816143fe565b92915050565b60008151905061344681614415565b92915050565b60008135905061345b8161442c565b92915050565b6000815190506134708161442c565b92915050565b60006020828403121561348857600080fd5b600061349684828501613422565b91505092915050565b600080604083850312156134b257600080fd5b60006134c085828601613422565b92505060206134d185828601613422565b9150509250929050565b6000806000606084860312156134f057600080fd5b60006134fe86828701613422565b935050602061350f86828701613422565b92505060406135208682870161344c565b9150509250925092565b6000806040838503121561353d57600080fd5b600061354b85828601613422565b925050602061355c8582860161344c565b9150509250929050565b60006020828403121561357857600080fd5b600061358684828501613437565b91505092915050565b6000602082840312156135a157600080fd5b60006135af8482850161344c565b91505092915050565b6000602082840312156135ca57600080fd5b60006135d884828501613461565b91505092915050565b600080604083850312156135f457600080fd5b60006136028582860161344c565b92505060206136138582860161344c565b9150509250929050565b61362681613e1e565b82525050565b61363581613dc9565b82525050565b61364c61364782613dc9565b613f14565b82525050565b61365b81613db7565b82525050565b61366a81613ddb565b82525050565b61367981613e30565b82525050565b600061368a82613c86565b6136948185613c91565b93506136a4818560208601613e66565b6136ad81614000565b840191505092915050565b60006136c5602383613c91565b91506136d08261401e565b604082019050919050565b60006136e8602683613c91565b91506136f38261406d565b604082019050919050565b600061370b602283613c91565b9150613716826140bc565b604082019050919050565b600061372e601d83613c91565b91506137398261410b565b602082019050919050565b6000613751602683613c91565b915061375c82614134565b604082019050919050565b6000613774602683613c91565b915061377f82614183565b604082019050919050565b6000613797602e83613c91565b91506137a2826141d2565b604082019050919050565b60006137ba602b83613c91565b91506137c582614221565b604082019050919050565b60006137dd602083613c91565b91506137e882614270565b602082019050919050565b6000613800601483613c91565b915061380b82614299565b602082019050919050565b6000613823602583613c91565b915061382e826142c2565b604082019050919050565b6000613846602483613c91565b915061385182614311565b604082019050919050565b6000613869602b83613c91565b915061387482614360565b604082019050919050565b600061388c602583613c91565b9150613897826143af565b604082019050919050565b6138ab81613e07565b82525050565b6138c26138bd82613e07565b613f38565b82525050565b6138d181613e11565b82525050565b60006138e3828761363b565b6014820191506138f382866138b1565b60208201915061390382856138b1565b60208201915061391382846138b1565b60208201915081905095945050505050565b600060208201905061393a6000830184613652565b92915050565b6000602082019050613955600083018461362c565b92915050565b60006060820190506139706000830186613652565b61397d602083018561361d565b61398a60408301846138a2565b949350505050565b60006060820190506139a76000830186613652565b6139b46020830185613652565b6139c160408301846138a2565b949350505050565b60006020820190506139de6000830184613661565b92915050565b60006020820190506139f96000830184613670565b92915050565b60006020820190508181036000830152613a19818461367f565b905092915050565b60006020820190508181036000830152613a3a816136b8565b9050919050565b60006020820190508181036000830152613a5a816136db565b9050919050565b60006020820190508181036000830152613a7a816136fe565b9050919050565b60006020820190508181036000830152613a9a81613721565b9050919050565b60006020820190508181036000830152613aba81613744565b9050919050565b60006020820190508181036000830152613ada81613767565b9050919050565b60006020820190508181036000830152613afa8161378a565b9050919050565b60006020820190508181036000830152613b1a816137ad565b9050919050565b60006020820190508181036000830152613b3a816137d0565b9050919050565b60006020820190508181036000830152613b5a816137f3565b9050919050565b60006020820190508181036000830152613b7a81613816565b9050919050565b60006020820190508181036000830152613b9a81613839565b9050919050565b60006020820190508181036000830152613bba8161385c565b9050919050565b60006020820190508181036000830152613bda8161387f565b9050919050565b6000602082019050613bf660008301846138a2565b92915050565b600060e082019050613c11600083018a6138a2565b613c1e6020830189613652565b613c2b60408301886138a2565b613c3860608301876138a2565b613c4560808301866138a2565b613c5260a08301856138a2565b613c5f60c08301846138a2565b98975050505050505050565b6000602082019050613c8060008301846138c8565b92915050565b600081519050919050565b600082825260208201905092915050565b6000613cad82613e07565b9150613cb883613e07565b9250827fffffffffffffffffffffffffffffffffffffffffffffffffffffffffffffffff03821115613ced57613cec613f73565b5b828201905092915050565b6000613d0382613e07565b9150613d0e83613e07565b925082613d1e57613d1d613fa2565b5b828204905092915050565b6000613d3482613e07565b9150613d3f83613e07565b9250817fffffffffffffffffffffffffffffffffffffffffffffffffffffffffffffffff0483118215151615613d7857613d77613f73565b5b828202905092915050565b6000613d8e82613e07565b9150613d9983613e07565b925082821015613dac57613dab613f73565b5b828203905092915050565b6000613dc282613de7565b9050919050565b6000613dd482613de7565b9050919050565b60008115159050919050565b600073ffffffffffffffffffffffffffffffffffffffff82169050919050565b6000819050919050565b600060ff82169050919050565b6000613e2982613e42565b9050919050565b6000613e3b82613e11565b9050919050565b6000613e4d82613e54565b9050919050565b6000613e5f82613de7565b9050919050565b60005b83811015613e84578082015181840152602081019050613e69565b83811115613e93576000848401525b50505050565b60006002820490506001821680613eb157607f821691505b60208210811415613ec557613ec4613fd1565b5b50919050565b6000613ed682613e07565b91507fffffffffffffffffffffffffffffffffffffffffffffffffffffffffffffffff821415613f0957613f08613f73565b5b600182019050919050565b6000613f1f82613f26565b9050919050565b6000613f3182614011565b9050919050565b6000819050919050565b6000613f4d82613e07565b9150613f5883613e07565b925082613f6857613f67613fa2565b5b828206905092915050565b7f4e487b7100000000000000000000000000000000000000000000000000000000600052601160045260246000fd5b7f4e487b7100000000000000000000000000000000000000000000000000000000600052601260045260246000fd5b7f4e487b7100000000000000000000000000000000000000000000000000000000600052602260045260246000fd5b6000601f19601f8301169050919050565b60008160601b9050919050565b7f45524332303a207472616e7366657220746f20746865207a65726f206164647260008201527f6573730000000000000000000000000000000000000000000000000000000000602082015250565b7f4f776e61626c653a206e6577206f776e657220697320746865207a65726f206160008201527f6464726573730000000000000000000000000000000000000000000000000000602082015250565b7f45524332303a20617070726f766520746f20746865207a65726f20616464726560008201527f7373000000000000000000000000000000000000000000000000000000000000602082015250565b7f45524332303a20696e73756666696369656e7420616c6c6f77616e6365000000600082015250565b7f45524332303a207472616e7366657220616d6f756e742065786365656473206260008201527f616c616e63650000000000000000000000000000000000000000000000000000602082015250565b7f576974686472617720416d6f756e74206d75737420626520677265617465722060008201527f7468616e20300000000000000000000000000000000000000000000000000000602082015250565b7f496e697469616c697a61626c653a20636f6e747261637420697320616c72656160008201527f647920696e697469616c697a6564000000000000000000000000000000000000602082015250565b7f596f752063616e6e6f74207769746864726177206d6f7265207468616e20796f60008201527f75206465706f7369746564000000000000000000000000000000000000000000602082015250565b7f4f776e61626c653a2063616c6c6572206973206e6f7420746865206f776e6572600082015250565b7f496e73756666696369656e742042616c616e6365000000000000000000000000600082015250565b7f45524332303a207472616e736665722066726f6d20746865207a65726f20616460008201527f6472657373000000000000000000000000000000000000000000000000000000602082015250565b7f45524332303a20617070726f76652066726f6d20746865207a65726f2061646460008201527f7265737300000000000000000000000000000000000000000000000000000000602082015250565b7f496e697469616c697a61626c653a20636f6e7472616374206973206e6f74206960008201527f6e697469616c697a696e67000000000000000000000000000000000000000000602082015250565b7f45524332303a2064656372656173656420616c6c6f77616e63652062656c6f7760008201527f207a65726f000000000000000000000000000000000000000000000000000000602082015250565b61440781613db7565b811461441257600080fd5b50565b61441e81613ddb565b811461442957600080fd5b50565b61443581613e07565b811461444057600080fd5b5056fea2646970667358221220631762f115e3789994fee194a63097c5f0942d962451fa7cefe70c2fa1a430a564736f6c63430008040033",
          "opcodes": "PUSH1 0x80 PUSH1 0x40 MSTORE CALLVALUE DUP1 ISZERO PUSH2 0x10 JUMPI PUSH1 0x0 DUP1 REVERT JUMPDEST POP PUSH2 0x4479 DUP1 PUSH2 0x20 PUSH1 0x0 CODECOPY PUSH1 0x0 RETURN INVALID PUSH1 0x80 PUSH1 0x40 MSTORE PUSH1 0x4 CALLDATASIZE LT PUSH2 0x225 JUMPI PUSH1 0x0 CALLDATALOAD PUSH1 0xE0 SHR DUP1 PUSH4 0x70A08231 GT PUSH2 0x123 JUMPI DUP1 PUSH4 0xA9059CBB GT PUSH2 0xAB JUMPI DUP1 PUSH4 0xD357D0BA GT PUSH2 0x6F JUMPI DUP1 PUSH4 0xD357D0BA EQ PUSH2 0x7FC JUMPI DUP1 PUSH4 0xDD62ED3E EQ PUSH2 0x806 JUMPI DUP1 PUSH4 0xE2A5CD2C EQ PUSH2 0x843 JUMPI DUP1 PUSH4 0xF2FDE38B EQ PUSH2 0x86E JUMPI DUP1 PUSH4 0xF851A440 EQ PUSH2 0x897 JUMPI PUSH2 0x225 JUMP JUMPDEST DUP1 PUSH4 0xA9059CBB EQ PUSH2 0x72C JUMPI DUP1 PUSH4 0xB6B55F25 EQ PUSH2 0x769 JUMPI DUP1 PUSH4 0xB8033D76 EQ PUSH2 0x799 JUMPI DUP1 PUSH4 0xC6BEC93A EQ PUSH2 0x7D6 JUMPI DUP1 PUSH4 0xD0342D65 EQ PUSH2 0x7F2 JUMPI PUSH2 0x225 JUMP JUMPDEST DUP1 PUSH4 0x8DA5CB5B GT PUSH2 0xF2 JUMPI DUP1 PUSH4 0x8DA5CB5B EQ PUSH2 0x631 JUMPI DUP1 PUSH4 0x95D89B41 EQ PUSH2 0x65C JUMPI DUP1 PUSH4 0x98C98CAD EQ PUSH2 0x687 JUMPI DUP1 PUSH4 0xA2FB1175 EQ PUSH2 0x6B2 JUMPI DUP1 PUSH4 0xA457C2D7 EQ PUSH2 0x6EF JUMPI PUSH2 0x225 JUMP JUMPDEST DUP1 PUSH4 0x70A08231 EQ PUSH2 0x589 JUMPI DUP1 PUSH4 0x715018A6 EQ PUSH2 0x5C6 JUMPI DUP1 PUSH4 0x79A0C073 EQ PUSH2 0x5DD JUMPI DUP1 PUSH4 0x8129FC1C EQ PUSH2 0x61A JUMPI PUSH2 0x225 JUMP JUMPDEST DUP1 PUSH4 0x23B872DD GT PUSH2 0x1B1 JUMPI DUP1 PUSH4 0x34A7F193 GT PUSH2 0x175 JUMPI DUP1 PUSH4 0x34A7F193 EQ PUSH2 0x4A0 JUMPI DUP1 PUSH4 0x39509351 EQ PUSH2 0x4CB JUMPI DUP1 PUSH4 0x5D0DD51A EQ PUSH2 0x508 JUMPI DUP1 PUSH4 0x6D9E1CC2 EQ PUSH2 0x533 JUMPI DUP1 PUSH4 0x6E9960C3 EQ PUSH2 0x55E JUMPI PUSH2 0x225 JUMP JUMPDEST DUP1 PUSH4 0x23B872DD EQ PUSH2 0x3C6 JUMPI DUP1 PUSH4 0x27F2AC6C EQ PUSH2 0x403 JUMPI DUP1 PUSH4 0x2DDBD13A EQ PUSH2 0x421 JUMPI DUP1 PUSH4 0x2E1A7D4D EQ PUSH2 0x44C JUMPI DUP1 PUSH4 0x313CE567 EQ PUSH2 0x475 JUMPI PUSH2 0x225 JUMP JUMPDEST DUP1 PUSH4 0xDEE1929 GT PUSH2 0x1F8 JUMPI DUP1 PUSH4 0xDEE1929 EQ PUSH2 0x300 JUMPI DUP1 PUSH4 0xFB5A6B4 EQ PUSH2 0x329 JUMPI DUP1 PUSH4 0xFCC56F7 EQ PUSH2 0x354 JUMPI DUP1 PUSH4 0x18160DDD EQ PUSH2 0x370 JUMPI DUP1 PUSH4 0x1930B13A EQ PUSH2 0x39B JUMPI PUSH2 0x225 JUMP JUMPDEST DUP1 PUSH4 0x6FDDE03 EQ PUSH2 0x22A JUMPI DUP1 PUSH4 0x737C24B EQ PUSH2 0x255 JUMPI DUP1 PUSH4 0x95EA7B3 EQ PUSH2 0x280 JUMPI DUP1 PUSH4 0xAEC4ED1 EQ PUSH2 0x2BD JUMPI JUMPDEST PUSH1 0x0 DUP1 REVERT JUMPDEST CALLVALUE DUP1 ISZERO PUSH2 0x236 JUMPI PUSH1 0x0 DUP1 REVERT JUMPDEST POP PUSH2 0x23F PUSH2 0x8C2 JUMP JUMPDEST PUSH1 0x40 MLOAD PUSH2 0x24C SWAP2 SWAP1 PUSH2 0x39FF JUMP JUMPDEST PUSH1 0x40 MLOAD DUP1 SWAP2 SUB SWAP1 RETURN JUMPDEST CALLVALUE DUP1 ISZERO PUSH2 0x261 JUMPI PUSH1 0x0 DUP1 REVERT JUMPDEST POP PUSH2 0x26A PUSH2 0x954 JUMP JUMPDEST PUSH1 0x40 MLOAD PUSH2 0x277 SWAP2 SWAP1 PUSH2 0x3BE1 JUMP JUMPDEST PUSH1 0x40 MLOAD DUP1 SWAP2 SUB SWAP1 RETURN JUMPDEST CALLVALUE DUP1 ISZERO PUSH2 0x28C JUMPI PUSH1 0x0 DUP1 REVERT JUMPDEST POP PUSH2 0x2A7 PUSH1 0x4 DUP1 CALLDATASIZE SUB DUP2 ADD SWAP1 PUSH2 0x2A2 SWAP2 SWAP1 PUSH2 0x352A JUMP JUMPDEST PUSH2 0xA56 JUMP JUMPDEST PUSH1 0x40 MLOAD PUSH2 0x2B4 SWAP2 SWAP1 PUSH2 0x39C9 JUMP JUMPDEST PUSH1 0x40 MLOAD DUP1 SWAP2 SUB SWAP1 RETURN JUMPDEST CALLVALUE DUP1 ISZERO PUSH2 0x2C9 JUMPI PUSH1 0x0 DUP1 REVERT JUMPDEST POP PUSH2 0x2E4 PUSH1 0x4 DUP1 CALLDATASIZE SUB DUP2 ADD SWAP1 PUSH2 0x2DF SWAP2 SWAP1 PUSH2 0x358F JUMP JUMPDEST PUSH2 0xA79 JUMP JUMPDEST PUSH1 0x40 MLOAD PUSH2 0x2F7 SWAP8 SWAP7 SWAP6 SWAP5 SWAP4 SWAP3 SWAP2 SWAP1 PUSH2 0x3BFC JUMP JUMPDEST PUSH1 0x40 MLOAD DUP1 SWAP2 SUB SWAP1 RETURN JUMPDEST CALLVALUE DUP1 ISZERO PUSH2 0x30C JUMPI PUSH1 0x0 DUP1 REVERT JUMPDEST POP PUSH2 0x327 PUSH1 0x4 DUP1 CALLDATASIZE SUB DUP2 ADD SWAP1 PUSH2 0x322 SWAP2 SWAP1 PUSH2 0x3476 JUMP JUMPDEST PUSH2 0xADB JUMP JUMPDEST STOP JUMPDEST CALLVALUE DUP1 ISZERO PUSH2 0x335 JUMPI PUSH1 0x0 DUP1 REVERT JUMPDEST POP PUSH2 0x33E PUSH2 0xBBD JUMP JUMPDEST PUSH1 0x40 MLOAD PUSH2 0x34B SWAP2 SWAP1 PUSH2 0x3BE1 JUMP JUMPDEST PUSH1 0x40 MLOAD DUP1 SWAP2 SUB SWAP1 RETURN JUMPDEST PUSH2 0x36E PUSH1 0x4 DUP1 CALLDATASIZE SUB DUP2 ADD SWAP1 PUSH2 0x369 SWAP2 SWAP1 PUSH2 0x358F JUMP JUMPDEST PUSH2 0xBC2 JUMP JUMPDEST STOP JUMPDEST CALLVALUE DUP1 ISZERO PUSH2 0x37C JUMPI PUSH1 0x0 DUP1 REVERT JUMPDEST POP PUSH2 0x385 PUSH2 0xFFF JUMP JUMPDEST PUSH1 0x40 MLOAD PUSH2 0x392 SWAP2 SWAP1 PUSH2 0x3BE1 JUMP JUMPDEST PUSH1 0x40 MLOAD DUP1 SWAP2 SUB SWAP1 RETURN JUMPDEST CALLVALUE DUP1 ISZERO PUSH2 0x3A7 JUMPI PUSH1 0x0 DUP1 REVERT JUMPDEST POP PUSH2 0x3B0 PUSH2 0x1009 JUMP JUMPDEST PUSH1 0x40 MLOAD PUSH2 0x3BD SWAP2 SWAP1 PUSH2 0x3BE1 JUMP JUMPDEST PUSH1 0x40 MLOAD DUP1 SWAP2 SUB SWAP1 RETURN JUMPDEST CALLVALUE DUP1 ISZERO PUSH2 0x3D2 JUMPI PUSH1 0x0 DUP1 REVERT JUMPDEST POP PUSH2 0x3ED PUSH1 0x4 DUP1 CALLDATASIZE SUB DUP2 ADD SWAP1 PUSH2 0x3E8 SWAP2 SWAP1 PUSH2 0x34DB JUMP JUMPDEST PUSH2 0x1114 JUMP JUMPDEST PUSH1 0x40 MLOAD PUSH2 0x3FA SWAP2 SWAP1 PUSH2 0x39C9 JUMP JUMPDEST PUSH1 0x40 MLOAD DUP1 SWAP2 SUB SWAP1 RETURN JUMPDEST PUSH2 0x40B PUSH2 0x1143 JUMP JUMPDEST PUSH1 0x40 MLOAD PUSH2 0x418 SWAP2 SWAP1 PUSH2 0x3BE1 JUMP JUMPDEST PUSH1 0x40 MLOAD DUP1 SWAP2 SUB SWAP1 RETURN JUMPDEST CALLVALUE DUP1 ISZERO PUSH2 0x42D JUMPI PUSH1 0x0 DUP1 REVERT JUMPDEST POP PUSH2 0x436 PUSH2 0x1375 JUMP JUMPDEST PUSH1 0x40 MLOAD PUSH2 0x443 SWAP2 SWAP1 PUSH2 0x3BE1 JUMP JUMPDEST PUSH1 0x40 MLOAD DUP1 SWAP2 SUB SWAP1 RETURN JUMPDEST CALLVALUE DUP1 ISZERO PUSH2 0x458 JUMPI PUSH1 0x0 DUP1 REVERT JUMPDEST POP PUSH2 0x473 PUSH1 0x4 DUP1 CALLDATASIZE SUB DUP2 ADD SWAP1 PUSH2 0x46E SWAP2 SWAP1 PUSH2 0x358F JUMP JUMPDEST PUSH2 0x137B JUMP JUMPDEST STOP JUMPDEST CALLVALUE DUP1 ISZERO PUSH2 0x481 JUMPI PUSH1 0x0 DUP1 REVERT JUMPDEST POP PUSH2 0x48A PUSH2 0x15BB JUMP JUMPDEST PUSH1 0x40 MLOAD PUSH2 0x497 SWAP2 SWAP1 PUSH2 0x3C6B JUMP JUMPDEST PUSH1 0x40 MLOAD DUP1 SWAP2 SUB SWAP1 RETURN JUMPDEST CALLVALUE DUP1 ISZERO PUSH2 0x4AC JUMPI PUSH1 0x0 DUP1 REVERT JUMPDEST POP PUSH2 0x4B5 PUSH2 0x15C4 JUMP JUMPDEST PUSH1 0x40 MLOAD PUSH2 0x4C2 SWAP2 SWAP1 PUSH2 0x3BE1 JUMP JUMPDEST PUSH1 0x40 MLOAD DUP1 SWAP2 SUB SWAP1 RETURN JUMPDEST CALLVALUE DUP1 ISZERO PUSH2 0x4D7 JUMPI PUSH1 0x0 DUP1 REVERT JUMPDEST POP PUSH2 0x4F2 PUSH1 0x4 DUP1 CALLDATASIZE SUB DUP2 ADD SWAP1 PUSH2 0x4ED SWAP2 SWAP1 PUSH2 0x352A JUMP JUMPDEST PUSH2 0x15D0 JUMP JUMPDEST PUSH1 0x40 MLOAD PUSH2 0x4FF SWAP2 SWAP1 PUSH2 0x39C9 JUMP JUMPDEST PUSH1 0x40 MLOAD DUP1 SWAP2 SUB SWAP1 RETURN JUMPDEST CALLVALUE DUP1 ISZERO PUSH2 0x514 JUMPI PUSH1 0x0 DUP1 REVERT JUMPDEST POP PUSH2 0x51D PUSH2 0x1607 JUMP JUMPDEST PUSH1 0x40 MLOAD PUSH2 0x52A SWAP2 SWAP1 PUSH2 0x3BE1 JUMP JUMPDEST PUSH1 0x40 MLOAD DUP1 SWAP2 SUB SWAP1 RETURN JUMPDEST CALLVALUE DUP1 ISZERO PUSH2 0x53F JUMPI PUSH1 0x0 DUP1 REVERT JUMPDEST POP PUSH2 0x548 PUSH2 0x1644 JUMP JUMPDEST PUSH1 0x40 MLOAD PUSH2 0x555 SWAP2 SWAP1 PUSH2 0x3BE1 JUMP JUMPDEST PUSH1 0x40 MLOAD DUP1 SWAP2 SUB SWAP1 RETURN JUMPDEST CALLVALUE DUP1 ISZERO PUSH2 0x56A JUMPI PUSH1 0x0 DUP1 REVERT JUMPDEST POP PUSH2 0x573 PUSH2 0x1750 JUMP JUMPDEST PUSH1 0x40 MLOAD PUSH2 0x580 SWAP2 SWAP1 PUSH2 0x3940 JUMP JUMPDEST PUSH1 0x40 MLOAD DUP1 SWAP2 SUB SWAP1 RETURN JUMPDEST CALLVALUE DUP1 ISZERO PUSH2 0x595 JUMPI PUSH1 0x0 DUP1 REVERT JUMPDEST POP PUSH2 0x5B0 PUSH1 0x4 DUP1 CALLDATASIZE SUB DUP2 ADD SWAP1 PUSH2 0x5AB SWAP2 SWAP1 PUSH2 0x3476 JUMP JUMPDEST PUSH2 0x177A JUMP JUMPDEST PUSH1 0x40 MLOAD PUSH2 0x5BD SWAP2 SWAP1 PUSH2 0x3BE1 JUMP JUMPDEST PUSH1 0x40 MLOAD DUP1 SWAP2 SUB SWAP1 RETURN JUMPDEST CALLVALUE DUP1 ISZERO PUSH2 0x5D2 JUMPI PUSH1 0x0 DUP1 REVERT JUMPDEST POP PUSH2 0x5DB PUSH2 0x17C3 JUMP JUMPDEST STOP JUMPDEST CALLVALUE DUP1 ISZERO PUSH2 0x5E9 JUMPI PUSH1 0x0 DUP1 REVERT JUMPDEST POP PUSH2 0x604 PUSH1 0x4 DUP1 CALLDATASIZE SUB DUP2 ADD SWAP1 PUSH2 0x5FF SWAP2 SWAP1 PUSH2 0x35E1 JUMP JUMPDEST PUSH2 0x184B JUMP JUMPDEST PUSH1 0x40 MLOAD PUSH2 0x611 SWAP2 SWAP1 PUSH2 0x3BE1 JUMP JUMPDEST PUSH1 0x40 MLOAD DUP1 SWAP2 SUB SWAP1 RETURN JUMPDEST CALLVALUE DUP1 ISZERO PUSH2 0x626 JUMPI PUSH1 0x0 DUP1 REVERT JUMPDEST POP PUSH2 0x62F PUSH2 0x18B6 JUMP JUMPDEST STOP JUMPDEST CALLVALUE DUP1 ISZERO PUSH2 0x63D JUMPI PUSH1 0x0 DUP1 REVERT JUMPDEST POP PUSH2 0x646 PUSH2 0x1A17 JUMP JUMPDEST PUSH1 0x40 MLOAD PUSH2 0x653 SWAP2 SWAP1 PUSH2 0x3925 JUMP JUMPDEST PUSH1 0x40 MLOAD DUP1 SWAP2 SUB SWAP1 RETURN JUMPDEST CALLVALUE DUP1 ISZERO PUSH2 0x668 JUMPI PUSH1 0x0 DUP1 REVERT JUMPDEST POP PUSH2 0x671 PUSH2 0x1A41 JUMP JUMPDEST PUSH1 0x40 MLOAD PUSH2 0x67E SWAP2 SWAP1 PUSH2 0x39FF JUMP JUMPDEST PUSH1 0x40 MLOAD DUP1 SWAP2 SUB SWAP1 RETURN JUMPDEST CALLVALUE DUP1 ISZERO PUSH2 0x693 JUMPI PUSH1 0x0 DUP1 REVERT JUMPDEST POP PUSH2 0x69C PUSH2 0x1AD3 JUMP JUMPDEST PUSH1 0x40 MLOAD PUSH2 0x6A9 SWAP2 SWAP1 PUSH2 0x3BE1 JUMP JUMPDEST PUSH1 0x40 MLOAD DUP1 SWAP2 SUB SWAP1 RETURN JUMPDEST CALLVALUE DUP1 ISZERO PUSH2 0x6BE JUMPI PUSH1 0x0 DUP1 REVERT JUMPDEST POP PUSH2 0x6D9 PUSH1 0x4 DUP1 CALLDATASIZE SUB DUP2 ADD SWAP1 PUSH2 0x6D4 SWAP2 SWAP1 PUSH2 0x358F JUMP JUMPDEST PUSH2 0x1C51 JUMP JUMPDEST PUSH1 0x40 MLOAD PUSH2 0x6E6 SWAP2 SWAP1 PUSH2 0x3925 JUMP JUMPDEST PUSH1 0x40 MLOAD DUP1 SWAP2 SUB SWAP1 RETURN JUMPDEST CALLVALUE DUP1 ISZERO PUSH2 0x6FB JUMPI PUSH1 0x0 DUP1 REVERT JUMPDEST POP PUSH2 0x716 PUSH1 0x4 DUP1 CALLDATASIZE SUB DUP2 ADD SWAP1 PUSH2 0x711 SWAP2 SWAP1 PUSH2 0x352A JUMP JUMPDEST PUSH2 0x1C90 JUMP JUMPDEST PUSH1 0x40 MLOAD PUSH2 0x723 SWAP2 SWAP1 PUSH2 0x39C9 JUMP JUMPDEST PUSH1 0x40 MLOAD DUP1 SWAP2 SUB SWAP1 RETURN JUMPDEST CALLVALUE DUP1 ISZERO PUSH2 0x738 JUMPI PUSH1 0x0 DUP1 REVERT JUMPDEST POP PUSH2 0x753 PUSH1 0x4 DUP1 CALLDATASIZE SUB DUP2 ADD SWAP1 PUSH2 0x74E SWAP2 SWAP1 PUSH2 0x352A JUMP JUMPDEST PUSH2 0x1D07 JUMP JUMPDEST PUSH1 0x40 MLOAD PUSH2 0x760 SWAP2 SWAP1 PUSH2 0x39C9 JUMP JUMPDEST PUSH1 0x40 MLOAD DUP1 SWAP2 SUB SWAP1 RETURN JUMPDEST PUSH2 0x783 PUSH1 0x4 DUP1 CALLDATASIZE SUB DUP2 ADD SWAP1 PUSH2 0x77E SWAP2 SWAP1 PUSH2 0x358F JUMP JUMPDEST PUSH2 0x1D2A JUMP JUMPDEST PUSH1 0x40 MLOAD PUSH2 0x790 SWAP2 SWAP1 PUSH2 0x3BE1 JUMP JUMPDEST PUSH1 0x40 MLOAD DUP1 SWAP2 SUB SWAP1 RETURN JUMPDEST CALLVALUE DUP1 ISZERO PUSH2 0x7A5 JUMPI PUSH1 0x0 DUP1 REVERT JUMPDEST POP PUSH2 0x7C0 PUSH1 0x4 DUP1 CALLDATASIZE SUB DUP2 ADD SWAP1 PUSH2 0x7BB SWAP2 SWAP1 PUSH2 0x358F JUMP JUMPDEST PUSH2 0x1F3B JUMP JUMPDEST PUSH1 0x40 MLOAD PUSH2 0x7CD SWAP2 SWAP1 PUSH2 0x3925 JUMP JUMPDEST PUSH1 0x40 MLOAD DUP1 SWAP2 SUB SWAP1 RETURN JUMPDEST PUSH2 0x7F0 PUSH1 0x4 DUP1 CALLDATASIZE SUB DUP2 ADD SWAP1 PUSH2 0x7EB SWAP2 SWAP1 PUSH2 0x358F JUMP JUMPDEST PUSH2 0x1F7A JUMP JUMPDEST STOP JUMPDEST PUSH2 0x7FA PUSH2 0x2291 JUMP JUMPDEST STOP JUMPDEST PUSH2 0x804 PUSH2 0x255B JUMP JUMPDEST STOP JUMPDEST CALLVALUE DUP1 ISZERO PUSH2 0x812 JUMPI PUSH1 0x0 DUP1 REVERT JUMPDEST POP PUSH2 0x82D PUSH1 0x4 DUP1 CALLDATASIZE SUB DUP2 ADD SWAP1 PUSH2 0x828 SWAP2 SWAP1 PUSH2 0x349F JUMP JUMPDEST PUSH2 0x27A7 JUMP JUMPDEST PUSH1 0x40 MLOAD PUSH2 0x83A SWAP2 SWAP1 PUSH2 0x3BE1 JUMP JUMPDEST PUSH1 0x40 MLOAD DUP1 SWAP2 SUB SWAP1 RETURN JUMPDEST CALLVALUE DUP1 ISZERO PUSH2 0x84F JUMPI PUSH1 0x0 DUP1 REVERT JUMPDEST POP PUSH2 0x858 PUSH2 0x282E JUMP JUMPDEST PUSH1 0x40 MLOAD PUSH2 0x865 SWAP2 SWAP1 PUSH2 0x3BE1 JUMP JUMPDEST PUSH1 0x40 MLOAD DUP1 SWAP2 SUB SWAP1 RETURN JUMPDEST CALLVALUE DUP1 ISZERO PUSH2 0x87A JUMPI PUSH1 0x0 DUP1 REVERT JUMPDEST POP PUSH2 0x895 PUSH1 0x4 DUP1 CALLDATASIZE SUB DUP2 ADD SWAP1 PUSH2 0x890 SWAP2 SWAP1 PUSH2 0x3476 JUMP JUMPDEST PUSH2 0x2911 JUMP JUMPDEST STOP JUMPDEST CALLVALUE DUP1 ISZERO PUSH2 0x8A3 JUMPI PUSH1 0x0 DUP1 REVERT JUMPDEST POP PUSH2 0x8AC PUSH2 0x2A09 JUMP JUMPDEST PUSH1 0x40 MLOAD PUSH2 0x8B9 SWAP2 SWAP1 PUSH2 0x3940 JUMP JUMPDEST PUSH1 0x40 MLOAD DUP1 SWAP2 SUB SWAP1 RETURN JUMPDEST PUSH1 0x60 PUSH1 0x36 DUP1 SLOAD PUSH2 0x8D1 SWAP1 PUSH2 0x3E99 JUMP JUMPDEST DUP1 PUSH1 0x1F ADD PUSH1 0x20 DUP1 SWAP2 DIV MUL PUSH1 0x20 ADD PUSH1 0x40 MLOAD SWAP1 DUP2 ADD PUSH1 0x40 MSTORE DUP1 SWAP3 SWAP2 SWAP1 DUP2 DUP2 MSTORE PUSH1 0x20 ADD DUP3 DUP1 SLOAD PUSH2 0x8FD SWAP1 PUSH2 0x3E99 JUMP JUMPDEST DUP1 ISZERO PUSH2 0x94A JUMPI DUP1 PUSH1 0x1F LT PUSH2 0x91F JUMPI PUSH2 0x100 DUP1 DUP4 SLOAD DIV MUL DUP4 MSTORE SWAP2 PUSH1 0x20 ADD SWAP2 PUSH2 0x94A JUMP JUMPDEST DUP3 ADD SWAP2 SWAP1 PUSH1 0x0 MSTORE PUSH1 0x20 PUSH1 0x0 KECCAK256 SWAP1 JUMPDEST DUP2 SLOAD DUP2 MSTORE SWAP1 PUSH1 0x1 ADD SWAP1 PUSH1 0x20 ADD DUP1 DUP4 GT PUSH2 0x92D JUMPI DUP3 SWAP1 SUB PUSH1 0x1F AND DUP3 ADD SWAP2 JUMPDEST POP POP POP POP POP SWAP1 POP SWAP1 JUMP JUMPDEST PUSH1 0x0 DUP1 PUSH2 0x961 PUSH1 0x97 PUSH2 0x2A2F JUMP JUMPDEST SWAP1 POP PUSH1 0x0 DUP1 JUMPDEST DUP3 DUP2 LT ISZERO PUSH2 0xA4D JUMPI PUSH1 0x0 PUSH1 0x3C PUSH1 0x9E PUSH1 0x0 PUSH1 0x1 DUP6 PUSH2 0x984 SWAP2 SWAP1 PUSH2 0x3CA2 JUMP JUMPDEST DUP2 MSTORE PUSH1 0x20 ADD SWAP1 DUP2 MSTORE PUSH1 0x20 ADD PUSH1 0x0 KECCAK256 PUSH1 0x5 ADD SLOAD TIMESTAMP PUSH2 0x9A1 SWAP2 SWAP1 PUSH2 0x3D83 JUMP JUMPDEST PUSH2 0x9AB SWAP2 SWAP1 PUSH2 0x3CF8 JUMP JUMPDEST SWAP1 POP PUSH1 0x0 PUSH1 0x9E PUSH1 0x0 PUSH1 0x1 DUP6 PUSH2 0x9C0 SWAP2 SWAP1 PUSH2 0x3CA2 JUMP JUMPDEST DUP2 MSTORE PUSH1 0x20 ADD SWAP1 DUP2 MSTORE PUSH1 0x20 ADD PUSH1 0x0 KECCAK256 PUSH1 0x4 ADD SLOAD SWAP1 POP PUSH1 0x0 DUP1 JUMPDEST DUP4 DUP2 LT ISZERO PUSH2 0xA28 JUMPI PUSH2 0x3E8 PUSH1 0x3 DUP5 PUSH2 0x9F0 SWAP2 SWAP1 PUSH2 0x3D29 JUMP JUMPDEST PUSH2 0x9FA SWAP2 SWAP1 PUSH2 0x3CF8 JUMP JUMPDEST DUP3 PUSH2 0xA05 SWAP2 SWAP1 PUSH2 0x3CA2 JUMP JUMPDEST SWAP2 POP DUP2 DUP4 PUSH2 0xA13 SWAP2 SWAP1 PUSH2 0x3CA2 JUMP JUMPDEST SWAP3 POP DUP1 DUP1 PUSH2 0xA20 SWAP1 PUSH2 0x3ECB JUMP JUMPDEST SWAP2 POP POP PUSH2 0x9D8 JUMP JUMPDEST POP DUP1 DUP6 PUSH2 0xA35 SWAP2 SWAP1 PUSH2 0x3CA2 JUMP JUMPDEST SWAP5 POP POP POP POP DUP1 DUP1 PUSH2 0xA45 SWAP1 PUSH2 0x3ECB JUMP JUMPDEST SWAP2 POP POP PUSH2 0x967 JUMP JUMPDEST POP DUP1 SWAP3 POP POP POP SWAP1 JUMP JUMPDEST PUSH1 0x0 DUP1 PUSH2 0xA61 PUSH2 0x2A3D JUMP JUMPDEST SWAP1 POP PUSH2 0xA6E DUP2 DUP6 DUP6 PUSH2 0x2A45 JUMP JUMPDEST PUSH1 0x1 SWAP2 POP POP SWAP3 SWAP2 POP POP JUMP JUMPDEST PUSH1 0x9E PUSH1 0x20 MSTORE DUP1 PUSH1 0x0 MSTORE PUSH1 0x40 PUSH1 0x0 KECCAK256 PUSH1 0x0 SWAP2 POP SWAP1 POP DUP1 PUSH1 0x0 ADD SLOAD SWAP1 DUP1 PUSH1 0x1 ADD PUSH1 0x0 SWAP1 SLOAD SWAP1 PUSH2 0x100 EXP SWAP1 DIV PUSH20 0xFFFFFFFFFFFFFFFFFFFFFFFFFFFFFFFFFFFFFFFF AND SWAP1 DUP1 PUSH1 0x2 ADD SLOAD SWAP1 DUP1 PUSH1 0x3 ADD SLOAD SWAP1 DUP1 PUSH1 0x4 ADD SLOAD SWAP1 DUP1 PUSH1 0x5 ADD SLOAD SWAP1 DUP1 PUSH1 0x6 ADD SLOAD SWAP1 POP DUP8 JUMP JUMPDEST PUSH2 0xAE3 PUSH2 0x2A3D JUMP JUMPDEST PUSH20 0xFFFFFFFFFFFFFFFFFFFFFFFFFFFFFFFFFFFFFFFF AND PUSH2 0xB01 PUSH2 0x1A17 JUMP JUMPDEST PUSH20 0xFFFFFFFFFFFFFFFFFFFFFFFFFFFFFFFFFFFFFFFF AND EQ PUSH2 0xB57 JUMPI PUSH1 0x40 MLOAD PUSH32 0x8C379A000000000000000000000000000000000000000000000000000000000 DUP2 MSTORE PUSH1 0x4 ADD PUSH2 0xB4E SWAP1 PUSH2 0x3B21 JUMP JUMPDEST PUSH1 0x40 MLOAD DUP1 SWAP2 SUB SWAP1 REVERT JUMPDEST PUSH1 0x98 DUP2 SWAP1 DUP1 PUSH1 0x1 DUP2 SLOAD ADD DUP1 DUP3 SSTORE DUP1 SWAP2 POP POP PUSH1 0x1 SWAP1 SUB SWAP1 PUSH1 0x0 MSTORE PUSH1 0x20 PUSH1 0x0 KECCAK256 ADD PUSH1 0x0 SWAP1 SWAP2 SWAP1 SWAP2 SWAP1 SWAP2 PUSH2 0x100 EXP DUP2 SLOAD DUP2 PUSH20 0xFFFFFFFFFFFFFFFFFFFFFFFFFFFFFFFFFFFFFFFF MUL NOT AND SWAP1 DUP4 PUSH20 0xFFFFFFFFFFFFFFFFFFFFFFFFFFFFFFFFFFFFFFFF AND MUL OR SWAP1 SSTORE POP POP JUMP JUMPDEST PUSH1 0x3C DUP2 JUMP JUMPDEST PUSH1 0x0 DUP2 GT PUSH2 0xC05 JUMPI PUSH1 0x40 MLOAD PUSH32 0x8C379A000000000000000000000000000000000000000000000000000000000 DUP2 MSTORE PUSH1 0x4 ADD PUSH2 0xBFC SWAP1 PUSH2 0x3AC1 JUMP JUMPDEST PUSH1 0x40 MLOAD DUP1 SWAP2 SUB SWAP1 REVERT JUMPDEST PUSH2 0xC0D PUSH2 0x1009 JUMP JUMPDEST DUP2 GT ISZERO PUSH2 0xC4F JUMPI PUSH1 0x40 MLOAD PUSH32 0x8C379A000000000000000000000000000000000000000000000000000000000 DUP2 MSTORE PUSH1 0x4 ADD PUSH2 0xC46 SWAP1 PUSH2 0x3B01 JUMP JUMPDEST PUSH1 0x40 MLOAD DUP1 SWAP2 SUB SWAP1 REVERT JUMPDEST PUSH1 0x0 PUSH2 0xC5B PUSH1 0x97 PUSH2 0x2A2F JUMP JUMPDEST SWAP1 POP PUSH1 0x0 DUP3 SWAP1 POP PUSH1 0x0 JUMPDEST DUP3 DUP2 LT ISZERO PUSH2 0xFF9 JUMPI CALLER PUSH20 0xFFFFFFFFFFFFFFFFFFFFFFFFFFFFFFFFFFFFFFFF AND PUSH1 0x9E PUSH1 0x0 PUSH1 0x1 DUP5 PUSH2 0xC95 SWAP2 SWAP1 PUSH2 0x3CA2 JUMP JUMPDEST DUP2 MSTORE PUSH1 0x20 ADD SWAP1 DUP2 MSTORE PUSH1 0x20 ADD PUSH1 0x0 KECCAK256 PUSH1 0x1 ADD PUSH1 0x0 SWAP1 SLOAD SWAP1 PUSH2 0x100 EXP SWAP1 DIV PUSH20 0xFFFFFFFFFFFFFFFFFFFFFFFFFFFFFFFFFFFFFFFF AND PUSH20 0xFFFFFFFFFFFFFFFFFFFFFFFFFFFFFFFFFFFFFFFF AND EQ DUP1 ISZERO PUSH2 0xD0B JUMPI POP PUSH1 0x9E PUSH1 0x0 PUSH1 0x1 DUP4 PUSH2 0xCF6 SWAP2 SWAP1 PUSH2 0x3CA2 JUMP JUMPDEST DUP2 MSTORE PUSH1 0x20 ADD SWAP1 DUP2 MSTORE PUSH1 0x20 ADD PUSH1 0x0 KECCAK256 PUSH1 0x6 ADD SLOAD TIMESTAMP LT JUMPDEST ISZERO PUSH2 0xFE6 JUMPI PUSH1 0x0 PUSH1 0x3C PUSH1 0x9E PUSH1 0x0 PUSH1 0x1 DUP6 PUSH2 0xD25 SWAP2 SWAP1 PUSH2 0x3CA2 JUMP JUMPDEST DUP2 MSTORE PUSH1 0x20 ADD SWAP1 DUP2 MSTORE PUSH1 0x20 ADD PUSH1 0x0 KECCAK256 PUSH1 0x5 ADD SLOAD TIMESTAMP PUSH2 0xD42 SWAP2 SWAP1 PUSH2 0x3D83 JUMP JUMPDEST PUSH2 0xD4C SWAP2 SWAP1 PUSH2 0x3CF8 JUMP JUMPDEST SWAP1 POP PUSH1 0x0 DUP2 PUSH1 0x2 PUSH2 0xD5D SWAP2 SWAP1 PUSH2 0x3D29 JUMP JUMPDEST PUSH1 0x1C PUSH2 0xD69 SWAP2 SWAP1 PUSH2 0x3D83 JUMP JUMPDEST SWAP1 POP PUSH1 0x0 PUSH1 0x64 DUP3 PUSH2 0xD7A SWAP2 SWAP1 PUSH2 0x3CF8 JUMP JUMPDEST DUP6 PUSH2 0xD85 SWAP2 SWAP1 PUSH2 0x3D29 JUMP JUMPDEST SWAP1 POP PUSH1 0x0 DUP2 DUP7 PUSH2 0xD95 SWAP2 SWAP1 PUSH2 0x3D83 JUMP JUMPDEST SWAP1 POP DUP6 PUSH1 0x9E PUSH1 0x0 PUSH1 0x1 DUP9 PUSH2 0xDA9 SWAP2 SWAP1 PUSH2 0x3CA2 JUMP JUMPDEST DUP2 MSTORE PUSH1 0x20 ADD SWAP1 DUP2 MSTORE PUSH1 0x20 ADD PUSH1 0x0 KECCAK256 PUSH1 0x4 ADD SLOAD GT ISZERO PUSH2 0xEB5 JUMPI PUSH1 0x9D PUSH1 0x0 SWAP1 SLOAD SWAP1 PUSH2 0x100 EXP SWAP1 DIV PUSH20 0xFFFFFFFFFFFFFFFFFFFFFFFFFFFFFFFFFFFFFFFF AND PUSH20 0xFFFFFFFFFFFFFFFFFFFFFFFFFFFFFFFFFFFFFFFF AND PUSH4 0x23B872DD ADDRESS CALLER DUP5 PUSH1 0x40 MLOAD DUP5 PUSH4 0xFFFFFFFF AND PUSH1 0xE0 SHL DUP2 MSTORE PUSH1 0x4 ADD PUSH2 0xE20 SWAP4 SWAP3 SWAP2 SWAP1 PUSH2 0x3992 JUMP JUMPDEST PUSH1 0x20 PUSH1 0x40 MLOAD DUP1 DUP4 SUB DUP2 PUSH1 0x0 DUP8 DUP1 EXTCODESIZE ISZERO DUP1 ISZERO PUSH2 0xE3A JUMPI PUSH1 0x0 DUP1 REVERT JUMPDEST POP GAS CALL ISZERO DUP1 ISZERO PUSH2 0xE4E JUMPI RETURNDATASIZE PUSH1 0x0 DUP1 RETURNDATACOPY RETURNDATASIZE PUSH1 0x0 REVERT JUMPDEST POP POP POP POP PUSH1 0x40 MLOAD RETURNDATASIZE PUSH1 0x1F NOT PUSH1 0x1F DUP3 ADD AND DUP3 ADD DUP1 PUSH1 0x40 MSTORE POP DUP2 ADD SWAP1 PUSH2 0xE72 SWAP2 SWAP1 PUSH2 0x3566 JUMP JUMPDEST POP DUP1 PUSH1 0x9E PUSH1 0x0 PUSH1 0x1 DUP9 PUSH2 0xE85 SWAP2 SWAP1 PUSH2 0x3CA2 JUMP JUMPDEST DUP2 MSTORE PUSH1 0x20 ADD SWAP1 DUP2 MSTORE PUSH1 0x20 ADD PUSH1 0x0 KECCAK256 PUSH1 0x4 ADD PUSH1 0x0 DUP3 DUP3 SLOAD PUSH2 0xEA5 SWAP2 SWAP1 PUSH2 0x3D83 JUMP JUMPDEST SWAP3 POP POP DUP2 SWAP1 SSTORE POP POP POP POP POP PUSH2 0xFF9 JUMP JUMPDEST PUSH1 0x9D PUSH1 0x0 SWAP1 SLOAD SWAP1 PUSH2 0x100 EXP SWAP1 DIV PUSH20 0xFFFFFFFFFFFFFFFFFFFFFFFFFFFFFFFFFFFFFFFF AND PUSH20 0xFFFFFFFFFFFFFFFFFFFFFFFFFFFFFFFFFFFFFFFF AND PUSH4 0x23B872DD ADDRESS CALLER PUSH1 0x9E PUSH1 0x0 PUSH1 0x1 DUP12 PUSH2 0xF06 SWAP2 SWAP1 PUSH2 0x3CA2 JUMP JUMPDEST DUP2 MSTORE PUSH1 0x20 ADD SWAP1 DUP2 MSTORE PUSH1 0x20 ADD PUSH1 0x0 KECCAK256 PUSH1 0x4 ADD SLOAD PUSH1 0x40 MLOAD DUP5 PUSH4 0xFFFFFFFF AND PUSH1 0xE0 SHL DUP2 MSTORE PUSH1 0x4 ADD PUSH2 0xF36 SWAP4 SWAP3 SWAP2 SWAP1 PUSH2 0x3992 JUMP JUMPDEST PUSH1 0x20 PUSH1 0x40 MLOAD DUP1 DUP4 SUB DUP2 PUSH1 0x0 DUP8 DUP1 EXTCODESIZE ISZERO DUP1 ISZERO PUSH2 0xF50 JUMPI PUSH1 0x0 DUP1 REVERT JUMPDEST POP GAS CALL ISZERO DUP1 ISZERO PUSH2 0xF64 JUMPI RETURNDATASIZE PUSH1 0x0 DUP1 RETURNDATACOPY RETURNDATASIZE PUSH1 0x0 REVERT JUMPDEST POP POP POP POP PUSH1 0x40 MLOAD RETURNDATASIZE PUSH1 0x1F NOT PUSH1 0x1F DUP3 ADD AND DUP3 ADD DUP1 PUSH1 0x40 MSTORE POP DUP2 ADD SWAP1 PUSH2 0xF88 SWAP2 SWAP1 PUSH2 0x3566 JUMP JUMPDEST POP PUSH1 0x0 PUSH1 0x9E PUSH1 0x0 PUSH1 0x1 DUP9 PUSH2 0xF9C SWAP2 SWAP1 PUSH2 0x3CA2 JUMP JUMPDEST DUP2 MSTORE PUSH1 0x20 ADD SWAP1 DUP2 MSTORE PUSH1 0x20 ADD PUSH1 0x0 KECCAK256 PUSH1 0x4 ADD DUP2 SWAP1 SSTORE POP PUSH1 0x9E PUSH1 0x0 PUSH1 0x1 DUP8 PUSH2 0xFC2 SWAP2 SWAP1 PUSH2 0x3CA2 JUMP JUMPDEST DUP2 MSTORE PUSH1 0x20 ADD SWAP1 DUP2 MSTORE PUSH1 0x20 ADD PUSH1 0x0 KECCAK256 PUSH1 0x4 ADD SLOAD DUP7 PUSH2 0xFDF SWAP2 SWAP1 PUSH2 0x3D83 JUMP JUMPDEST SWAP6 POP POP POP POP POP JUMPDEST DUP1 DUP1 PUSH2 0xFF1 SWAP1 PUSH2 0x3ECB JUMP JUMPDEST SWAP2 POP POP PUSH2 0xC65 JUMP JUMPDEST POP POP POP POP JUMP JUMPDEST PUSH1 0x0 PUSH1 0x35 SLOAD SWAP1 POP SWAP1 JUMP JUMPDEST PUSH1 0x0 DUP1 PUSH2 0x1016 PUSH1 0x97 PUSH2 0x2A2F JUMP JUMPDEST SWAP1 POP PUSH1 0x0 DUP1 JUMPDEST DUP3 DUP2 LT ISZERO PUSH2 0x110B JUMPI CALLER PUSH20 0xFFFFFFFFFFFFFFFFFFFFFFFFFFFFFFFFFFFFFFFF AND PUSH1 0x9E PUSH1 0x0 PUSH1 0x1 DUP5 PUSH2 0x104C SWAP2 SWAP1 PUSH2 0x3CA2 JUMP JUMPDEST DUP2 MSTORE PUSH1 0x20 ADD SWAP1 DUP2 MSTORE PUSH1 0x20 ADD PUSH1 0x0 KECCAK256 PUSH1 0x1 ADD PUSH1 0x0 SWAP1 SLOAD SWAP1 PUSH2 0x100 EXP SWAP1 DIV PUSH20 0xFFFFFFFFFFFFFFFFFFFFFFFFFFFFFFFFFFFFFFFF AND PUSH20 0xFFFFFFFFFFFFFFFFFFFFFFFFFFFFFFFFFFFFFFFF AND EQ DUP1 ISZERO PUSH2 0x10C2 JUMPI POP PUSH1 0x9E PUSH1 0x0 PUSH1 0x1 DUP4 PUSH2 0x10AD SWAP2 SWAP1 PUSH2 0x3CA2 JUMP JUMPDEST DUP2 MSTORE PUSH1 0x20 ADD SWAP1 DUP2 MSTORE PUSH1 0x20 ADD PUSH1 0x0 KECCAK256 PUSH1 0x6 ADD SLOAD TIMESTAMP LT JUMPDEST ISZERO PUSH2 0x10F8 JUMPI PUSH1 0x9E PUSH1 0x0 PUSH1 0x1 DUP4 PUSH2 0x10D8 SWAP2 SWAP1 PUSH2 0x3CA2 JUMP JUMPDEST DUP2 MSTORE PUSH1 0x20 ADD SWAP1 DUP2 MSTORE PUSH1 0x20 ADD PUSH1 0x0 KECCAK256 PUSH1 0x4 ADD SLOAD DUP3 PUSH2 0x10F5 SWAP2 SWAP1 PUSH2 0x3CA2 JUMP JUMPDEST SWAP2 POP JUMPDEST DUP1 DUP1 PUSH2 0x1103 SWAP1 PUSH2 0x3ECB JUMP JUMPDEST SWAP2 POP POP PUSH2 0x101C JUMP JUMPDEST POP DUP1 SWAP3 POP POP POP SWAP1 JUMP JUMPDEST PUSH1 0x0 DUP1 PUSH2 0x111F PUSH2 0x2A3D JUMP JUMPDEST SWAP1 POP PUSH2 0x112C DUP6 DUP3 DUP6 PUSH2 0x2C10 JUMP JUMPDEST PUSH2 0x1137 DUP6 DUP6 DUP6 PUSH2 0x2C9C JUMP JUMPDEST PUSH1 0x1 SWAP2 POP POP SWAP4 SWAP3 POP POP POP JUMP JUMPDEST PUSH1 0x0 PUSH2 0x114D PUSH2 0x2A3D JUMP JUMPDEST PUSH20 0xFFFFFFFFFFFFFFFFFFFFFFFFFFFFFFFFFFFFFFFF AND PUSH2 0x116B PUSH2 0x1A17 JUMP JUMPDEST PUSH20 0xFFFFFFFFFFFFFFFFFFFFFFFFFFFFFFFFFFFFFFFF AND EQ PUSH2 0x11C1 JUMPI PUSH1 0x40 MLOAD PUSH32 0x8C379A000000000000000000000000000000000000000000000000000000000 DUP2 MSTORE PUSH1 0x4 ADD PUSH2 0x11B8 SWAP1 PUSH2 0x3B21 JUMP JUMPDEST PUSH1 0x40 MLOAD DUP1 SWAP2 SUB SWAP1 REVERT JUMPDEST PUSH1 0x0 PUSH2 0x11CD PUSH1 0x97 PUSH2 0x2A2F JUMP JUMPDEST SWAP1 POP PUSH1 0x0 DUP1 JUMPDEST DUP3 DUP2 LT ISZERO PUSH2 0x12B9 JUMPI PUSH1 0x0 PUSH1 0x3C PUSH1 0x9E PUSH1 0x0 PUSH1 0x1 DUP6 PUSH2 0x11F0 SWAP2 SWAP1 PUSH2 0x3CA2 JUMP JUMPDEST DUP2 MSTORE PUSH1 0x20 ADD SWAP1 DUP2 MSTORE PUSH1 0x20 ADD PUSH1 0x0 KECCAK256 PUSH1 0x5 ADD SLOAD TIMESTAMP PUSH2 0x120D SWAP2 SWAP1 PUSH2 0x3D83 JUMP JUMPDEST PUSH2 0x1217 SWAP2 SWAP1 PUSH2 0x3CF8 JUMP JUMPDEST SWAP1 POP PUSH1 0x0 PUSH1 0x9E PUSH1 0x0 PUSH1 0x1 DUP6 PUSH2 0x122C SWAP2 SWAP1 PUSH2 0x3CA2 JUMP JUMPDEST DUP2 MSTORE PUSH1 0x20 ADD SWAP1 DUP2 MSTORE PUSH1 0x20 ADD PUSH1 0x0 KECCAK256 PUSH1 0x4 ADD SLOAD SWAP1 POP PUSH1 0x0 DUP1 JUMPDEST DUP4 DUP2 LT ISZERO PUSH2 0x1294 JUMPI PUSH2 0x3E8 PUSH1 0x2 DUP5 PUSH2 0x125C SWAP2 SWAP1 PUSH2 0x3D29 JUMP JUMPDEST PUSH2 0x1266 SWAP2 SWAP1 PUSH2 0x3CF8 JUMP JUMPDEST DUP3 PUSH2 0x1271 SWAP2 SWAP1 PUSH2 0x3CA2 JUMP JUMPDEST SWAP2 POP DUP2 DUP4 PUSH2 0x127F SWAP2 SWAP1 PUSH2 0x3CA2 JUMP JUMPDEST SWAP3 POP DUP5 DUP1 PUSH2 0x128C SWAP1 PUSH2 0x3ECB JUMP JUMPDEST SWAP6 POP POP PUSH2 0x1244 JUMP JUMPDEST POP DUP1 DUP6 PUSH2 0x12A1 SWAP2 SWAP1 PUSH2 0x3CA2 JUMP JUMPDEST SWAP5 POP POP POP POP DUP1 DUP1 PUSH2 0x12B1 SWAP1 PUSH2 0x3ECB JUMP JUMPDEST SWAP2 POP POP PUSH2 0x11D3 JUMP JUMPDEST POP PUSH1 0x9D PUSH1 0x0 SWAP1 SLOAD SWAP1 PUSH2 0x100 EXP SWAP1 DIV PUSH20 0xFFFFFFFFFFFFFFFFFFFFFFFFFFFFFFFFFFFFFFFF AND PUSH20 0xFFFFFFFFFFFFFFFFFFFFFFFFFFFFFFFFFFFFFFFF AND PUSH4 0x23B872DD ADDRESS PUSH1 0x0 DUP5 PUSH1 0x40 MLOAD DUP5 PUSH4 0xFFFFFFFF AND PUSH1 0xE0 SHL DUP2 MSTORE PUSH1 0x4 ADD PUSH2 0x131A SWAP4 SWAP3 SWAP2 SWAP1 PUSH2 0x3992 JUMP JUMPDEST PUSH1 0x20 PUSH1 0x40 MLOAD DUP1 DUP4 SUB DUP2 PUSH1 0x0 DUP8 DUP1 EXTCODESIZE ISZERO DUP1 ISZERO PUSH2 0x1334 JUMPI PUSH1 0x0 DUP1 REVERT JUMPDEST POP GAS CALL ISZERO DUP1 ISZERO PUSH2 0x1348 JUMPI RETURNDATASIZE PUSH1 0x0 DUP1 RETURNDATACOPY RETURNDATASIZE PUSH1 0x0 REVERT JUMPDEST POP POP POP POP PUSH1 0x40 MLOAD RETURNDATASIZE PUSH1 0x1F NOT PUSH1 0x1F DUP3 ADD AND DUP3 ADD DUP1 PUSH1 0x40 MSTORE POP DUP2 ADD SWAP1 PUSH2 0x136C SWAP2 SWAP1 PUSH2 0x3566 JUMP JUMPDEST POP DUP1 SWAP3 POP POP POP SWAP1 JUMP JUMPDEST PUSH1 0x9C SLOAD DUP2 JUMP JUMPDEST PUSH2 0x1383 PUSH2 0x2A3D JUMP JUMPDEST PUSH20 0xFFFFFFFFFFFFFFFFFFFFFFFFFFFFFFFFFFFFFFFF AND PUSH2 0x13A1 PUSH2 0x1A17 JUMP JUMPDEST PUSH20 0xFFFFFFFFFFFFFFFFFFFFFFFFFFFFFFFFFFFFFFFF AND EQ PUSH2 0x13F7 JUMPI PUSH1 0x40 MLOAD PUSH32 0x8C379A000000000000000000000000000000000000000000000000000000000 DUP2 MSTORE PUSH1 0x4 ADD PUSH2 0x13EE SWAP1 PUSH2 0x3B21 JUMP JUMPDEST PUSH1 0x40 MLOAD DUP1 SWAP2 SUB SWAP1 REVERT JUMPDEST PUSH1 0x9D PUSH1 0x0 SWAP1 SLOAD SWAP1 PUSH2 0x100 EXP SWAP1 DIV PUSH20 0xFFFFFFFFFFFFFFFFFFFFFFFFFFFFFFFFFFFFFFFF AND PUSH20 0xFFFFFFFFFFFFFFFFFFFFFFFFFFFFFFFFFFFFFFFF AND PUSH4 0x70A08231 ADDRESS PUSH1 0x40 MLOAD DUP3 PUSH4 0xFFFFFFFF AND PUSH1 0xE0 SHL DUP2 MSTORE PUSH1 0x4 ADD PUSH2 0x1452 SWAP2 SWAP1 PUSH2 0x3925 JUMP JUMPDEST PUSH1 0x20 PUSH1 0x40 MLOAD DUP1 DUP4 SUB DUP2 DUP7 DUP1 EXTCODESIZE ISZERO DUP1 ISZERO PUSH2 0x146A JUMPI PUSH1 0x0 DUP1 REVERT JUMPDEST POP GAS STATICCALL ISZERO DUP1 ISZERO PUSH2 0x147E JUMPI RETURNDATASIZE PUSH1 0x0 DUP1 RETURNDATACOPY RETURNDATASIZE PUSH1 0x0 REVERT JUMPDEST POP POP POP POP PUSH1 0x40 MLOAD RETURNDATASIZE PUSH1 0x1F NOT PUSH1 0x1F DUP3 ADD AND DUP3 ADD DUP1 PUSH1 0x40 MSTORE POP DUP2 ADD SWAP1 PUSH2 0x14A2 SWAP2 SWAP1 PUSH2 0x35B8 JUMP JUMPDEST DUP2 GT ISZERO PUSH2 0x14E4 JUMPI PUSH1 0x40 MLOAD PUSH32 0x8C379A000000000000000000000000000000000000000000000000000000000 DUP2 MSTORE PUSH1 0x4 ADD PUSH2 0x14DB SWAP1 PUSH2 0x3B41 JUMP JUMPDEST PUSH1 0x40 MLOAD DUP1 SWAP2 SUB SWAP1 REVERT JUMPDEST PUSH1 0x9D PUSH1 0x0 SWAP1 SLOAD SWAP1 PUSH2 0x100 EXP SWAP1 DIV PUSH20 0xFFFFFFFFFFFFFFFFFFFFFFFFFFFFFFFFFFFFFFFF AND PUSH20 0xFFFFFFFFFFFFFFFFFFFFFFFFFFFFFFFFFFFFFFFF AND PUSH4 0x23B872DD ADDRESS PUSH1 0x9A PUSH1 0x0 SWAP1 SLOAD SWAP1 PUSH2 0x100 EXP SWAP1 DIV PUSH20 0xFFFFFFFFFFFFFFFFFFFFFFFFFFFFFFFFFFFFFFFF AND DUP5 PUSH1 0x40 MLOAD DUP5 PUSH4 0xFFFFFFFF AND PUSH1 0xE0 SHL DUP2 MSTORE PUSH1 0x4 ADD PUSH2 0x1565 SWAP4 SWAP3 SWAP2 SWAP1 PUSH2 0x395B JUMP JUMPDEST PUSH1 0x20 PUSH1 0x40 MLOAD DUP1 DUP4 SUB DUP2 PUSH1 0x0 DUP8 DUP1 EXTCODESIZE ISZERO DUP1 ISZERO PUSH2 0x157F JUMPI PUSH1 0x0 DUP1 REVERT JUMPDEST POP GAS CALL ISZERO DUP1 ISZERO PUSH2 0x1593 JUMPI RETURNDATASIZE PUSH1 0x0 DUP1 RETURNDATACOPY RETURNDATASIZE PUSH1 0x0 REVERT JUMPDEST POP POP POP POP PUSH1 0x40 MLOAD RETURNDATASIZE PUSH1 0x1F NOT PUSH1 0x1F DUP3 ADD AND DUP3 ADD DUP1 PUSH1 0x40 MSTORE POP DUP2 ADD SWAP1 PUSH2 0x15B7 SWAP2 SWAP1 PUSH2 0x3566 JUMP JUMPDEST POP POP JUMP JUMPDEST PUSH1 0x0 PUSH1 0x12 SWAP1 POP SWAP1 JUMP JUMPDEST PUSH1 0x97 DUP1 PUSH1 0x0 ADD SLOAD SWAP1 POP DUP2 JUMP JUMPDEST PUSH1 0x0 DUP1 PUSH2 0x15DB PUSH2 0x2A3D JUMP JUMPDEST SWAP1 POP PUSH2 0x15FC DUP2 DUP6 DUP6 PUSH2 0x15ED DUP6 DUP10 PUSH2 0x27A7 JUMP JUMPDEST PUSH2 0x15F7 SWAP2 SWAP1 PUSH2 0x3CA2 JUMP JUMPDEST PUSH2 0x2A45 JUMP JUMPDEST PUSH1 0x1 SWAP2 POP POP SWAP3 SWAP2 POP POP JUMP JUMPDEST PUSH1 0x0 DUP1 PUSH2 0x1612 PUSH2 0x282E JUMP JUMPDEST SWAP1 POP PUSH1 0x0 DUP1 PUSH1 0x9C SLOAD EQ PUSH2 0x163C JUMPI PUSH1 0x9C SLOAD PUSH1 0x64 DUP4 PUSH2 0x162F SWAP2 SWAP1 PUSH2 0x3D29 JUMP JUMPDEST PUSH2 0x1639 SWAP2 SWAP1 PUSH2 0x3CF8 JUMP JUMPDEST SWAP1 POP JUMPDEST DUP1 SWAP3 POP POP POP SWAP1 JUMP JUMPDEST PUSH1 0x0 DUP1 PUSH2 0x1651 PUSH1 0x97 PUSH2 0x2A2F JUMP JUMPDEST SWAP1 POP PUSH1 0x0 DUP1 JUMPDEST DUP3 DUP2 LT ISZERO PUSH2 0x1747 JUMPI CALLER PUSH20 0xFFFFFFFFFFFFFFFFFFFFFFFFFFFFFFFFFFFFFFFF AND PUSH1 0x9E PUSH1 0x0 PUSH1 0x1 DUP5 PUSH2 0x1687 SWAP2 SWAP1 PUSH2 0x3CA2 JUMP JUMPDEST DUP2 MSTORE PUSH1 0x20 ADD SWAP1 DUP2 MSTORE PUSH1 0x20 ADD PUSH1 0x0 KECCAK256 PUSH1 0x1 ADD PUSH1 0x0 SWAP1 SLOAD SWAP1 PUSH2 0x100 EXP SWAP1 DIV PUSH20 0xFFFFFFFFFFFFFFFFFFFFFFFFFFFFFFFFFFFFFFFF AND PUSH20 0xFFFFFFFFFFFFFFFFFFFFFFFFFFFFFFFFFFFFFFFF AND EQ DUP1 ISZERO PUSH2 0x16FE JUMPI POP PUSH1 0x9E PUSH1 0x0 PUSH1 0x1 DUP4 PUSH2 0x16E8 SWAP2 SWAP1 PUSH2 0x3CA2 JUMP JUMPDEST DUP2 MSTORE PUSH1 0x20 ADD SWAP1 DUP2 MSTORE PUSH1 0x20 ADD PUSH1 0x0 KECCAK256 PUSH1 0x6 ADD SLOAD TIMESTAMP LT ISZERO JUMPDEST ISZERO PUSH2 0x1734 JUMPI PUSH1 0x9E PUSH1 0x0 PUSH1 0x1 DUP4 PUSH2 0x1714 SWAP2 SWAP1 PUSH2 0x3CA2 JUMP JUMPDEST DUP2 MSTORE PUSH1 0x20 ADD SWAP1 DUP2 MSTORE PUSH1 0x20 ADD PUSH1 0x0 KECCAK256 PUSH1 0x4 ADD SLOAD DUP3 PUSH2 0x1731 SWAP2 SWAP1 PUSH2 0x3CA2 JUMP JUMPDEST SWAP2 POP JUMPDEST DUP1 DUP1 PUSH2 0x173F SWAP1 PUSH2 0x3ECB JUMP JUMPDEST SWAP2 POP POP PUSH2 0x1657 JUMP JUMPDEST POP DUP1 SWAP3 POP POP POP SWAP1 JUMP JUMPDEST PUSH1 0x0 PUSH1 0x9A PUSH1 0x0 SWAP1 SLOAD SWAP1 PUSH2 0x100 EXP SWAP1 DIV PUSH20 0xFFFFFFFFFFFFFFFFFFFFFFFFFFFFFFFFFFFFFFFF AND SWAP1 POP SWAP1 JUMP JUMPDEST PUSH1 0x0 PUSH1 0x33 PUSH1 0x0 DUP4 PUSH20 0xFFFFFFFFFFFFFFFFFFFFFFFFFFFFFFFFFFFFFFFF AND PUSH20 0xFFFFFFFFFFFFFFFFFFFFFFFFFFFFFFFFFFFFFFFF AND DUP2 MSTORE PUSH1 0x20 ADD SWAP1 DUP2 MSTORE PUSH1 0x20 ADD PUSH1 0x0 KECCAK256 SLOAD SWAP1 POP SWAP2 SWAP1 POP JUMP JUMPDEST PUSH2 0x17CB PUSH2 0x2A3D JUMP JUMPDEST PUSH20 0xFFFFFFFFFFFFFFFFFFFFFFFFFFFFFFFFFFFFFFFF AND PUSH2 0x17E9 PUSH2 0x1A17 JUMP JUMPDEST PUSH20 0xFFFFFFFFFFFFFFFFFFFFFFFFFFFFFFFFFFFFFFFF AND EQ PUSH2 0x183F JUMPI PUSH1 0x40 MLOAD PUSH32 0x8C379A000000000000000000000000000000000000000000000000000000000 DUP2 MSTORE PUSH1 0x4 ADD PUSH2 0x1836 SWAP1 PUSH2 0x3B21 JUMP JUMPDEST PUSH1 0x40 MLOAD DUP1 SWAP2 SUB SWAP1 REVERT JUMPDEST PUSH2 0x1849 PUSH1 0x0 PUSH2 0x2F20 JUMP JUMPDEST JUMP JUMPDEST PUSH1 0x0 DUP1 DUP4 SWAP1 POP PUSH1 0x0 DUP1 JUMPDEST DUP5 DUP2 LT ISZERO PUSH2 0x18AA JUMPI PUSH5 0x2540BE400 PUSH3 0xCAB25D DUP5 PUSH2 0x1872 SWAP2 SWAP1 PUSH2 0x3D29 JUMP JUMPDEST PUSH2 0x187C SWAP2 SWAP1 PUSH2 0x3CF8 JUMP JUMPDEST DUP3 PUSH2 0x1887 SWAP2 SWAP1 PUSH2 0x3CA2 JUMP JUMPDEST SWAP2 POP DUP2 DUP4 PUSH2 0x1895 SWAP2 SWAP1 PUSH2 0x3CA2 JUMP JUMPDEST SWAP3 POP DUP1 DUP1 PUSH2 0x18A2 SWAP1 PUSH2 0x3ECB JUMP JUMPDEST SWAP2 POP POP PUSH2 0x1855 JUMP JUMPDEST POP DUP1 SWAP3 POP POP POP SWAP3 SWAP2 POP POP JUMP JUMPDEST PUSH1 0x0 PUSH2 0x18C2 PUSH1 0x1 PUSH2 0x2FE6 JUMP JUMPDEST SWAP1 POP DUP1 ISZERO PUSH2 0x18E6 JUMPI PUSH1 0x1 PUSH1 0x0 PUSH1 0x1 PUSH2 0x100 EXP DUP2 SLOAD DUP2 PUSH1 0xFF MUL NOT AND SWAP1 DUP4 ISZERO ISZERO MUL OR SWAP1 SSTORE POP JUMPDEST PUSH2 0x190E PUSH1 0x40 MLOAD DUP1 PUSH1 0x20 ADD PUSH1 0x40 MSTORE DUP1 PUSH1 0x0 DUP2 MSTORE POP PUSH1 0x40 MLOAD DUP1 PUSH1 0x20 ADD PUSH1 0x40 MSTORE DUP1 PUSH1 0x0 DUP2 MSTORE POP PUSH2 0x30D6 JUMP JUMPDEST PUSH2 0x1916 PUSH2 0x3133 JUMP JUMPDEST CALLER PUSH1 0x9A PUSH1 0x0 PUSH2 0x100 EXP DUP2 SLOAD DUP2 PUSH20 0xFFFFFFFFFFFFFFFFFFFFFFFFFFFFFFFFFFFFFFFF MUL NOT AND SWAP1 DUP4 PUSH20 0xFFFFFFFFFFFFFFFFFFFFFFFFFFFFFFFFFFFFFFFF AND MUL OR SWAP1 SSTORE POP TIMESTAMP PUSH1 0x9B DUP2 SWAP1 SSTORE POP PUSH20 0x2F21D483BECFE74E8E1C67590D265E493498D1E PUSH1 0x9D PUSH1 0x0 PUSH2 0x100 EXP DUP2 SLOAD DUP2 PUSH20 0xFFFFFFFFFFFFFFFFFFFFFFFFFFFFFFFFFFFFFFFF MUL NOT AND SWAP1 DUP4 PUSH20 0xFFFFFFFFFFFFFFFFFFFFFFFFFFFFFFFFFFFFFFFF AND MUL OR SWAP1 SSTORE POP PUSH1 0x0 PUSH1 0x9C DUP2 SWAP1 SSTORE POP DUP1 ISZERO PUSH2 0x1A14 JUMPI PUSH1 0x0 DUP1 PUSH1 0x1 PUSH2 0x100 EXP DUP2 SLOAD DUP2 PUSH1 0xFF MUL NOT AND SWAP1 DUP4 ISZERO ISZERO MUL OR SWAP1 SSTORE POP PUSH32 0x7F26B83FF96E1F2B6A682F133852F6798A09C465DA95921460CEFB3847402498 PUSH1 0x1 PUSH1 0x40 MLOAD PUSH2 0x1A0B SWAP2 SWAP1 PUSH2 0x39E4 JUMP JUMPDEST PUSH1 0x40 MLOAD DUP1 SWAP2 SUB SWAP1 LOG1 JUMPDEST POP JUMP JUMPDEST PUSH1 0x0 PUSH1 0x65 PUSH1 0x0 SWAP1 SLOAD SWAP1 PUSH2 0x100 EXP SWAP1 DIV PUSH20 0xFFFFFFFFFFFFFFFFFFFFFFFFFFFFFFFFFFFFFFFF AND SWAP1 POP SWAP1 JUMP JUMPDEST PUSH1 0x60 PUSH1 0x37 DUP1 SLOAD PUSH2 0x1A50 SWAP1 PUSH2 0x3E99 JUMP JUMPDEST DUP1 PUSH1 0x1F ADD PUSH1 0x20 DUP1 SWAP2 DIV MUL PUSH1 0x20 ADD PUSH1 0x40 MLOAD SWAP1 DUP2 ADD PUSH1 0x40 MSTORE DUP1 SWAP3 SWAP2 SWAP1 DUP2 DUP2 MSTORE PUSH1 0x20 ADD DUP3 DUP1 SLOAD PUSH2 0x1A7C SWAP1 PUSH2 0x3E99 JUMP JUMPDEST DUP1 ISZERO PUSH2 0x1AC9 JUMPI DUP1 PUSH1 0x1F LT PUSH2 0x1A9E JUMPI PUSH2 0x100 DUP1 DUP4 SLOAD DIV MUL DUP4 MSTORE SWAP2 PUSH1 0x20 ADD SWAP2 PUSH2 0x1AC9 JUMP JUMPDEST DUP3 ADD SWAP2 SWAP1 PUSH1 0x0 MSTORE PUSH1 0x20 PUSH1 0x0 KECCAK256 SWAP1 JUMPDEST DUP2 SLOAD DUP2 MSTORE SWAP1 PUSH1 0x1 ADD SWAP1 PUSH1 0x20 ADD DUP1 DUP4 GT PUSH2 0x1AAC JUMPI DUP3 SWAP1 SUB PUSH1 0x1F AND DUP3 ADD SWAP2 JUMPDEST POP POP POP POP POP SWAP1 POP SWAP1 JUMP JUMPDEST PUSH1 0x0 DUP1 PUSH2 0x1AE0 PUSH1 0x97 PUSH2 0x2A2F JUMP JUMPDEST SWAP1 POP PUSH1 0x0 DUP1 JUMPDEST DUP3 DUP2 LT ISZERO PUSH2 0x1C48 JUMPI CALLER PUSH20 0xFFFFFFFFFFFFFFFFFFFFFFFFFFFFFFFFFFFFFFFF AND PUSH1 0x9E PUSH1 0x0 PUSH1 0x1 DUP5 PUSH2 0x1B16 SWAP2 SWAP1 PUSH2 0x3CA2 JUMP JUMPDEST DUP2 MSTORE PUSH1 0x20 ADD SWAP1 DUP2 MSTORE PUSH1 0x20 ADD PUSH1 0x0 KECCAK256 PUSH1 0x1 ADD PUSH1 0x0 SWAP1 SLOAD SWAP1 PUSH2 0x100 EXP SWAP1 DIV PUSH20 0xFFFFFFFFFFFFFFFFFFFFFFFFFFFFFFFFFFFFFFFF AND PUSH20 0xFFFFFFFFFFFFFFFFFFFFFFFFFFFFFFFFFFFFFFFF AND EQ ISZERO PUSH2 0x1C35 JUMPI PUSH1 0x0 PUSH1 0x3C PUSH1 0x9E PUSH1 0x0 PUSH1 0x1 DUP6 PUSH2 0x1B79 SWAP2 SWAP1 PUSH2 0x3CA2 JUMP JUMPDEST DUP2 MSTORE PUSH1 0x20 ADD SWAP1 DUP2 MSTORE PUSH1 0x20 ADD PUSH1 0x0 KECCAK256 PUSH1 0x5 ADD SLOAD TIMESTAMP PUSH2 0x1B96 SWAP2 SWAP1 PUSH2 0x3D83 JUMP JUMPDEST PUSH2 0x1BA0 SWAP2 SWAP1 PUSH2 0x3CF8 JUMP JUMPDEST SWAP1 POP PUSH1 0x0 PUSH1 0x9E PUSH1 0x0 PUSH1 0x1 DUP6 PUSH2 0x1BB5 SWAP2 SWAP1 PUSH2 0x3CA2 JUMP JUMPDEST DUP2 MSTORE PUSH1 0x20 ADD SWAP1 DUP2 MSTORE PUSH1 0x20 ADD PUSH1 0x0 KECCAK256 PUSH1 0x4 ADD SLOAD SWAP1 POP PUSH1 0x0 DUP1 JUMPDEST DUP4 DUP2 LT ISZERO PUSH2 0x1C22 JUMPI PUSH5 0x2540BE400 PUSH3 0xCAB25D DUP5 PUSH2 0x1BEA SWAP2 SWAP1 PUSH2 0x3D29 JUMP JUMPDEST PUSH2 0x1BF4 SWAP2 SWAP1 PUSH2 0x3CF8 JUMP JUMPDEST DUP3 PUSH2 0x1BFF SWAP2 SWAP1 PUSH2 0x3CA2 JUMP JUMPDEST SWAP2 POP DUP2 DUP4 PUSH2 0x1C0D SWAP2 SWAP1 PUSH2 0x3CA2 JUMP JUMPDEST SWAP3 POP DUP1 DUP1 PUSH2 0x1C1A SWAP1 PUSH2 0x3ECB JUMP JUMPDEST SWAP2 POP POP PUSH2 0x1BCD JUMP JUMPDEST POP DUP1 DUP6 PUSH2 0x1C2F SWAP2 SWAP1 PUSH2 0x3CA2 JUMP JUMPDEST SWAP5 POP POP POP POP JUMPDEST DUP1 DUP1 PUSH2 0x1C40 SWAP1 PUSH2 0x3ECB JUMP JUMPDEST SWAP2 POP POP PUSH2 0x1AE6 JUMP JUMPDEST POP DUP1 SWAP3 POP POP POP SWAP1 JUMP JUMPDEST PUSH1 0x98 DUP2 DUP2 SLOAD DUP2 LT PUSH2 0x1C61 JUMPI PUSH1 0x0 DUP1 REVERT JUMPDEST SWAP1 PUSH1 0x0 MSTORE PUSH1 0x20 PUSH1 0x0 KECCAK256 ADD PUSH1 0x0 SWAP2 POP SLOAD SWAP1 PUSH2 0x100 EXP SWAP1 DIV PUSH20 0xFFFFFFFFFFFFFFFFFFFFFFFFFFFFFFFFFFFFFFFF AND DUP2 JUMP JUMPDEST PUSH1 0x0 DUP1 PUSH2 0x1C9B PUSH2 0x2A3D JUMP JUMPDEST SWAP1 POP PUSH1 0x0 PUSH2 0x1CA9 DUP3 DUP7 PUSH2 0x27A7 JUMP JUMPDEST SWAP1 POP DUP4 DUP2 LT ISZERO PUSH2 0x1CEE JUMPI PUSH1 0x40 MLOAD PUSH32 0x8C379A000000000000000000000000000000000000000000000000000000000 DUP2 MSTORE PUSH1 0x4 ADD PUSH2 0x1CE5 SWAP1 PUSH2 0x3BC1 JUMP JUMPDEST PUSH1 0x40 MLOAD DUP1 SWAP2 SUB SWAP1 REVERT JUMPDEST PUSH2 0x1CFB DUP3 DUP7 DUP7 DUP5 SUB PUSH2 0x2A45 JUMP JUMPDEST PUSH1 0x1 SWAP3 POP POP POP SWAP3 SWAP2 POP POP JUMP JUMPDEST PUSH1 0x0 DUP1 PUSH2 0x1D12 PUSH2 0x2A3D JUMP JUMPDEST SWAP1 POP PUSH2 0x1D1F DUP2 DUP6 DUP6 PUSH2 0x2C9C JUMP JUMPDEST PUSH1 0x1 SWAP2 POP POP SWAP3 SWAP2 POP POP JUMP JUMPDEST PUSH1 0x0 PUSH2 0x1D36 PUSH1 0x97 PUSH2 0x318C JUMP JUMPDEST PUSH1 0x0 PUSH2 0x1D42 PUSH1 0x97 PUSH2 0x2A2F JUMP JUMPDEST SWAP1 POP PUSH1 0x40 MLOAD DUP1 PUSH1 0xE0 ADD PUSH1 0x40 MSTORE DUP1 PUSH2 0x162E DUP4 PUSH2 0x1D5D SWAP2 SWAP1 PUSH2 0x3CA2 JUMP JUMPDEST DUP2 MSTORE PUSH1 0x20 ADD CALLER PUSH20 0xFFFFFFFFFFFFFFFFFFFFFFFFFFFFFFFFFFFFFFFF AND DUP2 MSTORE PUSH1 0x20 ADD PUSH1 0x1 PUSH1 0x9C SLOAD PUSH2 0x1D8D SWAP2 SWAP1 PUSH2 0x3CA2 JUMP JUMPDEST DUP2 MSTORE PUSH1 0x20 ADD DUP5 PUSH1 0x9C SLOAD PUSH2 0x1DA0 SWAP2 SWAP1 PUSH2 0x3CA2 JUMP JUMPDEST DUP2 MSTORE PUSH1 0x20 ADD DUP5 DUP2 MSTORE PUSH1 0x20 ADD TIMESTAMP DUP2 MSTORE PUSH1 0x20 ADD PUSH1 0x3C TIMESTAMP PUSH2 0x1DBE SWAP2 SWAP1 PUSH2 0x3CA2 JUMP JUMPDEST DUP2 MSTORE POP PUSH1 0x9E PUSH1 0x0 DUP4 DUP2 MSTORE PUSH1 0x20 ADD SWAP1 DUP2 MSTORE PUSH1 0x20 ADD PUSH1 0x0 KECCAK256 PUSH1 0x0 DUP3 ADD MLOAD DUP2 PUSH1 0x0 ADD SSTORE PUSH1 0x20 DUP3 ADD MLOAD DUP2 PUSH1 0x1 ADD PUSH1 0x0 PUSH2 0x100 EXP DUP2 SLOAD DUP2 PUSH20 0xFFFFFFFFFFFFFFFFFFFFFFFFFFFFFFFFFFFFFFFF MUL NOT AND SWAP1 DUP4 PUSH20 0xFFFFFFFFFFFFFFFFFFFFFFFFFFFFFFFFFFFFFFFF AND MUL OR SWAP1 SSTORE POP PUSH1 0x40 DUP3 ADD MLOAD DUP2 PUSH1 0x2 ADD SSTORE PUSH1 0x60 DUP3 ADD MLOAD DUP2 PUSH1 0x3 ADD SSTORE PUSH1 0x80 DUP3 ADD MLOAD DUP2 PUSH1 0x4 ADD SSTORE PUSH1 0xA0 DUP3 ADD MLOAD DUP2 PUSH1 0x5 ADD SSTORE PUSH1 0xC0 DUP3 ADD MLOAD DUP2 PUSH1 0x6 ADD SSTORE SWAP1 POP POP DUP3 PUSH1 0x9C PUSH1 0x0 DUP3 DUP3 SLOAD PUSH2 0x1E6C SWAP2 SWAP1 PUSH2 0x3CA2 JUMP JUMPDEST SWAP3 POP POP DUP2 SWAP1 SSTORE POP PUSH1 0x9D PUSH1 0x0 SWAP1 SLOAD SWAP1 PUSH2 0x100 EXP SWAP1 DIV PUSH20 0xFFFFFFFFFFFFFFFFFFFFFFFFFFFFFFFFFFFFFFFF AND PUSH20 0xFFFFFFFFFFFFFFFFFFFFFFFFFFFFFFFFFFFFFFFF AND PUSH4 0x23B872DD CALLER ADDRESS DUP7 PUSH1 0x40 MLOAD DUP5 PUSH4 0xFFFFFFFF AND PUSH1 0xE0 SHL DUP2 MSTORE PUSH1 0x4 ADD PUSH2 0x1ED2 SWAP4 SWAP3 SWAP2 SWAP1 PUSH2 0x3992 JUMP JUMPDEST PUSH1 0x20 PUSH1 0x40 MLOAD DUP1 DUP4 SUB DUP2 PUSH1 0x0 DUP8 DUP1 EXTCODESIZE ISZERO DUP1 ISZERO PUSH2 0x1EEC JUMPI PUSH1 0x0 DUP1 REVERT JUMPDEST POP GAS CALL ISZERO DUP1 ISZERO PUSH2 0x1F00 JUMPI RETURNDATASIZE PUSH1 0x0 DUP1 RETURNDATACOPY RETURNDATASIZE PUSH1 0x0 REVERT JUMPDEST POP POP POP POP PUSH1 0x40 MLOAD RETURNDATASIZE PUSH1 0x1F NOT PUSH1 0x1F DUP3 ADD AND DUP3 ADD DUP1 PUSH1 0x40 MSTORE POP DUP2 ADD SWAP1 PUSH2 0x1F24 SWAP2 SWAP1 PUSH2 0x3566 JUMP JUMPDEST POP PUSH2 0x162E DUP2 PUSH2 0x1F33 SWAP2 SWAP1 PUSH2 0x3CA2 JUMP JUMPDEST SWAP2 POP POP SWAP2 SWAP1 POP JUMP JUMPDEST PUSH1 0x99 DUP2 DUP2 SLOAD DUP2 LT PUSH2 0x1F4B JUMPI PUSH1 0x0 DUP1 REVERT JUMPDEST SWAP1 PUSH1 0x0 MSTORE PUSH1 0x20 PUSH1 0x0 KECCAK256 ADD PUSH1 0x0 SWAP2 POP SLOAD SWAP1 PUSH2 0x100 EXP SWAP1 DIV PUSH20 0xFFFFFFFFFFFFFFFFFFFFFFFFFFFFFFFFFFFFFFFF AND DUP2 JUMP JUMPDEST PUSH2 0x1F82 PUSH2 0x2A3D JUMP JUMPDEST PUSH20 0xFFFFFFFFFFFFFFFFFFFFFFFFFFFFFFFFFFFFFFFF AND PUSH2 0x1FA0 PUSH2 0x1A17 JUMP JUMPDEST PUSH20 0xFFFFFFFFFFFFFFFFFFFFFFFFFFFFFFFFFFFFFFFF AND EQ PUSH2 0x1FF6 JUMPI PUSH1 0x40 MLOAD PUSH32 0x8C379A000000000000000000000000000000000000000000000000000000000 DUP2 MSTORE PUSH1 0x4 ADD PUSH2 0x1FED SWAP1 PUSH2 0x3B21 JUMP JUMPDEST PUSH1 0x40 MLOAD DUP1 SWAP2 SUB SWAP1 REVERT JUMPDEST PUSH1 0x0 JUMPDEST DUP2 DUP2 LT ISZERO PUSH2 0x2264 JUMPI DUP2 PUSH1 0x98 DUP1 SLOAD SWAP1 POP EQ PUSH2 0x224C JUMPI PUSH1 0x0 PUSH2 0x2017 PUSH2 0x31A2 JUMP JUMPDEST SWAP1 POP PUSH1 0x0 PUSH1 0x9C SLOAD DUP3 PUSH2 0x2029 SWAP2 SWAP1 PUSH2 0x3F42 JUMP JUMPDEST SWAP1 POP PUSH1 0x0 PUSH2 0x2037 PUSH1 0x97 PUSH2 0x2A2F JUMP JUMPDEST SWAP1 POP PUSH1 0x0 JUMPDEST DUP2 DUP2 LT ISZERO PUSH2 0x2243 JUMPI PUSH1 0x9E PUSH1 0x0 PUSH1 0x1 DUP4 PUSH2 0x2055 SWAP2 SWAP1 PUSH2 0x3CA2 JUMP JUMPDEST DUP2 MSTORE PUSH1 0x20 ADD SWAP1 DUP2 MSTORE PUSH1 0x20 ADD PUSH1 0x0 KECCAK256 PUSH1 0x3 ADD SLOAD DUP4 LT ISZERO PUSH2 0x2230 JUMPI PUSH1 0x0 DUP1 JUMPDEST PUSH1 0x98 DUP1 SLOAD SWAP1 POP DUP2 LT ISZERO PUSH2 0x2175 JUMPI PUSH1 0x9E PUSH1 0x0 PUSH1 0x1 DUP6 PUSH2 0x2090 SWAP2 SWAP1 PUSH2 0x3CA2 JUMP JUMPDEST DUP2 MSTORE PUSH1 0x20 ADD SWAP1 DUP2 MSTORE PUSH1 0x20 ADD PUSH1 0x0 KECCAK256 PUSH1 0x1 ADD PUSH1 0x0 SWAP1 SLOAD SWAP1 PUSH2 0x100 EXP SWAP1 DIV PUSH20 0xFFFFFFFFFFFFFFFFFFFFFFFFFFFFFFFFFFFFFFFF AND PUSH20 0xFFFFFFFFFFFFFFFFFFFFFFFFFFFFFFFFFFFFFFFF AND PUSH1 0x98 DUP3 DUP2 SLOAD DUP2 LT PUSH2 0x2112 JUMPI PUSH32 0x4E487B7100000000000000000000000000000000000000000000000000000000 PUSH1 0x0 MSTORE PUSH1 0x32 PUSH1 0x4 MSTORE PUSH1 0x24 PUSH1 0x0 REVERT JUMPDEST SWAP1 PUSH1 0x0 MSTORE PUSH1 0x20 PUSH1 0x0 KECCAK256 ADD PUSH1 0x0 SWAP1 SLOAD SWAP1 PUSH2 0x100 EXP SWAP1 DIV PUSH20 0xFFFFFFFFFFFFFFFFFFFFFFFFFFFFFFFFFFFFFFFF AND PUSH20 0xFFFFFFFFFFFFFFFFFFFFFFFFFFFFFFFFFFFFFFFF AND EQ ISZERO PUSH2 0x2162 JUMPI PUSH1 0x1 SWAP2 POP PUSH2 0x2175 JUMP JUMPDEST DUP1 DUP1 PUSH2 0x216D SWAP1 PUSH2 0x3ECB JUMP JUMPDEST SWAP2 POP POP PUSH2 0x2072 JUMP JUMPDEST POP PUSH1 0x0 ISZERO ISZERO DUP2 ISZERO ISZERO EQ ISZERO PUSH2 0x222E JUMPI PUSH1 0x98 PUSH1 0x9E PUSH1 0x0 PUSH1 0x1 DUP6 PUSH2 0x2196 SWAP2 SWAP1 PUSH2 0x3CA2 JUMP JUMPDEST DUP2 MSTORE PUSH1 0x20 ADD SWAP1 DUP2 MSTORE PUSH1 0x20 ADD PUSH1 0x0 KECCAK256 PUSH1 0x1 ADD PUSH1 0x0 SWAP1 SLOAD SWAP1 PUSH2 0x100 EXP SWAP1 DIV PUSH20 0xFFFFFFFFFFFFFFFFFFFFFFFFFFFFFFFFFFFFFFFF AND SWAP1 DUP1 PUSH1 0x1 DUP2 SLOAD ADD DUP1 DUP3 SSTORE DUP1 SWAP2 POP POP PUSH1 0x1 SWAP1 SUB SWAP1 PUSH1 0x0 MSTORE PUSH1 0x20 PUSH1 0x0 KECCAK256 ADD PUSH1 0x0 SWAP1 SWAP2 SWAP1 SWAP2 SWAP1 SWAP2 PUSH2 0x100 EXP DUP2 SLOAD DUP2 PUSH20 0xFFFFFFFFFFFFFFFFFFFFFFFFFFFFFFFFFFFFFFFF MUL NOT AND SWAP1 DUP4 PUSH20 0xFFFFFFFFFFFFFFFFFFFFFFFFFFFFFFFFFFFFFFFF AND MUL OR SWAP1 SSTORE POP POP PUSH2 0x2243 JUMP JUMPDEST POP JUMPDEST DUP1 DUP1 PUSH2 0x223B SWAP1 PUSH2 0x3ECB JUMP JUMPDEST SWAP2 POP POP PUSH2 0x203C JUMP JUMPDEST POP POP POP POP PUSH2 0x2251 JUMP JUMPDEST PUSH2 0x2264 JUMP JUMPDEST DUP1 DUP1 PUSH2 0x225C SWAP1 PUSH2 0x3ECB JUMP JUMPDEST SWAP2 POP POP PUSH2 0x1FF9 JUMP JUMPDEST POP PUSH2 0x226D PUSH2 0x2291 JUMP JUMPDEST PUSH1 0x98 PUSH1 0x99 SWAP1 DUP1 SLOAD PUSH2 0x227F SWAP3 SWAP2 SWAP1 PUSH2 0x330C JUMP JUMPDEST POP PUSH1 0x98 PUSH1 0x0 PUSH2 0x228E SWAP2 SWAP1 PUSH2 0x335E JUMP JUMPDEST POP JUMP JUMPDEST PUSH2 0x2299 PUSH2 0x2A3D JUMP JUMPDEST PUSH20 0xFFFFFFFFFFFFFFFFFFFFFFFFFFFFFFFFFFFFFFFF AND PUSH2 0x22B7 PUSH2 0x1A17 JUMP JUMPDEST PUSH20 0xFFFFFFFFFFFFFFFFFFFFFFFFFFFFFFFFFFFFFFFF AND EQ PUSH2 0x230D JUMPI PUSH1 0x40 MLOAD PUSH32 0x8C379A000000000000000000000000000000000000000000000000000000000 DUP2 MSTORE PUSH1 0x4 ADD PUSH2 0x2304 SWAP1 PUSH2 0x3B21 JUMP JUMPDEST PUSH1 0x40 MLOAD DUP1 SWAP2 SUB SWAP1 REVERT JUMPDEST PUSH1 0x0 PUSH2 0x2317 PUSH2 0x954 JUMP JUMPDEST SWAP1 POP PUSH1 0x0 PUSH1 0x64 PUSH1 0x50 DUP4 PUSH2 0x232A SWAP2 SWAP1 PUSH2 0x3D29 JUMP JUMPDEST PUSH2 0x2334 SWAP2 SWAP1 PUSH2 0x3CF8 JUMP JUMPDEST SWAP1 POP PUSH1 0x0 PUSH1 0x64 PUSH1 0x14 DUP5 PUSH2 0x2347 SWAP2 SWAP1 PUSH2 0x3D29 JUMP JUMPDEST PUSH2 0x2351 SWAP2 SWAP1 PUSH2 0x3CF8 JUMP JUMPDEST SWAP1 POP PUSH1 0x0 PUSH1 0x98 DUP1 SLOAD SWAP1 POP DUP4 PUSH2 0x2366 SWAP2 SWAP1 PUSH2 0x3CF8 JUMP JUMPDEST SWAP1 POP PUSH1 0x9D PUSH1 0x0 SWAP1 SLOAD SWAP1 PUSH2 0x100 EXP SWAP1 DIV PUSH20 0xFFFFFFFFFFFFFFFFFFFFFFFFFFFFFFFFFFFFFFFF AND PUSH20 0xFFFFFFFFFFFFFFFFFFFFFFFFFFFFFFFFFFFFFFFF AND PUSH4 0x23B872DD ADDRESS PUSH1 0x0 DUP6 PUSH1 0x40 MLOAD DUP5 PUSH4 0xFFFFFFFF AND PUSH1 0xE0 SHL DUP2 MSTORE PUSH1 0x4 ADD PUSH2 0x23C8 SWAP4 SWAP3 SWAP2 SWAP1 PUSH2 0x3992 JUMP JUMPDEST PUSH1 0x20 PUSH1 0x40 MLOAD DUP1 DUP4 SUB DUP2 PUSH1 0x0 DUP8 DUP1 EXTCODESIZE ISZERO DUP1 ISZERO PUSH2 0x23E2 JUMPI PUSH1 0x0 DUP1 REVERT JUMPDEST POP GAS CALL ISZERO DUP1 ISZERO PUSH2 0x23F6 JUMPI RETURNDATASIZE PUSH1 0x0 DUP1 RETURNDATACOPY RETURNDATASIZE PUSH1 0x0 REVERT JUMPDEST POP POP POP POP PUSH1 0x40 MLOAD RETURNDATASIZE PUSH1 0x1F NOT PUSH1 0x1F DUP3 ADD AND DUP3 ADD DUP1 PUSH1 0x40 MSTORE POP DUP2 ADD SWAP1 PUSH2 0x241A SWAP2 SWAP1 PUSH2 0x3566 JUMP JUMPDEST POP PUSH1 0x0 JUMPDEST PUSH1 0x98 DUP1 SLOAD SWAP1 POP DUP2 LT ISZERO PUSH2 0x2554 JUMPI PUSH1 0x9D PUSH1 0x0 SWAP1 SLOAD SWAP1 PUSH2 0x100 EXP SWAP1 DIV PUSH20 0xFFFFFFFFFFFFFFFFFFFFFFFFFFFFFFFFFFFFFFFF AND PUSH20 0xFFFFFFFFFFFFFFFFFFFFFFFFFFFFFFFFFFFFFFFF AND PUSH4 0x23B872DD ADDRESS PUSH1 0x98 DUP5 DUP2 SLOAD DUP2 LT PUSH2 0x24A4 JUMPI PUSH32 0x4E487B7100000000000000000000000000000000000000000000000000000000 PUSH1 0x0 MSTORE PUSH1 0x32 PUSH1 0x4 MSTORE PUSH1 0x24 PUSH1 0x0 REVERT JUMPDEST SWAP1 PUSH1 0x0 MSTORE PUSH1 0x20 PUSH1 0x0 KECCAK256 ADD PUSH1 0x0 SWAP1 SLOAD SWAP1 PUSH2 0x100 EXP SWAP1 DIV PUSH20 0xFFFFFFFFFFFFFFFFFFFFFFFFFFFFFFFFFFFFFFFF AND DUP6 PUSH1 0x40 MLOAD DUP5 PUSH4 0xFFFFFFFF AND PUSH1 0xE0 SHL DUP2 MSTORE PUSH1 0x4 ADD PUSH2 0x24EE SWAP4 SWAP3 SWAP2 SWAP1 PUSH2 0x3992 JUMP JUMPDEST PUSH1 0x20 PUSH1 0x40 MLOAD DUP1 DUP4 SUB DUP2 PUSH1 0x0 DUP8 DUP1 EXTCODESIZE ISZERO DUP1 ISZERO PUSH2 0x2508 JUMPI PUSH1 0x0 DUP1 REVERT JUMPDEST POP GAS CALL ISZERO DUP1 ISZERO PUSH2 0x251C JUMPI RETURNDATASIZE PUSH1 0x0 DUP1 RETURNDATACOPY RETURNDATASIZE PUSH1 0x0 REVERT JUMPDEST POP POP POP POP PUSH1 0x40 MLOAD RETURNDATASIZE PUSH1 0x1F NOT PUSH1 0x1F DUP3 ADD AND DUP3 ADD DUP1 PUSH1 0x40 MSTORE POP DUP2 ADD SWAP1 PUSH2 0x2540 SWAP2 SWAP1 PUSH2 0x3566 JUMP JUMPDEST POP DUP1 DUP1 PUSH2 0x254C SWAP1 PUSH2 0x3ECB JUMP JUMPDEST SWAP2 POP POP PUSH2 0x241E JUMP JUMPDEST POP POP POP POP POP JUMP JUMPDEST PUSH1 0x0 PUSH2 0x2567 PUSH1 0x97 PUSH2 0x2A2F JUMP JUMPDEST SWAP1 POP PUSH1 0x0 JUMPDEST DUP2 DUP2 LT ISZERO PUSH2 0x27A3 JUMPI CALLER PUSH20 0xFFFFFFFFFFFFFFFFFFFFFFFFFFFFFFFFFFFFFFFF AND PUSH1 0x9E PUSH1 0x0 PUSH1 0x1 DUP5 PUSH2 0x259C SWAP2 SWAP1 PUSH2 0x3CA2 JUMP JUMPDEST DUP2 MSTORE PUSH1 0x20 ADD SWAP1 DUP2 MSTORE PUSH1 0x20 ADD PUSH1 0x0 KECCAK256 PUSH1 0x1 ADD PUSH1 0x0 SWAP1 SLOAD SWAP1 PUSH2 0x100 EXP SWAP1 DIV PUSH20 0xFFFFFFFFFFFFFFFFFFFFFFFFFFFFFFFFFFFFFFFF AND PUSH20 0xFFFFFFFFFFFFFFFFFFFFFFFFFFFFFFFFFFFFFFFF AND EQ DUP1 ISZERO PUSH2 0x2613 JUMPI POP PUSH1 0x9E PUSH1 0x0 PUSH1 0x1 DUP4 PUSH2 0x25FD SWAP2 SWAP1 PUSH2 0x3CA2 JUMP JUMPDEST DUP2 MSTORE PUSH1 0x20 ADD SWAP1 DUP2 MSTORE PUSH1 0x20 ADD PUSH1 0x0 KECCAK256 PUSH1 0x6 ADD SLOAD TIMESTAMP LT ISZERO JUMPDEST ISZERO PUSH2 0x2790 JUMPI PUSH1 0x0 PUSH1 0x3C PUSH1 0x9E PUSH1 0x0 PUSH1 0x1 DUP6 PUSH2 0x262D SWAP2 SWAP1 PUSH2 0x3CA2 JUMP JUMPDEST DUP2 MSTORE PUSH1 0x20 ADD SWAP1 DUP2 MSTORE PUSH1 0x20 ADD PUSH1 0x0 KECCAK256 PUSH1 0x5 ADD SLOAD TIMESTAMP PUSH2 0x264A SWAP2 SWAP1 PUSH2 0x3D83 JUMP JUMPDEST PUSH2 0x2654 SWAP2 SWAP1 PUSH2 0x3CF8 JUMP JUMPDEST SWAP1 POP PUSH1 0x0 PUSH2 0x2684 PUSH1 0x9E PUSH1 0x0 PUSH1 0x1 DUP7 PUSH2 0x266C SWAP2 SWAP1 PUSH2 0x3CA2 JUMP JUMPDEST DUP2 MSTORE PUSH1 0x20 ADD SWAP1 DUP2 MSTORE PUSH1 0x20 ADD PUSH1 0x0 KECCAK256 PUSH1 0x4 ADD SLOAD DUP4 PUSH2 0x184B JUMP JUMPDEST SWAP1 POP PUSH1 0x9D PUSH1 0x0 SWAP1 SLOAD SWAP1 PUSH2 0x100 EXP SWAP1 DIV PUSH20 0xFFFFFFFFFFFFFFFFFFFFFFFFFFFFFFFFFFFFFFFF AND PUSH20 0xFFFFFFFFFFFFFFFFFFFFFFFFFFFFFFFFFFFFFFFF AND PUSH4 0x23B872DD ADDRESS CALLER DUP5 PUSH1 0x9E PUSH1 0x0 PUSH1 0x1 DUP11 PUSH2 0x26D8 SWAP2 SWAP1 PUSH2 0x3CA2 JUMP JUMPDEST DUP2 MSTORE PUSH1 0x20 ADD SWAP1 DUP2 MSTORE PUSH1 0x20 ADD PUSH1 0x0 KECCAK256 PUSH1 0x4 ADD SLOAD PUSH2 0x26F4 SWAP2 SWAP1 PUSH2 0x3CA2 JUMP JUMPDEST PUSH1 0x40 MLOAD DUP5 PUSH4 0xFFFFFFFF AND PUSH1 0xE0 SHL DUP2 MSTORE PUSH1 0x4 ADD PUSH2 0x2712 SWAP4 SWAP3 SWAP2 SWAP1 PUSH2 0x3992 JUMP JUMPDEST PUSH1 0x20 PUSH1 0x40 MLOAD DUP1 DUP4 SUB DUP2 PUSH1 0x0 DUP8 DUP1 EXTCODESIZE ISZERO DUP1 ISZERO PUSH2 0x272C JUMPI PUSH1 0x0 DUP1 REVERT JUMPDEST POP GAS CALL ISZERO DUP1 ISZERO PUSH2 0x2740 JUMPI RETURNDATASIZE PUSH1 0x0 DUP1 RETURNDATACOPY RETURNDATASIZE PUSH1 0x0 REVERT JUMPDEST POP POP POP POP PUSH1 0x40 MLOAD RETURNDATASIZE PUSH1 0x1F NOT PUSH1 0x1F DUP3 ADD AND DUP3 ADD DUP1 PUSH1 0x40 MSTORE POP DUP2 ADD SWAP1 PUSH2 0x2764 SWAP2 SWAP1 PUSH2 0x3566 JUMP JUMPDEST POP PUSH1 0x0 PUSH1 0x9E PUSH1 0x0 PUSH1 0x1 DUP7 PUSH2 0x2778 SWAP2 SWAP1 PUSH2 0x3CA2 JUMP JUMPDEST DUP2 MSTORE PUSH1 0x20 ADD SWAP1 DUP2 MSTORE PUSH1 0x20 ADD PUSH1 0x0 KECCAK256 PUSH1 0x4 ADD DUP2 SWAP1 SSTORE POP POP POP JUMPDEST DUP1 DUP1 PUSH2 0x279B SWAP1 PUSH2 0x3ECB JUMP JUMPDEST SWAP2 POP POP PUSH2 0x256C JUMP JUMPDEST POP POP JUMP JUMPDEST PUSH1 0x0 PUSH1 0x34 PUSH1 0x0 DUP5 PUSH20 0xFFFFFFFFFFFFFFFFFFFFFFFFFFFFFFFFFFFFFFFF AND PUSH20 0xFFFFFFFFFFFFFFFFFFFFFFFFFFFFFFFFFFFFFFFF AND DUP2 MSTORE PUSH1 0x20 ADD SWAP1 DUP2 MSTORE PUSH1 0x20 ADD PUSH1 0x0 KECCAK256 PUSH1 0x0 DUP4 PUSH20 0xFFFFFFFFFFFFFFFFFFFFFFFFFFFFFFFFFFFFFFFF AND PUSH20 0xFFFFFFFFFFFFFFFFFFFFFFFFFFFFFFFFFFFFFFFF AND DUP2 MSTORE PUSH1 0x20 ADD SWAP1 DUP2 MSTORE PUSH1 0x20 ADD PUSH1 0x0 KECCAK256 SLOAD SWAP1 POP SWAP3 SWAP2 POP POP JUMP JUMPDEST PUSH1 0x0 DUP1 PUSH1 0x0 SWAP1 POP PUSH1 0x0 PUSH2 0x2841 PUSH1 0x97 PUSH2 0x2A2F JUMP JUMPDEST SWAP1 POP PUSH1 0x0 JUMPDEST DUP2 DUP2 LT ISZERO PUSH2 0x2908 JUMPI CALLER PUSH20 0xFFFFFFFFFFFFFFFFFFFFFFFFFFFFFFFFFFFFFFFF AND PUSH1 0x9E PUSH1 0x0 PUSH1 0x1 DUP5 PUSH2 0x2876 SWAP2 SWAP1 PUSH2 0x3CA2 JUMP JUMPDEST DUP2 MSTORE PUSH1 0x20 ADD SWAP1 DUP2 MSTORE PUSH1 0x20 ADD PUSH1 0x0 KECCAK256 PUSH1 0x1 ADD PUSH1 0x0 SWAP1 SLOAD SWAP1 PUSH2 0x100 EXP SWAP1 DIV PUSH20 0xFFFFFFFFFFFFFFFFFFFFFFFFFFFFFFFFFFFFFFFF AND PUSH20 0xFFFFFFFFFFFFFFFFFFFFFFFFFFFFFFFFFFFFFFFF AND EQ ISZERO PUSH2 0x28F5 JUMPI PUSH1 0x9E PUSH1 0x0 PUSH1 0x1 DUP4 PUSH2 0x28D5 SWAP2 SWAP1 PUSH2 0x3CA2 JUMP JUMPDEST DUP2 MSTORE PUSH1 0x20 ADD SWAP1 DUP2 MSTORE PUSH1 0x20 ADD PUSH1 0x0 KECCAK256 PUSH1 0x4 ADD SLOAD DUP4 PUSH2 0x28F2 SWAP2 SWAP1 PUSH2 0x3CA2 JUMP JUMPDEST SWAP3 POP JUMPDEST DUP1 DUP1 PUSH2 0x2900 SWAP1 PUSH2 0x3ECB JUMP JUMPDEST SWAP2 POP POP PUSH2 0x2846 JUMP JUMPDEST POP DUP2 SWAP3 POP POP POP SWAP1 JUMP JUMPDEST PUSH2 0x2919 PUSH2 0x2A3D JUMP JUMPDEST PUSH20 0xFFFFFFFFFFFFFFFFFFFFFFFFFFFFFFFFFFFFFFFF AND PUSH2 0x2937 PUSH2 0x1A17 JUMP JUMPDEST PUSH20 0xFFFFFFFFFFFFFFFFFFFFFFFFFFFFFFFFFFFFFFFF AND EQ PUSH2 0x298D JUMPI PUSH1 0x40 MLOAD PUSH32 0x8C379A000000000000000000000000000000000000000000000000000000000 DUP2 MSTORE PUSH1 0x4 ADD PUSH2 0x2984 SWAP1 PUSH2 0x3B21 JUMP JUMPDEST PUSH1 0x40 MLOAD DUP1 SWAP2 SUB SWAP1 REVERT JUMPDEST PUSH1 0x0 PUSH20 0xFFFFFFFFFFFFFFFFFFFFFFFFFFFFFFFFFFFFFFFF AND DUP2 PUSH20 0xFFFFFFFFFFFFFFFFFFFFFFFFFFFFFFFFFFFFFFFF AND EQ ISZERO PUSH2 0x29FD JUMPI PUSH1 0x40 MLOAD PUSH32 0x8C379A000000000000000000000000000000000000000000000000000000000 DUP2 MSTORE PUSH1 0x4 ADD PUSH2 0x29F4 SWAP1 PUSH2 0x3A41 JUMP JUMPDEST PUSH1 0x40 MLOAD DUP1 SWAP2 SUB SWAP1 REVERT JUMPDEST PUSH2 0x2A06 DUP2 PUSH2 0x2F20 JUMP JUMPDEST POP JUMP JUMPDEST PUSH1 0x9A PUSH1 0x0 SWAP1 SLOAD SWAP1 PUSH2 0x100 EXP SWAP1 DIV PUSH20 0xFFFFFFFFFFFFFFFFFFFFFFFFFFFFFFFFFFFFFFFF AND DUP2 JUMP JUMPDEST PUSH1 0x0 DUP2 PUSH1 0x0 ADD SLOAD SWAP1 POP SWAP2 SWAP1 POP JUMP JUMPDEST PUSH1 0x0 CALLER SWAP1 POP SWAP1 JUMP JUMPDEST PUSH1 0x0 PUSH20 0xFFFFFFFFFFFFFFFFFFFFFFFFFFFFFFFFFFFFFFFF AND DUP4 PUSH20 0xFFFFFFFFFFFFFFFFFFFFFFFFFFFFFFFFFFFFFFFF AND EQ ISZERO PUSH2 0x2AB5 JUMPI PUSH1 0x40 MLOAD PUSH32 0x8C379A000000000000000000000000000000000000000000000000000000000 DUP2 MSTORE PUSH1 0x4 ADD PUSH2 0x2AAC SWAP1 PUSH2 0x3B81 JUMP JUMPDEST PUSH1 0x40 MLOAD DUP1 SWAP2 SUB SWAP1 REVERT JUMPDEST PUSH1 0x0 PUSH20 0xFFFFFFFFFFFFFFFFFFFFFFFFFFFFFFFFFFFFFFFF AND DUP3 PUSH20 0xFFFFFFFFFFFFFFFFFFFFFFFFFFFFFFFFFFFFFFFF AND EQ ISZERO PUSH2 0x2B25 JUMPI PUSH1 0x40 MLOAD PUSH32 0x8C379A000000000000000000000000000000000000000000000000000000000 DUP2 MSTORE PUSH1 0x4 ADD PUSH2 0x2B1C SWAP1 PUSH2 0x3A61 JUMP JUMPDEST PUSH1 0x40 MLOAD DUP1 SWAP2 SUB SWAP1 REVERT JUMPDEST DUP1 PUSH1 0x34 PUSH1 0x0 DUP6 PUSH20 0xFFFFFFFFFFFFFFFFFFFFFFFFFFFFFFFFFFFFFFFF AND PUSH20 0xFFFFFFFFFFFFFFFFFFFFFFFFFFFFFFFFFFFFFFFF AND DUP2 MSTORE PUSH1 0x20 ADD SWAP1 DUP2 MSTORE PUSH1 0x20 ADD PUSH1 0x0 KECCAK256 PUSH1 0x0 DUP5 PUSH20 0xFFFFFFFFFFFFFFFFFFFFFFFFFFFFFFFFFFFFFFFF AND PUSH20 0xFFFFFFFFFFFFFFFFFFFFFFFFFFFFFFFFFFFFFFFF AND DUP2 MSTORE PUSH1 0x20 ADD SWAP1 DUP2 MSTORE PUSH1 0x20 ADD PUSH1 0x0 KECCAK256 DUP2 SWAP1 SSTORE POP DUP2 PUSH20 0xFFFFFFFFFFFFFFFFFFFFFFFFFFFFFFFFFFFFFFFF AND DUP4 PUSH20 0xFFFFFFFFFFFFFFFFFFFFFFFFFFFFFFFFFFFFFFFF AND PUSH32 0x8C5BE1E5EBEC7D5BD14F71427D1E84F3DD0314C0F7B2291E5B200AC8C7C3B925 DUP4 PUSH1 0x40 MLOAD PUSH2 0x2C03 SWAP2 SWAP1 PUSH2 0x3BE1 JUMP JUMPDEST PUSH1 0x40 MLOAD DUP1 SWAP2 SUB SWAP1 LOG3 POP POP POP JUMP JUMPDEST PUSH1 0x0 PUSH2 0x2C1C DUP5 DUP5 PUSH2 0x27A7 JUMP JUMPDEST SWAP1 POP PUSH32 0xFFFFFFFFFFFFFFFFFFFFFFFFFFFFFFFFFFFFFFFFFFFFFFFFFFFFFFFFFFFFFFFF DUP2 EQ PUSH2 0x2C96 JUMPI DUP2 DUP2 LT ISZERO PUSH2 0x2C88 JUMPI PUSH1 0x40 MLOAD PUSH32 0x8C379A000000000000000000000000000000000000000000000000000000000 DUP2 MSTORE PUSH1 0x4 ADD PUSH2 0x2C7F SWAP1 PUSH2 0x3A81 JUMP JUMPDEST PUSH1 0x40 MLOAD DUP1 SWAP2 SUB SWAP1 REVERT JUMPDEST PUSH2 0x2C95 DUP5 DUP5 DUP5 DUP5 SUB PUSH2 0x2A45 JUMP JUMPDEST JUMPDEST POP POP POP POP JUMP JUMPDEST PUSH1 0x0 PUSH20 0xFFFFFFFFFFFFFFFFFFFFFFFFFFFFFFFFFFFFFFFF AND DUP4 PUSH20 0xFFFFFFFFFFFFFFFFFFFFFFFFFFFFFFFFFFFFFFFF AND EQ ISZERO PUSH2 0x2D0C JUMPI PUSH1 0x40 MLOAD PUSH32 0x8C379A000000000000000000000000000000000000000000000000000000000 DUP2 MSTORE PUSH1 0x4 ADD PUSH2 0x2D03 SWAP1 PUSH2 0x3B61 JUMP JUMPDEST PUSH1 0x40 MLOAD DUP1 SWAP2 SUB SWAP1 REVERT JUMPDEST PUSH1 0x0 PUSH20 0xFFFFFFFFFFFFFFFFFFFFFFFFFFFFFFFFFFFFFFFF AND DUP3 PUSH20 0xFFFFFFFFFFFFFFFFFFFFFFFFFFFFFFFFFFFFFFFF AND EQ ISZERO PUSH2 0x2D7C JUMPI PUSH1 0x40 MLOAD PUSH32 0x8C379A000000000000000000000000000000000000000000000000000000000 DUP2 MSTORE PUSH1 0x4 ADD PUSH2 0x2D73 SWAP1 PUSH2 0x3A21 JUMP JUMPDEST PUSH1 0x40 MLOAD DUP1 SWAP2 SUB SWAP1 REVERT JUMPDEST PUSH2 0x2D87 DUP4 DUP4 DUP4 PUSH2 0x31FD JUMP JUMPDEST PUSH1 0x0 PUSH1 0x33 PUSH1 0x0 DUP6 PUSH20 0xFFFFFFFFFFFFFFFFFFFFFFFFFFFFFFFFFFFFFFFF AND PUSH20 0xFFFFFFFFFFFFFFFFFFFFFFFFFFFFFFFFFFFFFFFF AND DUP2 MSTORE PUSH1 0x20 ADD SWAP1 DUP2 MSTORE PUSH1 0x20 ADD PUSH1 0x0 KECCAK256 SLOAD SWAP1 POP DUP2 DUP2 LT ISZERO PUSH2 0x2E0E JUMPI PUSH1 0x40 MLOAD PUSH32 0x8C379A000000000000000000000000000000000000000000000000000000000 DUP2 MSTORE PUSH1 0x4 ADD PUSH2 0x2E05 SWAP1 PUSH2 0x3AA1 JUMP JUMPDEST PUSH1 0x40 MLOAD DUP1 SWAP2 SUB SWAP1 REVERT JUMPDEST DUP2 DUP2 SUB PUSH1 0x33 PUSH1 0x0 DUP7 PUSH20 0xFFFFFFFFFFFFFFFFFFFFFFFFFFFFFFFFFFFFFFFF AND PUSH20 0xFFFFFFFFFFFFFFFFFFFFFFFFFFFFFFFFFFFFFFFF AND DUP2 MSTORE PUSH1 0x20 ADD SWAP1 DUP2 MSTORE PUSH1 0x20 ADD PUSH1 0x0 KECCAK256 DUP2 SWAP1 SSTORE POP DUP2 PUSH1 0x33 PUSH1 0x0 DUP6 PUSH20 0xFFFFFFFFFFFFFFFFFFFFFFFFFFFFFFFFFFFFFFFF AND PUSH20 0xFFFFFFFFFFFFFFFFFFFFFFFFFFFFFFFFFFFFFFFF AND DUP2 MSTORE PUSH1 0x20 ADD SWAP1 DUP2 MSTORE PUSH1 0x20 ADD PUSH1 0x0 KECCAK256 PUSH1 0x0 DUP3 DUP3 SLOAD PUSH2 0x2EA3 SWAP2 SWAP1 PUSH2 0x3CA2 JUMP JUMPDEST SWAP3 POP POP DUP2 SWAP1 SSTORE POP DUP3 PUSH20 0xFFFFFFFFFFFFFFFFFFFFFFFFFFFFFFFFFFFFFFFF AND DUP5 PUSH20 0xFFFFFFFFFFFFFFFFFFFFFFFFFFFFFFFFFFFFFFFF AND PUSH32 0xDDF252AD1BE2C89B69C2B068FC378DAA952BA7F163C4A11628F55A4DF523B3EF DUP5 PUSH1 0x40 MLOAD PUSH2 0x2F07 SWAP2 SWAP1 PUSH2 0x3BE1 JUMP JUMPDEST PUSH1 0x40 MLOAD DUP1 SWAP2 SUB SWAP1 LOG3 PUSH2 0x2F1A DUP5 DUP5 DUP5 PUSH2 0x3202 JUMP JUMPDEST POP POP POP POP JUMP JUMPDEST PUSH1 0x0 PUSH1 0x65 PUSH1 0x0 SWAP1 SLOAD SWAP1 PUSH2 0x100 EXP SWAP1 DIV PUSH20 0xFFFFFFFFFFFFFFFFFFFFFFFFFFFFFFFFFFFFFFFF AND SWAP1 POP DUP2 PUSH1 0x65 PUSH1 0x0 PUSH2 0x100 EXP DUP2 SLOAD DUP2 PUSH20 0xFFFFFFFFFFFFFFFFFFFFFFFFFFFFFFFFFFFFFFFF MUL NOT AND SWAP1 DUP4 PUSH20 0xFFFFFFFFFFFFFFFFFFFFFFFFFFFFFFFFFFFFFFFF AND MUL OR SWAP1 SSTORE POP DUP2 PUSH20 0xFFFFFFFFFFFFFFFFFFFFFFFFFFFFFFFFFFFFFFFF AND DUP2 PUSH20 0xFFFFFFFFFFFFFFFFFFFFFFFFFFFFFFFFFFFFFFFF AND PUSH32 0x8BE0079C531659141344CD1FD0A4F28419497F9722A3DAAFE3B4186F6B6457E0 PUSH1 0x40 MLOAD PUSH1 0x40 MLOAD DUP1 SWAP2 SUB SWAP1 LOG3 POP POP JUMP JUMPDEST PUSH1 0x0 DUP1 PUSH1 0x1 SWAP1 SLOAD SWAP1 PUSH2 0x100 EXP SWAP1 DIV PUSH1 0xFF AND ISZERO PUSH2 0x305D JUMPI PUSH1 0x1 DUP3 PUSH1 0xFF AND EQ DUP1 ISZERO PUSH2 0x3015 JUMPI POP PUSH2 0x3013 ADDRESS PUSH2 0x3207 JUMP JUMPDEST ISZERO JUMPDEST PUSH2 0x3054 JUMPI PUSH1 0x40 MLOAD PUSH32 0x8C379A000000000000000000000000000000000000000000000000000000000 DUP2 MSTORE PUSH1 0x4 ADD PUSH2 0x304B SWAP1 PUSH2 0x3AE1 JUMP JUMPDEST PUSH1 0x40 MLOAD DUP1 SWAP2 SUB SWAP1 REVERT JUMPDEST PUSH1 0x0 SWAP1 POP PUSH2 0x30D1 JUMP JUMPDEST DUP2 PUSH1 0xFF AND PUSH1 0x0 DUP1 SLOAD SWAP1 PUSH2 0x100 EXP SWAP1 DIV PUSH1 0xFF AND PUSH1 0xFF AND LT PUSH2 0x30B2 JUMPI PUSH1 0x40 MLOAD PUSH32 0x8C379A000000000000000000000000000000000000000000000000000000000 DUP2 MSTORE PUSH1 0x4 ADD PUSH2 0x30A9 SWAP1 PUSH2 0x3AE1 JUMP JUMPDEST PUSH1 0x40 MLOAD DUP1 SWAP2 SUB SWAP1 REVERT JUMPDEST DUP2 PUSH1 0x0 DUP1 PUSH2 0x100 EXP DUP2 SLOAD DUP2 PUSH1 0xFF MUL NOT AND SWAP1 DUP4 PUSH1 0xFF AND MUL OR SWAP1 SSTORE POP PUSH1 0x1 SWAP1 POP JUMPDEST SWAP2 SWAP1 POP JUMP JUMPDEST PUSH1 0x0 PUSH1 0x1 SWAP1 SLOAD SWAP1 PUSH2 0x100 EXP SWAP1 DIV PUSH1 0xFF AND PUSH2 0x3125 JUMPI PUSH1 0x40 MLOAD PUSH32 0x8C379A000000000000000000000000000000000000000000000000000000000 DUP2 MSTORE PUSH1 0x4 ADD PUSH2 0x311C SWAP1 PUSH2 0x3BA1 JUMP JUMPDEST PUSH1 0x40 MLOAD DUP1 SWAP2 SUB SWAP1 REVERT JUMPDEST PUSH2 0x312F DUP3 DUP3 PUSH2 0x322A JUMP JUMPDEST POP POP JUMP JUMPDEST PUSH1 0x0 PUSH1 0x1 SWAP1 SLOAD SWAP1 PUSH2 0x100 EXP SWAP1 DIV PUSH1 0xFF AND PUSH2 0x3182 JUMPI PUSH1 0x40 MLOAD PUSH32 0x8C379A000000000000000000000000000000000000000000000000000000000 DUP2 MSTORE PUSH1 0x4 ADD PUSH2 0x3179 SWAP1 PUSH2 0x3BA1 JUMP JUMPDEST PUSH1 0x40 MLOAD DUP1 SWAP2 SUB SWAP1 REVERT JUMPDEST PUSH2 0x318A PUSH2 0x32AB JUMP JUMPDEST JUMP JUMPDEST PUSH1 0x1 DUP2 PUSH1 0x0 ADD PUSH1 0x0 DUP3 DUP3 SLOAD ADD SWAP3 POP POP DUP2 SWAP1 SSTORE POP POP JUMP JUMPDEST PUSH1 0x0 PUSH1 0x9A PUSH1 0x0 SWAP1 SLOAD SWAP1 PUSH2 0x100 EXP SWAP1 DIV PUSH20 0xFFFFFFFFFFFFFFFFFFFFFFFFFFFFFFFFFFFFFFFF AND PUSH1 0x9B SLOAD DIFFICULTY TIMESTAMP PUSH1 0x40 MLOAD PUSH1 0x20 ADD PUSH2 0x31DF SWAP5 SWAP4 SWAP3 SWAP2 SWAP1 PUSH2 0x38D7 JUMP JUMPDEST PUSH1 0x40 MLOAD PUSH1 0x20 DUP2 DUP4 SUB SUB DUP2 MSTORE SWAP1 PUSH1 0x40 MSTORE DUP1 MLOAD SWAP1 PUSH1 0x20 ADD KECCAK256 PUSH1 0x0 SHR SWAP1 POP SWAP1 JUMP JUMPDEST POP POP POP JUMP JUMPDEST POP POP POP JUMP JUMPDEST PUSH1 0x0 DUP1 DUP3 PUSH20 0xFFFFFFFFFFFFFFFFFFFFFFFFFFFFFFFFFFFFFFFF AND EXTCODESIZE GT SWAP1 POP SWAP2 SWAP1 POP JUMP JUMPDEST PUSH1 0x0 PUSH1 0x1 SWAP1 SLOAD SWAP1 PUSH2 0x100 EXP SWAP1 DIV PUSH1 0xFF AND PUSH2 0x3279 JUMPI PUSH1 0x40 MLOAD PUSH32 0x8C379A000000000000000000000000000000000000000000000000000000000 DUP2 MSTORE PUSH1 0x4 ADD PUSH2 0x3270 SWAP1 PUSH2 0x3BA1 JUMP JUMPDEST PUSH1 0x40 MLOAD DUP1 SWAP2 SUB SWAP1 REVERT JUMPDEST DUP2 PUSH1 0x36 SWAP1 DUP1 MLOAD SWAP1 PUSH1 0x20 ADD SWAP1 PUSH2 0x328F SWAP3 SWAP2 SWAP1 PUSH2 0x337F JUMP JUMPDEST POP DUP1 PUSH1 0x37 SWAP1 DUP1 MLOAD SWAP1 PUSH1 0x20 ADD SWAP1 PUSH2 0x32A6 SWAP3 SWAP2 SWAP1 PUSH2 0x337F JUMP JUMPDEST POP POP POP JUMP JUMPDEST PUSH1 0x0 PUSH1 0x1 SWAP1 SLOAD SWAP1 PUSH2 0x100 EXP SWAP1 DIV PUSH1 0xFF AND PUSH2 0x32FA JUMPI PUSH1 0x40 MLOAD PUSH32 0x8C379A000000000000000000000000000000000000000000000000000000000 DUP2 MSTORE PUSH1 0x4 ADD PUSH2 0x32F1 SWAP1 PUSH2 0x3BA1 JUMP JUMPDEST PUSH1 0x40 MLOAD DUP1 SWAP2 SUB SWAP1 REVERT JUMPDEST PUSH2 0x330A PUSH2 0x3305 PUSH2 0x2A3D JUMP JUMPDEST PUSH2 0x2F20 JUMP JUMPDEST JUMP JUMPDEST DUP3 DUP1 SLOAD DUP3 DUP3 SSTORE SWAP1 PUSH1 0x0 MSTORE PUSH1 0x20 PUSH1 0x0 KECCAK256 SWAP1 DUP2 ADD SWAP3 DUP3 ISZERO PUSH2 0x334D JUMPI PUSH1 0x0 MSTORE PUSH1 0x20 PUSH1 0x0 KECCAK256 SWAP2 DUP3 ADD JUMPDEST DUP3 DUP2 GT ISZERO PUSH2 0x334C JUMPI DUP3 SLOAD DUP3 SSTORE SWAP2 PUSH1 0x1 ADD SWAP2 SWAP1 PUSH1 0x1 ADD SWAP1 PUSH2 0x3331 JUMP JUMPDEST JUMPDEST POP SWAP1 POP PUSH2 0x335A SWAP2 SWAP1 PUSH2 0x3405 JUMP JUMPDEST POP SWAP1 JUMP JUMPDEST POP DUP1 SLOAD PUSH1 0x0 DUP3 SSTORE SWAP1 PUSH1 0x0 MSTORE PUSH1 0x20 PUSH1 0x0 KECCAK256 SWAP1 DUP2 ADD SWAP1 PUSH2 0x337C SWAP2 SWAP1 PUSH2 0x3405 JUMP JUMPDEST POP JUMP JUMPDEST DUP3 DUP1 SLOAD PUSH2 0x338B SWAP1 PUSH2 0x3E99 JUMP JUMPDEST SWAP1 PUSH1 0x0 MSTORE PUSH1 0x20 PUSH1 0x0 KECCAK256 SWAP1 PUSH1 0x1F ADD PUSH1 0x20 SWAP1 DIV DUP2 ADD SWAP3 DUP3 PUSH2 0x33AD JUMPI PUSH1 0x0 DUP6 SSTORE PUSH2 0x33F4 JUMP JUMPDEST DUP3 PUSH1 0x1F LT PUSH2 0x33C6 JUMPI DUP1 MLOAD PUSH1 0xFF NOT AND DUP4 DUP1 ADD OR DUP6 SSTORE PUSH2 0x33F4 JUMP JUMPDEST DUP3 DUP1 ADD PUSH1 0x1 ADD DUP6 SSTORE DUP3 ISZERO PUSH2 0x33F4 JUMPI SWAP2 DUP3 ADD JUMPDEST DUP3 DUP2 GT ISZERO PUSH2 0x33F3 JUMPI DUP3 MLOAD DUP3 SSTORE SWAP2 PUSH1 0x20 ADD SWAP2 SWAP1 PUSH1 0x1 ADD SWAP1 PUSH2 0x33D8 JUMP JUMPDEST JUMPDEST POP SWAP1 POP PUSH2 0x3401 SWAP2 SWAP1 PUSH2 0x3405 JUMP JUMPDEST POP SWAP1 JUMP JUMPDEST JUMPDEST DUP1 DUP3 GT ISZERO PUSH2 0x341E JUMPI PUSH1 0x0 DUP2 PUSH1 0x0 SWAP1 SSTORE POP PUSH1 0x1 ADD PUSH2 0x3406 JUMP JUMPDEST POP SWAP1 JUMP JUMPDEST PUSH1 0x0 DUP2 CALLDATALOAD SWAP1 POP PUSH2 0x3431 DUP2 PUSH2 0x43FE JUMP JUMPDEST SWAP3 SWAP2 POP POP JUMP JUMPDEST PUSH1 0x0 DUP2 MLOAD SWAP1 POP PUSH2 0x3446 DUP2 PUSH2 0x4415 JUMP JUMPDEST SWAP3 SWAP2 POP POP JUMP JUMPDEST PUSH1 0x0 DUP2 CALLDATALOAD SWAP1 POP PUSH2 0x345B DUP2 PUSH2 0x442C JUMP JUMPDEST SWAP3 SWAP2 POP POP JUMP JUMPDEST PUSH1 0x0 DUP2 MLOAD SWAP1 POP PUSH2 0x3470 DUP2 PUSH2 0x442C JUMP JUMPDEST SWAP3 SWAP2 POP POP JUMP JUMPDEST PUSH1 0x0 PUSH1 0x20 DUP3 DUP5 SUB SLT ISZERO PUSH2 0x3488 JUMPI PUSH1 0x0 DUP1 REVERT JUMPDEST PUSH1 0x0 PUSH2 0x3496 DUP5 DUP3 DUP6 ADD PUSH2 0x3422 JUMP JUMPDEST SWAP2 POP POP SWAP3 SWAP2 POP POP JUMP JUMPDEST PUSH1 0x0 DUP1 PUSH1 0x40 DUP4 DUP6 SUB SLT ISZERO PUSH2 0x34B2 JUMPI PUSH1 0x0 DUP1 REVERT JUMPDEST PUSH1 0x0 PUSH2 0x34C0 DUP6 DUP3 DUP7 ADD PUSH2 0x3422 JUMP JUMPDEST SWAP3 POP POP PUSH1 0x20 PUSH2 0x34D1 DUP6 DUP3 DUP7 ADD PUSH2 0x3422 JUMP JUMPDEST SWAP2 POP POP SWAP3 POP SWAP3 SWAP1 POP JUMP JUMPDEST PUSH1 0x0 DUP1 PUSH1 0x0 PUSH1 0x60 DUP5 DUP7 SUB SLT ISZERO PUSH2 0x34F0 JUMPI PUSH1 0x0 DUP1 REVERT JUMPDEST PUSH1 0x0 PUSH2 0x34FE DUP7 DUP3 DUP8 ADD PUSH2 0x3422 JUMP JUMPDEST SWAP4 POP POP PUSH1 0x20 PUSH2 0x350F DUP7 DUP3 DUP8 ADD PUSH2 0x3422 JUMP JUMPDEST SWAP3 POP POP PUSH1 0x40 PUSH2 0x3520 DUP7 DUP3 DUP8 ADD PUSH2 0x344C JUMP JUMPDEST SWAP2 POP POP SWAP3 POP SWAP3 POP SWAP3 JUMP JUMPDEST PUSH1 0x0 DUP1 PUSH1 0x40 DUP4 DUP6 SUB SLT ISZERO PUSH2 0x353D JUMPI PUSH1 0x0 DUP1 REVERT JUMPDEST PUSH1 0x0 PUSH2 0x354B DUP6 DUP3 DUP7 ADD PUSH2 0x3422 JUMP JUMPDEST SWAP3 POP POP PUSH1 0x20 PUSH2 0x355C DUP6 DUP3 DUP7 ADD PUSH2 0x344C JUMP JUMPDEST SWAP2 POP POP SWAP3 POP SWAP3 SWAP1 POP JUMP JUMPDEST PUSH1 0x0 PUSH1 0x20 DUP3 DUP5 SUB SLT ISZERO PUSH2 0x3578 JUMPI PUSH1 0x0 DUP1 REVERT JUMPDEST PUSH1 0x0 PUSH2 0x3586 DUP5 DUP3 DUP6 ADD PUSH2 0x3437 JUMP JUMPDEST SWAP2 POP POP SWAP3 SWAP2 POP POP JUMP JUMPDEST PUSH1 0x0 PUSH1 0x20 DUP3 DUP5 SUB SLT ISZERO PUSH2 0x35A1 JUMPI PUSH1 0x0 DUP1 REVERT JUMPDEST PUSH1 0x0 PUSH2 0x35AF DUP5 DUP3 DUP6 ADD PUSH2 0x344C JUMP JUMPDEST SWAP2 POP POP SWAP3 SWAP2 POP POP JUMP JUMPDEST PUSH1 0x0 PUSH1 0x20 DUP3 DUP5 SUB SLT ISZERO PUSH2 0x35CA JUMPI PUSH1 0x0 DUP1 REVERT JUMPDEST PUSH1 0x0 PUSH2 0x35D8 DUP5 DUP3 DUP6 ADD PUSH2 0x3461 JUMP JUMPDEST SWAP2 POP POP SWAP3 SWAP2 POP POP JUMP JUMPDEST PUSH1 0x0 DUP1 PUSH1 0x40 DUP4 DUP6 SUB SLT ISZERO PUSH2 0x35F4 JUMPI PUSH1 0x0 DUP1 REVERT JUMPDEST PUSH1 0x0 PUSH2 0x3602 DUP6 DUP3 DUP7 ADD PUSH2 0x344C JUMP JUMPDEST SWAP3 POP POP PUSH1 0x20 PUSH2 0x3613 DUP6 DUP3 DUP7 ADD PUSH2 0x344C JUMP JUMPDEST SWAP2 POP POP SWAP3 POP SWAP3 SWAP1 POP JUMP JUMPDEST PUSH2 0x3626 DUP2 PUSH2 0x3E1E JUMP JUMPDEST DUP3 MSTORE POP POP JUMP JUMPDEST PUSH2 0x3635 DUP2 PUSH2 0x3DC9 JUMP JUMPDEST DUP3 MSTORE POP POP JUMP JUMPDEST PUSH2 0x364C PUSH2 0x3647 DUP3 PUSH2 0x3DC9 JUMP JUMPDEST PUSH2 0x3F14 JUMP JUMPDEST DUP3 MSTORE POP POP JUMP JUMPDEST PUSH2 0x365B DUP2 PUSH2 0x3DB7 JUMP JUMPDEST DUP3 MSTORE POP POP JUMP JUMPDEST PUSH2 0x366A DUP2 PUSH2 0x3DDB JUMP JUMPDEST DUP3 MSTORE POP POP JUMP JUMPDEST PUSH2 0x3679 DUP2 PUSH2 0x3E30 JUMP JUMPDEST DUP3 MSTORE POP POP JUMP JUMPDEST PUSH1 0x0 PUSH2 0x368A DUP3 PUSH2 0x3C86 JUMP JUMPDEST PUSH2 0x3694 DUP2 DUP6 PUSH2 0x3C91 JUMP JUMPDEST SWAP4 POP PUSH2 0x36A4 DUP2 DUP6 PUSH1 0x20 DUP7 ADD PUSH2 0x3E66 JUMP JUMPDEST PUSH2 0x36AD DUP2 PUSH2 0x4000 JUMP JUMPDEST DUP5 ADD SWAP2 POP POP SWAP3 SWAP2 POP POP JUMP JUMPDEST PUSH1 0x0 PUSH2 0x36C5 PUSH1 0x23 DUP4 PUSH2 0x3C91 JUMP JUMPDEST SWAP2 POP PUSH2 0x36D0 DUP3 PUSH2 0x401E JUMP JUMPDEST PUSH1 0x40 DUP3 ADD SWAP1 POP SWAP2 SWAP1 POP JUMP JUMPDEST PUSH1 0x0 PUSH2 0x36E8 PUSH1 0x26 DUP4 PUSH2 0x3C91 JUMP JUMPDEST SWAP2 POP PUSH2 0x36F3 DUP3 PUSH2 0x406D JUMP JUMPDEST PUSH1 0x40 DUP3 ADD SWAP1 POP SWAP2 SWAP1 POP JUMP JUMPDEST PUSH1 0x0 PUSH2 0x370B PUSH1 0x22 DUP4 PUSH2 0x3C91 JUMP JUMPDEST SWAP2 POP PUSH2 0x3716 DUP3 PUSH2 0x40BC JUMP JUMPDEST PUSH1 0x40 DUP3 ADD SWAP1 POP SWAP2 SWAP1 POP JUMP JUMPDEST PUSH1 0x0 PUSH2 0x372E PUSH1 0x1D DUP4 PUSH2 0x3C91 JUMP JUMPDEST SWAP2 POP PUSH2 0x3739 DUP3 PUSH2 0x410B JUMP JUMPDEST PUSH1 0x20 DUP3 ADD SWAP1 POP SWAP2 SWAP1 POP JUMP JUMPDEST PUSH1 0x0 PUSH2 0x3751 PUSH1 0x26 DUP4 PUSH2 0x3C91 JUMP JUMPDEST SWAP2 POP PUSH2 0x375C DUP3 PUSH2 0x4134 JUMP JUMPDEST PUSH1 0x40 DUP3 ADD SWAP1 POP SWAP2 SWAP1 POP JUMP JUMPDEST PUSH1 0x0 PUSH2 0x3774 PUSH1 0x26 DUP4 PUSH2 0x3C91 JUMP JUMPDEST SWAP2 POP PUSH2 0x377F DUP3 PUSH2 0x4183 JUMP JUMPDEST PUSH1 0x40 DUP3 ADD SWAP1 POP SWAP2 SWAP1 POP JUMP JUMPDEST PUSH1 0x0 PUSH2 0x3797 PUSH1 0x2E DUP4 PUSH2 0x3C91 JUMP JUMPDEST SWAP2 POP PUSH2 0x37A2 DUP3 PUSH2 0x41D2 JUMP JUMPDEST PUSH1 0x40 DUP3 ADD SWAP1 POP SWAP2 SWAP1 POP JUMP JUMPDEST PUSH1 0x0 PUSH2 0x37BA PUSH1 0x2B DUP4 PUSH2 0x3C91 JUMP JUMPDEST SWAP2 POP PUSH2 0x37C5 DUP3 PUSH2 0x4221 JUMP JUMPDEST PUSH1 0x40 DUP3 ADD SWAP1 POP SWAP2 SWAP1 POP JUMP JUMPDEST PUSH1 0x0 PUSH2 0x37DD PUSH1 0x20 DUP4 PUSH2 0x3C91 JUMP JUMPDEST SWAP2 POP PUSH2 0x37E8 DUP3 PUSH2 0x4270 JUMP JUMPDEST PUSH1 0x20 DUP3 ADD SWAP1 POP SWAP2 SWAP1 POP JUMP JUMPDEST PUSH1 0x0 PUSH2 0x3800 PUSH1 0x14 DUP4 PUSH2 0x3C91 JUMP JUMPDEST SWAP2 POP PUSH2 0x380B DUP3 PUSH2 0x4299 JUMP JUMPDEST PUSH1 0x20 DUP3 ADD SWAP1 POP SWAP2 SWAP1 POP JUMP JUMPDEST PUSH1 0x0 PUSH2 0x3823 PUSH1 0x25 DUP4 PUSH2 0x3C91 JUMP JUMPDEST SWAP2 POP PUSH2 0x382E DUP3 PUSH2 0x42C2 JUMP JUMPDEST PUSH1 0x40 DUP3 ADD SWAP1 POP SWAP2 SWAP1 POP JUMP JUMPDEST PUSH1 0x0 PUSH2 0x3846 PUSH1 0x24 DUP4 PUSH2 0x3C91 JUMP JUMPDEST SWAP2 POP PUSH2 0x3851 DUP3 PUSH2 0x4311 JUMP JUMPDEST PUSH1 0x40 DUP3 ADD SWAP1 POP SWAP2 SWAP1 POP JUMP JUMPDEST PUSH1 0x0 PUSH2 0x3869 PUSH1 0x2B DUP4 PUSH2 0x3C91 JUMP JUMPDEST SWAP2 POP PUSH2 0x3874 DUP3 PUSH2 0x4360 JUMP JUMPDEST PUSH1 0x40 DUP3 ADD SWAP1 POP SWAP2 SWAP1 POP JUMP JUMPDEST PUSH1 0x0 PUSH2 0x388C PUSH1 0x25 DUP4 PUSH2 0x3C91 JUMP JUMPDEST SWAP2 POP PUSH2 0x3897 DUP3 PUSH2 0x43AF JUMP JUMPDEST PUSH1 0x40 DUP3 ADD SWAP1 POP SWAP2 SWAP1 POP JUMP JUMPDEST PUSH2 0x38AB DUP2 PUSH2 0x3E07 JUMP JUMPDEST DUP3 MSTORE POP POP JUMP JUMPDEST PUSH2 0x38C2 PUSH2 0x38BD DUP3 PUSH2 0x3E07 JUMP JUMPDEST PUSH2 0x3F38 JUMP JUMPDEST DUP3 MSTORE POP POP JUMP JUMPDEST PUSH2 0x38D1 DUP2 PUSH2 0x3E11 JUMP JUMPDEST DUP3 MSTORE POP POP JUMP JUMPDEST PUSH1 0x0 PUSH2 0x38E3 DUP3 DUP8 PUSH2 0x363B JUMP JUMPDEST PUSH1 0x14 DUP3 ADD SWAP2 POP PUSH2 0x38F3 DUP3 DUP7 PUSH2 0x38B1 JUMP JUMPDEST PUSH1 0x20 DUP3 ADD SWAP2 POP PUSH2 0x3903 DUP3 DUP6 PUSH2 0x38B1 JUMP JUMPDEST PUSH1 0x20 DUP3 ADD SWAP2 POP PUSH2 0x3913 DUP3 DUP5 PUSH2 0x38B1 JUMP JUMPDEST PUSH1 0x20 DUP3 ADD SWAP2 POP DUP2 SWAP1 POP SWAP6 SWAP5 POP POP POP POP POP JUMP JUMPDEST PUSH1 0x0 PUSH1 0x20 DUP3 ADD SWAP1 POP PUSH2 0x393A PUSH1 0x0 DUP4 ADD DUP5 PUSH2 0x3652 JUMP JUMPDEST SWAP3 SWAP2 POP POP JUMP JUMPDEST PUSH1 0x0 PUSH1 0x20 DUP3 ADD SWAP1 POP PUSH2 0x3955 PUSH1 0x0 DUP4 ADD DUP5 PUSH2 0x362C JUMP JUMPDEST SWAP3 SWAP2 POP POP JUMP JUMPDEST PUSH1 0x0 PUSH1 0x60 DUP3 ADD SWAP1 POP PUSH2 0x3970 PUSH1 0x0 DUP4 ADD DUP7 PUSH2 0x3652 JUMP JUMPDEST PUSH2 0x397D PUSH1 0x20 DUP4 ADD DUP6 PUSH2 0x361D JUMP JUMPDEST PUSH2 0x398A PUSH1 0x40 DUP4 ADD DUP5 PUSH2 0x38A2 JUMP JUMPDEST SWAP5 SWAP4 POP POP POP POP JUMP JUMPDEST PUSH1 0x0 PUSH1 0x60 DUP3 ADD SWAP1 POP PUSH2 0x39A7 PUSH1 0x0 DUP4 ADD DUP7 PUSH2 0x3652 JUMP JUMPDEST PUSH2 0x39B4 PUSH1 0x20 DUP4 ADD DUP6 PUSH2 0x3652 JUMP JUMPDEST PUSH2 0x39C1 PUSH1 0x40 DUP4 ADD DUP5 PUSH2 0x38A2 JUMP JUMPDEST SWAP5 SWAP4 POP POP POP POP JUMP JUMPDEST PUSH1 0x0 PUSH1 0x20 DUP3 ADD SWAP1 POP PUSH2 0x39DE PUSH1 0x0 DUP4 ADD DUP5 PUSH2 0x3661 JUMP JUMPDEST SWAP3 SWAP2 POP POP JUMP JUMPDEST PUSH1 0x0 PUSH1 0x20 DUP3 ADD SWAP1 POP PUSH2 0x39F9 PUSH1 0x0 DUP4 ADD DUP5 PUSH2 0x3670 JUMP JUMPDEST SWAP3 SWAP2 POP POP JUMP JUMPDEST PUSH1 0x0 PUSH1 0x20 DUP3 ADD SWAP1 POP DUP2 DUP2 SUB PUSH1 0x0 DUP4 ADD MSTORE PUSH2 0x3A19 DUP2 DUP5 PUSH2 0x367F JUMP JUMPDEST SWAP1 POP SWAP3 SWAP2 POP POP JUMP JUMPDEST PUSH1 0x0 PUSH1 0x20 DUP3 ADD SWAP1 POP DUP2 DUP2 SUB PUSH1 0x0 DUP4 ADD MSTORE PUSH2 0x3A3A DUP2 PUSH2 0x36B8 JUMP JUMPDEST SWAP1 POP SWAP2 SWAP1 POP JUMP JUMPDEST PUSH1 0x0 PUSH1 0x20 DUP3 ADD SWAP1 POP DUP2 DUP2 SUB PUSH1 0x0 DUP4 ADD MSTORE PUSH2 0x3A5A DUP2 PUSH2 0x36DB JUMP JUMPDEST SWAP1 POP SWAP2 SWAP1 POP JUMP JUMPDEST PUSH1 0x0 PUSH1 0x20 DUP3 ADD SWAP1 POP DUP2 DUP2 SUB PUSH1 0x0 DUP4 ADD MSTORE PUSH2 0x3A7A DUP2 PUSH2 0x36FE JUMP JUMPDEST SWAP1 POP SWAP2 SWAP1 POP JUMP JUMPDEST PUSH1 0x0 PUSH1 0x20 DUP3 ADD SWAP1 POP DUP2 DUP2 SUB PUSH1 0x0 DUP4 ADD MSTORE PUSH2 0x3A9A DUP2 PUSH2 0x3721 JUMP JUMPDEST SWAP1 POP SWAP2 SWAP1 POP JUMP JUMPDEST PUSH1 0x0 PUSH1 0x20 DUP3 ADD SWAP1 POP DUP2 DUP2 SUB PUSH1 0x0 DUP4 ADD MSTORE PUSH2 0x3ABA DUP2 PUSH2 0x3744 JUMP JUMPDEST SWAP1 POP SWAP2 SWAP1 POP JUMP JUMPDEST PUSH1 0x0 PUSH1 0x20 DUP3 ADD SWAP1 POP DUP2 DUP2 SUB PUSH1 0x0 DUP4 ADD MSTORE PUSH2 0x3ADA DUP2 PUSH2 0x3767 JUMP JUMPDEST SWAP1 POP SWAP2 SWAP1 POP JUMP JUMPDEST PUSH1 0x0 PUSH1 0x20 DUP3 ADD SWAP1 POP DUP2 DUP2 SUB PUSH1 0x0 DUP4 ADD MSTORE PUSH2 0x3AFA DUP2 PUSH2 0x378A JUMP JUMPDEST SWAP1 POP SWAP2 SWAP1 POP JUMP JUMPDEST PUSH1 0x0 PUSH1 0x20 DUP3 ADD SWAP1 POP DUP2 DUP2 SUB PUSH1 0x0 DUP4 ADD MSTORE PUSH2 0x3B1A DUP2 PUSH2 0x37AD JUMP JUMPDEST SWAP1 POP SWAP2 SWAP1 POP JUMP JUMPDEST PUSH1 0x0 PUSH1 0x20 DUP3 ADD SWAP1 POP DUP2 DUP2 SUB PUSH1 0x0 DUP4 ADD MSTORE PUSH2 0x3B3A DUP2 PUSH2 0x37D0 JUMP JUMPDEST SWAP1 POP SWAP2 SWAP1 POP JUMP JUMPDEST PUSH1 0x0 PUSH1 0x20 DUP3 ADD SWAP1 POP DUP2 DUP2 SUB PUSH1 0x0 DUP4 ADD MSTORE PUSH2 0x3B5A DUP2 PUSH2 0x37F3 JUMP JUMPDEST SWAP1 POP SWAP2 SWAP1 POP JUMP JUMPDEST PUSH1 0x0 PUSH1 0x20 DUP3 ADD SWAP1 POP DUP2 DUP2 SUB PUSH1 0x0 DUP4 ADD MSTORE PUSH2 0x3B7A DUP2 PUSH2 0x3816 JUMP JUMPDEST SWAP1 POP SWAP2 SWAP1 POP JUMP JUMPDEST PUSH1 0x0 PUSH1 0x20 DUP3 ADD SWAP1 POP DUP2 DUP2 SUB PUSH1 0x0 DUP4 ADD MSTORE PUSH2 0x3B9A DUP2 PUSH2 0x3839 JUMP JUMPDEST SWAP1 POP SWAP2 SWAP1 POP JUMP JUMPDEST PUSH1 0x0 PUSH1 0x20 DUP3 ADD SWAP1 POP DUP2 DUP2 SUB PUSH1 0x0 DUP4 ADD MSTORE PUSH2 0x3BBA DUP2 PUSH2 0x385C JUMP JUMPDEST SWAP1 POP SWAP2 SWAP1 POP JUMP JUMPDEST PUSH1 0x0 PUSH1 0x20 DUP3 ADD SWAP1 POP DUP2 DUP2 SUB PUSH1 0x0 DUP4 ADD MSTORE PUSH2 0x3BDA DUP2 PUSH2 0x387F JUMP JUMPDEST SWAP1 POP SWAP2 SWAP1 POP JUMP JUMPDEST PUSH1 0x0 PUSH1 0x20 DUP3 ADD SWAP1 POP PUSH2 0x3BF6 PUSH1 0x0 DUP4 ADD DUP5 PUSH2 0x38A2 JUMP JUMPDEST SWAP3 SWAP2 POP POP JUMP JUMPDEST PUSH1 0x0 PUSH1 0xE0 DUP3 ADD SWAP1 POP PUSH2 0x3C11 PUSH1 0x0 DUP4 ADD DUP11 PUSH2 0x38A2 JUMP JUMPDEST PUSH2 0x3C1E PUSH1 0x20 DUP4 ADD DUP10 PUSH2 0x3652 JUMP JUMPDEST PUSH2 0x3C2B PUSH1 0x40 DUP4 ADD DUP9 PUSH2 0x38A2 JUMP JUMPDEST PUSH2 0x3C38 PUSH1 0x60 DUP4 ADD DUP8 PUSH2 0x38A2 JUMP JUMPDEST PUSH2 0x3C45 PUSH1 0x80 DUP4 ADD DUP7 PUSH2 0x38A2 JUMP JUMPDEST PUSH2 0x3C52 PUSH1 0xA0 DUP4 ADD DUP6 PUSH2 0x38A2 JUMP JUMPDEST PUSH2 0x3C5F PUSH1 0xC0 DUP4 ADD DUP5 PUSH2 0x38A2 JUMP JUMPDEST SWAP9 SWAP8 POP POP POP POP POP POP POP POP JUMP JUMPDEST PUSH1 0x0 PUSH1 0x20 DUP3 ADD SWAP1 POP PUSH2 0x3C80 PUSH1 0x0 DUP4 ADD DUP5 PUSH2 0x38C8 JUMP JUMPDEST SWAP3 SWAP2 POP POP JUMP JUMPDEST PUSH1 0x0 DUP2 MLOAD SWAP1 POP SWAP2 SWAP1 POP JUMP JUMPDEST PUSH1 0x0 DUP3 DUP3 MSTORE PUSH1 0x20 DUP3 ADD SWAP1 POP SWAP3 SWAP2 POP POP JUMP JUMPDEST PUSH1 0x0 PUSH2 0x3CAD DUP3 PUSH2 0x3E07 JUMP JUMPDEST SWAP2 POP PUSH2 0x3CB8 DUP4 PUSH2 0x3E07 JUMP JUMPDEST SWAP3 POP DUP3 PUSH32 0xFFFFFFFFFFFFFFFFFFFFFFFFFFFFFFFFFFFFFFFFFFFFFFFFFFFFFFFFFFFFFFFF SUB DUP3 GT ISZERO PUSH2 0x3CED JUMPI PUSH2 0x3CEC PUSH2 0x3F73 JUMP JUMPDEST JUMPDEST DUP3 DUP3 ADD SWAP1 POP SWAP3 SWAP2 POP POP JUMP JUMPDEST PUSH1 0x0 PUSH2 0x3D03 DUP3 PUSH2 0x3E07 JUMP JUMPDEST SWAP2 POP PUSH2 0x3D0E DUP4 PUSH2 0x3E07 JUMP JUMPDEST SWAP3 POP DUP3 PUSH2 0x3D1E JUMPI PUSH2 0x3D1D PUSH2 0x3FA2 JUMP JUMPDEST JUMPDEST DUP3 DUP3 DIV SWAP1 POP SWAP3 SWAP2 POP POP JUMP JUMPDEST PUSH1 0x0 PUSH2 0x3D34 DUP3 PUSH2 0x3E07 JUMP JUMPDEST SWAP2 POP PUSH2 0x3D3F DUP4 PUSH2 0x3E07 JUMP JUMPDEST SWAP3 POP DUP2 PUSH32 0xFFFFFFFFFFFFFFFFFFFFFFFFFFFFFFFFFFFFFFFFFFFFFFFFFFFFFFFFFFFFFFFF DIV DUP4 GT DUP3 ISZERO ISZERO AND ISZERO PUSH2 0x3D78 JUMPI PUSH2 0x3D77 PUSH2 0x3F73 JUMP JUMPDEST JUMPDEST DUP3 DUP3 MUL SWAP1 POP SWAP3 SWAP2 POP POP JUMP JUMPDEST PUSH1 0x0 PUSH2 0x3D8E DUP3 PUSH2 0x3E07 JUMP JUMPDEST SWAP2 POP PUSH2 0x3D99 DUP4 PUSH2 0x3E07 JUMP JUMPDEST SWAP3 POP DUP3 DUP3 LT ISZERO PUSH2 0x3DAC JUMPI PUSH2 0x3DAB PUSH2 0x3F73 JUMP JUMPDEST JUMPDEST DUP3 DUP3 SUB SWAP1 POP SWAP3 SWAP2 POP POP JUMP JUMPDEST PUSH1 0x0 PUSH2 0x3DC2 DUP3 PUSH2 0x3DE7 JUMP JUMPDEST SWAP1 POP SWAP2 SWAP1 POP JUMP JUMPDEST PUSH1 0x0 PUSH2 0x3DD4 DUP3 PUSH2 0x3DE7 JUMP JUMPDEST SWAP1 POP SWAP2 SWAP1 POP JUMP JUMPDEST PUSH1 0x0 DUP2 ISZERO ISZERO SWAP1 POP SWAP2 SWAP1 POP JUMP JUMPDEST PUSH1 0x0 PUSH20 0xFFFFFFFFFFFFFFFFFFFFFFFFFFFFFFFFFFFFFFFF DUP3 AND SWAP1 POP SWAP2 SWAP1 POP JUMP JUMPDEST PUSH1 0x0 DUP2 SWAP1 POP SWAP2 SWAP1 POP JUMP JUMPDEST PUSH1 0x0 PUSH1 0xFF DUP3 AND SWAP1 POP SWAP2 SWAP1 POP JUMP JUMPDEST PUSH1 0x0 PUSH2 0x3E29 DUP3 PUSH2 0x3E42 JUMP JUMPDEST SWAP1 POP SWAP2 SWAP1 POP JUMP JUMPDEST PUSH1 0x0 PUSH2 0x3E3B DUP3 PUSH2 0x3E11 JUMP JUMPDEST SWAP1 POP SWAP2 SWAP1 POP JUMP JUMPDEST PUSH1 0x0 PUSH2 0x3E4D DUP3 PUSH2 0x3E54 JUMP JUMPDEST SWAP1 POP SWAP2 SWAP1 POP JUMP JUMPDEST PUSH1 0x0 PUSH2 0x3E5F DUP3 PUSH2 0x3DE7 JUMP JUMPDEST SWAP1 POP SWAP2 SWAP1 POP JUMP JUMPDEST PUSH1 0x0 JUMPDEST DUP4 DUP2 LT ISZERO PUSH2 0x3E84 JUMPI DUP1 DUP3 ADD MLOAD DUP2 DUP5 ADD MSTORE PUSH1 0x20 DUP2 ADD SWAP1 POP PUSH2 0x3E69 JUMP JUMPDEST DUP4 DUP2 GT ISZERO PUSH2 0x3E93 JUMPI PUSH1 0x0 DUP5 DUP5 ADD MSTORE JUMPDEST POP POP POP POP JUMP JUMPDEST PUSH1 0x0 PUSH1 0x2 DUP3 DIV SWAP1 POP PUSH1 0x1 DUP3 AND DUP1 PUSH2 0x3EB1 JUMPI PUSH1 0x7F DUP3 AND SWAP2 POP JUMPDEST PUSH1 0x20 DUP3 LT DUP2 EQ ISZERO PUSH2 0x3EC5 JUMPI PUSH2 0x3EC4 PUSH2 0x3FD1 JUMP JUMPDEST JUMPDEST POP SWAP2 SWAP1 POP JUMP JUMPDEST PUSH1 0x0 PUSH2 0x3ED6 DUP3 PUSH2 0x3E07 JUMP JUMPDEST SWAP2 POP PUSH32 0xFFFFFFFFFFFFFFFFFFFFFFFFFFFFFFFFFFFFFFFFFFFFFFFFFFFFFFFFFFFFFFFF DUP3 EQ ISZERO PUSH2 0x3F09 JUMPI PUSH2 0x3F08 PUSH2 0x3F73 JUMP JUMPDEST JUMPDEST PUSH1 0x1 DUP3 ADD SWAP1 POP SWAP2 SWAP1 POP JUMP JUMPDEST PUSH1 0x0 PUSH2 0x3F1F DUP3 PUSH2 0x3F26 JUMP JUMPDEST SWAP1 POP SWAP2 SWAP1 POP JUMP JUMPDEST PUSH1 0x0 PUSH2 0x3F31 DUP3 PUSH2 0x4011 JUMP JUMPDEST SWAP1 POP SWAP2 SWAP1 POP JUMP JUMPDEST PUSH1 0x0 DUP2 SWAP1 POP SWAP2 SWAP1 POP JUMP JUMPDEST PUSH1 0x0 PUSH2 0x3F4D DUP3 PUSH2 0x3E07 JUMP JUMPDEST SWAP2 POP PUSH2 0x3F58 DUP4 PUSH2 0x3E07 JUMP JUMPDEST SWAP3 POP DUP3 PUSH2 0x3F68 JUMPI PUSH2 0x3F67 PUSH2 0x3FA2 JUMP JUMPDEST JUMPDEST DUP3 DUP3 MOD SWAP1 POP SWAP3 SWAP2 POP POP JUMP JUMPDEST PUSH32 0x4E487B7100000000000000000000000000000000000000000000000000000000 PUSH1 0x0 MSTORE PUSH1 0x11 PUSH1 0x4 MSTORE PUSH1 0x24 PUSH1 0x0 REVERT JUMPDEST PUSH32 0x4E487B7100000000000000000000000000000000000000000000000000000000 PUSH1 0x0 MSTORE PUSH1 0x12 PUSH1 0x4 MSTORE PUSH1 0x24 PUSH1 0x0 REVERT JUMPDEST PUSH32 0x4E487B7100000000000000000000000000000000000000000000000000000000 PUSH1 0x0 MSTORE PUSH1 0x22 PUSH1 0x4 MSTORE PUSH1 0x24 PUSH1 0x0 REVERT JUMPDEST PUSH1 0x0 PUSH1 0x1F NOT PUSH1 0x1F DUP4 ADD AND SWAP1 POP SWAP2 SWAP1 POP JUMP JUMPDEST PUSH1 0x0 DUP2 PUSH1 0x60 SHL SWAP1 POP SWAP2 SWAP1 POP JUMP JUMPDEST PUSH32 0x45524332303A207472616E7366657220746F20746865207A65726F2061646472 PUSH1 0x0 DUP3 ADD MSTORE PUSH32 0x6573730000000000000000000000000000000000000000000000000000000000 PUSH1 0x20 DUP3 ADD MSTORE POP JUMP JUMPDEST PUSH32 0x4F776E61626C653A206E6577206F776E657220697320746865207A65726F2061 PUSH1 0x0 DUP3 ADD MSTORE PUSH32 0x6464726573730000000000000000000000000000000000000000000000000000 PUSH1 0x20 DUP3 ADD MSTORE POP JUMP JUMPDEST PUSH32 0x45524332303A20617070726F766520746F20746865207A65726F206164647265 PUSH1 0x0 DUP3 ADD MSTORE PUSH32 0x7373000000000000000000000000000000000000000000000000000000000000 PUSH1 0x20 DUP3 ADD MSTORE POP JUMP JUMPDEST PUSH32 0x45524332303A20696E73756666696369656E7420616C6C6F77616E6365000000 PUSH1 0x0 DUP3 ADD MSTORE POP JUMP JUMPDEST PUSH32 0x45524332303A207472616E7366657220616D6F756E7420657863656564732062 PUSH1 0x0 DUP3 ADD MSTORE PUSH32 0x616C616E63650000000000000000000000000000000000000000000000000000 PUSH1 0x20 DUP3 ADD MSTORE POP JUMP JUMPDEST PUSH32 0x576974686472617720416D6F756E74206D757374206265206772656174657220 PUSH1 0x0 DUP3 ADD MSTORE PUSH32 0x7468616E20300000000000000000000000000000000000000000000000000000 PUSH1 0x20 DUP3 ADD MSTORE POP JUMP JUMPDEST PUSH32 0x496E697469616C697A61626C653A20636F6E747261637420697320616C726561 PUSH1 0x0 DUP3 ADD MSTORE PUSH32 0x647920696E697469616C697A6564000000000000000000000000000000000000 PUSH1 0x20 DUP3 ADD MSTORE POP JUMP JUMPDEST PUSH32 0x596F752063616E6E6F74207769746864726177206D6F7265207468616E20796F PUSH1 0x0 DUP3 ADD MSTORE PUSH32 0x75206465706F7369746564000000000000000000000000000000000000000000 PUSH1 0x20 DUP3 ADD MSTORE POP JUMP JUMPDEST PUSH32 0x4F776E61626C653A2063616C6C6572206973206E6F7420746865206F776E6572 PUSH1 0x0 DUP3 ADD MSTORE POP JUMP JUMPDEST PUSH32 0x496E73756666696369656E742042616C616E6365000000000000000000000000 PUSH1 0x0 DUP3 ADD MSTORE POP JUMP JUMPDEST PUSH32 0x45524332303A207472616E736665722066726F6D20746865207A65726F206164 PUSH1 0x0 DUP3 ADD MSTORE PUSH32 0x6472657373000000000000000000000000000000000000000000000000000000 PUSH1 0x20 DUP3 ADD MSTORE POP JUMP JUMPDEST PUSH32 0x45524332303A20617070726F76652066726F6D20746865207A65726F20616464 PUSH1 0x0 DUP3 ADD MSTORE PUSH32 0x7265737300000000000000000000000000000000000000000000000000000000 PUSH1 0x20 DUP3 ADD MSTORE POP JUMP JUMPDEST PUSH32 0x496E697469616C697A61626C653A20636F6E7472616374206973206E6F742069 PUSH1 0x0 DUP3 ADD MSTORE PUSH32 0x6E697469616C697A696E67000000000000000000000000000000000000000000 PUSH1 0x20 DUP3 ADD MSTORE POP JUMP JUMPDEST PUSH32 0x45524332303A2064656372656173656420616C6C6F77616E63652062656C6F77 PUSH1 0x0 DUP3 ADD MSTORE PUSH32 0x207A65726F000000000000000000000000000000000000000000000000000000 PUSH1 0x20 DUP3 ADD MSTORE POP JUMP JUMPDEST PUSH2 0x4407 DUP2 PUSH2 0x3DB7 JUMP JUMPDEST DUP2 EQ PUSH2 0x4412 JUMPI PUSH1 0x0 DUP1 REVERT JUMPDEST POP JUMP JUMPDEST PUSH2 0x441E DUP2 PUSH2 0x3DDB JUMP JUMPDEST DUP2 EQ PUSH2 0x4429 JUMPI PUSH1 0x0 DUP1 REVERT JUMPDEST POP JUMP JUMPDEST PUSH2 0x4435 DUP2 PUSH2 0x3E07 JUMP JUMPDEST DUP2 EQ PUSH2 0x4440 JUMPI PUSH1 0x0 DUP1 REVERT JUMPDEST POP JUMP INVALID LOG2 PUSH5 0x6970667358 0x22 SLT KECCAK256 PUSH4 0x1762F115 0xE3 PUSH25 0x9994FEE194A63097C5F0942D962451FA7CEFE70C2FA1A430A5 PUSH5 0x736F6C6343 STOP ADDMOD DIV STOP CALLER "
        },
        "methodIdentifiers": {
          "_itemIds()": "34a7f193",
          "admin()": "f851a440",
          "allowance(address,address)": "dd62ed3e",
          "approve(address,uint256)": "095ea7b3",
          "balanceOf(address)": "70a08231",
          "burnHere()": "27f2ac6c",
          "calculateNetInterestValue(uint256,uint256)": "79a0c073",
          "chanceOfUserToBeWinner()": "5d0dd51a",
          "decimals()": "313ce567",
          "decreaseAllowance(address,uint256)": "a457c2d7",
          "deposit(uint256)": "b6b55f25",
          "distributePrizeMoney()": "d0342d65",
          "duration()": "0fb5a6b4",
          "forceWithdraw(uint256)": "0fcc56f7",
          "getAdmin()": "6e9960c3",
          "getMyAccumulatedInterest()": "98c98cad",
          "getMyTotalDeposits()": "e2a5cd2c",
          "getPrizeMoney()": "0737c24b",
          "increaseAllowance(address,uint256)": "39509351",
          "initialize()": "8129fc1c",
          "lastLotteryRoundWinners(uint256)": "b8033d76",
          "name()": "06fdde03",
          "netClaimableAmount()": "6d9e1cc2",
          "netLockedAmount()": "1930b13a",
          "owner()": "8da5cb5b",
          "playerData(uint256)": "0aec4ed1",
          "redeemClaimable()": "d357d0ba",
          "renounceOwnership()": "715018a6",
          "setWinners(address)": "0dee1929",
          "startLottery(uint256)": "c6bec93a",
          "symbol()": "95d89b41",
          "total()": "2ddbd13a",
          "totalSupply()": "18160ddd",
          "transfer(address,uint256)": "a9059cbb",
          "transferFrom(address,address,uint256)": "23b872dd",
          "transferOwnership(address)": "f2fde38b",
          "winners(uint256)": "a2fb1175",
          "withdraw(uint256)": "2e1a7d4d"
        }
      },
      "storageLayout": {
        "storage": [
          {
            "astId": 130,
            "contract": "contracts/POGPlay.sol:POGPlay",
            "label": "_initialized",
            "offset": 0,
            "slot": "0",
            "type": "t_uint8"
          },
          {
            "astId": 133,
            "contract": "contracts/POGPlay.sol:POGPlay",
            "label": "_initializing",
            "offset": 1,
            "slot": "0",
            "type": "t_bool"
          },
          {
            "astId": 1263,
            "contract": "contracts/POGPlay.sol:POGPlay",
            "label": "__gap",
            "offset": 0,
            "slot": "1",
            "type": "t_array(t_uint256)50_storage"
          },
          {
            "astId": 284,
            "contract": "contracts/POGPlay.sol:POGPlay",
            "label": "_balances",
            "offset": 0,
            "slot": "51",
            "type": "t_mapping(t_address,t_uint256)"
          },
          {
            "astId": 290,
            "contract": "contracts/POGPlay.sol:POGPlay",
            "label": "_allowances",
            "offset": 0,
            "slot": "52",
            "type": "t_mapping(t_address,t_mapping(t_address,t_uint256))"
          },
          {
            "astId": 292,
            "contract": "contracts/POGPlay.sol:POGPlay",
            "label": "_totalSupply",
            "offset": 0,
            "slot": "53",
            "type": "t_uint256"
          },
          {
            "astId": 294,
            "contract": "contracts/POGPlay.sol:POGPlay",
            "label": "_name",
            "offset": 0,
            "slot": "54",
            "type": "t_string_storage"
          },
          {
            "astId": 296,
            "contract": "contracts/POGPlay.sol:POGPlay",
            "label": "_symbol",
            "offset": 0,
            "slot": "55",
            "type": "t_string_storage"
          },
          {
            "astId": 875,
            "contract": "contracts/POGPlay.sol:POGPlay",
            "label": "__gap",
            "offset": 0,
            "slot": "56",
            "type": "t_array(t_uint256)45_storage"
          },
          {
            "astId": 10,
            "contract": "contracts/POGPlay.sol:POGPlay",
            "label": "_owner",
            "offset": 0,
            "slot": "101",
            "type": "t_address"
          },
          {
            "astId": 122,
            "contract": "contracts/POGPlay.sol:POGPlay",
            "label": "__gap",
            "offset": 0,
            "slot": "102",
            "type": "t_array(t_uint256)49_storage"
          },
          {
            "astId": 1358,
            "contract": "contracts/POGPlay.sol:POGPlay",
            "label": "_itemIds",
            "offset": 0,
            "slot": "151",
            "type": "t_struct(Counter)1270_storage"
          },
          {
            "astId": 1361,
            "contract": "contracts/POGPlay.sol:POGPlay",
            "label": "winners",
            "offset": 0,
            "slot": "152",
            "type": "t_array(t_address)dyn_storage"
          },
          {
            "astId": 1364,
            "contract": "contracts/POGPlay.sol:POGPlay",
            "label": "lastLotteryRoundWinners",
            "offset": 0,
            "slot": "153",
            "type": "t_array(t_address)dyn_storage"
          },
          {
            "astId": 1366,
            "contract": "contracts/POGPlay.sol:POGPlay",
            "label": "admin",
            "offset": 0,
            "slot": "154",
            "type": "t_address_payable"
          },
          {
            "astId": 1368,
            "contract": "contracts/POGPlay.sol:POGPlay",
            "label": "startKey",
            "offset": 0,
            "slot": "155",
            "type": "t_uint256"
          },
          {
            "astId": 1373,
            "contract": "contracts/POGPlay.sol:POGPlay",
            "label": "total",
            "offset": 0,
            "slot": "156",
            "type": "t_uint256"
          },
          {
            "astId": 1375,
            "contract": "contracts/POGPlay.sol:POGPlay",
            "label": "evoTokenAddress",
            "offset": 0,
            "slot": "157",
            "type": "t_address"
          },
          {
            "astId": 1380,
            "contract": "contracts/POGPlay.sol:POGPlay",
            "label": "playerData",
            "offset": 0,
            "slot": "158",
            "type": "t_mapping(t_uint256,t_struct(PlayersGravity)1395_storage)"
          }
        ],
        "types": {
          "t_address": {
            "encoding": "inplace",
            "label": "address",
            "numberOfBytes": "20"
          },
          "t_address_payable": {
            "encoding": "inplace",
            "label": "address payable",
            "numberOfBytes": "20"
          },
          "t_array(t_address)dyn_storage": {
            "base": "t_address",
            "encoding": "dynamic_array",
            "label": "address[]",
            "numberOfBytes": "32"
          },
          "t_array(t_uint256)45_storage": {
            "base": "t_uint256",
            "encoding": "inplace",
            "label": "uint256[45]",
            "numberOfBytes": "1440"
          },
          "t_array(t_uint256)49_storage": {
            "base": "t_uint256",
            "encoding": "inplace",
            "label": "uint256[49]",
            "numberOfBytes": "1568"
          },
          "t_array(t_uint256)50_storage": {
            "base": "t_uint256",
            "encoding": "inplace",
            "label": "uint256[50]",
            "numberOfBytes": "1600"
          },
          "t_bool": {
            "encoding": "inplace",
            "label": "bool",
            "numberOfBytes": "1"
          },
          "t_mapping(t_address,t_mapping(t_address,t_uint256))": {
            "encoding": "mapping",
            "key": "t_address",
            "label": "mapping(address => mapping(address => uint256))",
            "numberOfBytes": "32",
            "value": "t_mapping(t_address,t_uint256)"
          },
          "t_mapping(t_address,t_uint256)": {
            "encoding": "mapping",
            "key": "t_address",
            "label": "mapping(address => uint256)",
            "numberOfBytes": "32",
            "value": "t_uint256"
          },
          "t_mapping(t_uint256,t_struct(PlayersGravity)1395_storage)": {
            "encoding": "mapping",
            "key": "t_uint256",
            "label": "mapping(uint256 => struct POGPlay.PlayersGravity)",
            "numberOfBytes": "32",
            "value": "t_struct(PlayersGravity)1395_storage"
          },
          "t_string_storage": {
            "encoding": "bytes",
            "label": "string",
            "numberOfBytes": "32"
          },
          "t_struct(Counter)1270_storage": {
            "encoding": "inplace",
            "label": "struct Counters.Counter",
            "members": [
              {
                "astId": 1269,
                "contract": "contracts/POGPlay.sol:POGPlay",
                "label": "_value",
                "offset": 0,
                "slot": "0",
                "type": "t_uint256"
              }
            ],
            "numberOfBytes": "32"
          },
          "t_struct(PlayersGravity)1395_storage": {
            "encoding": "inplace",
            "label": "struct POGPlay.PlayersGravity",
            "members": [
              {
                "astId": 1382,
                "contract": "contracts/POGPlay.sol:POGPlay",
                "label": "tokenNumber",
                "offset": 0,
                "slot": "0",
                "type": "t_uint256"
              },
              {
                "astId": 1384,
                "contract": "contracts/POGPlay.sol:POGPlay",
                "label": "playerAddress",
                "offset": 0,
                "slot": "1",
                "type": "t_address"
              },
              {
                "astId": 1386,
                "contract": "contracts/POGPlay.sol:POGPlay",
                "label": "startNumber",
                "offset": 0,
                "slot": "2",
                "type": "t_uint256"
              },
              {
                "astId": 1388,
                "contract": "contracts/POGPlay.sol:POGPlay",
                "label": "endNumber",
                "offset": 0,
                "slot": "3",
                "type": "t_uint256"
              },
              {
                "astId": 1390,
                "contract": "contracts/POGPlay.sol:POGPlay",
                "label": "amount",
                "offset": 0,
                "slot": "4",
                "type": "t_uint256"
              },
              {
                "astId": 1392,
                "contract": "contracts/POGPlay.sol:POGPlay",
                "label": "startTime",
                "offset": 0,
                "slot": "5",
                "type": "t_uint256"
              },
              {
                "astId": 1394,
                "contract": "contracts/POGPlay.sol:POGPlay",
                "label": "end",
                "offset": 0,
                "slot": "6",
                "type": "t_uint256"
              }
            ],
            "numberOfBytes": "224"
          },
          "t_uint256": {
            "encoding": "inplace",
            "label": "uint256",
            "numberOfBytes": "32"
          },
          "t_uint8": {
            "encoding": "inplace",
            "label": "uint8",
            "numberOfBytes": "1"
          }
        }
      }
    }
  }
}