{
  "_format": "hh-sol-artifact-1",
  "contractName": "POGPlay",
  "sourceName": "contracts/POGPlay.sol",
  "abi": [
    {
      "anonymous": false,
      "inputs": [
        {
          "indexed": true,
          "internalType": "address",
          "name": "owner",
          "type": "address"
        },
        {
          "indexed": true,
          "internalType": "address",
          "name": "spender",
          "type": "address"
        },
        {
          "indexed": false,
          "internalType": "uint256",
          "name": "value",
          "type": "uint256"
        }
      ],
      "name": "Approval",
      "type": "event"
    },
    {
      "anonymous": false,
      "inputs": [
        {
          "indexed": false,
          "internalType": "uint8",
          "name": "version",
          "type": "uint8"
        }
      ],
      "name": "Initialized",
      "type": "event"
    },
    {
      "anonymous": false,
      "inputs": [
        {
          "indexed": true,
          "internalType": "address",
          "name": "previousOwner",
          "type": "address"
        },
        {
          "indexed": true,
          "internalType": "address",
          "name": "newOwner",
          "type": "address"
        }
      ],
      "name": "OwnershipTransferred",
      "type": "event"
    },
    {
      "anonymous": false,
      "inputs": [
        {
          "indexed": true,
          "internalType": "address",
          "name": "from",
          "type": "address"
        },
        {
          "indexed": true,
          "internalType": "address",
          "name": "to",
          "type": "address"
        },
        {
          "indexed": false,
          "internalType": "uint256",
          "name": "value",
          "type": "uint256"
        }
      ],
      "name": "Transfer",
      "type": "event"
    },
    {
      "inputs": [],
      "name": "_itemIds",
      "outputs": [
        {
          "internalType": "uint256",
          "name": "_value",
          "type": "uint256"
        }
      ],
      "stateMutability": "view",
      "type": "function"
    },
    {
      "inputs": [],
      "name": "admin",
      "outputs": [
        {
          "internalType": "address payable",
          "name": "",
          "type": "address"
        }
      ],
      "stateMutability": "view",
      "type": "function"
    },
    {
      "inputs": [
        {
          "internalType": "address",
          "name": "owner",
          "type": "address"
        },
        {
          "internalType": "address",
          "name": "spender",
          "type": "address"
        }
      ],
      "name": "allowance",
      "outputs": [
        {
          "internalType": "uint256",
          "name": "",
          "type": "uint256"
        }
      ],
      "stateMutability": "view",
      "type": "function"
    },
    {
      "inputs": [
        {
          "internalType": "address",
          "name": "spender",
          "type": "address"
        },
        {
          "internalType": "uint256",
          "name": "amount",
          "type": "uint256"
        }
      ],
      "name": "approve",
      "outputs": [
        {
          "internalType": "bool",
          "name": "",
          "type": "bool"
        }
      ],
      "stateMutability": "nonpayable",
      "type": "function"
    },
    {
      "inputs": [
        {
          "internalType": "address",
          "name": "account",
          "type": "address"
        }
      ],
      "name": "balanceOf",
      "outputs": [
        {
          "internalType": "uint256",
          "name": "",
          "type": "uint256"
        }
      ],
      "stateMutability": "view",
      "type": "function"
    },
    {
      "inputs": [],
      "name": "burnHere",
      "outputs": [
        {
          "internalType": "uint256",
          "name": "",
          "type": "uint256"
        }
      ],
      "stateMutability": "payable",
      "type": "function"
    },
    {
      "inputs": [
        {
          "internalType": "uint256",
          "name": "principal",
          "type": "uint256"
        },
        {
          "internalType": "uint256",
          "name": "noOfDaysPassed",
          "type": "uint256"
        }
      ],
      "name": "calculateNetInterestValue",
      "outputs": [
        {
          "internalType": "uint256",
          "name": "",
          "type": "uint256"
        }
      ],
      "stateMutability": "pure",
      "type": "function"
    },
    {
      "inputs": [],
      "name": "chanceOfUserToBeWinner",
      "outputs": [
        {
          "internalType": "uint256",
          "name": "",
          "type": "uint256"
        }
      ],
      "stateMutability": "view",
      "type": "function"
    },
    {
      "inputs": [],
      "name": "decimals",
      "outputs": [
        {
          "internalType": "uint8",
          "name": "",
          "type": "uint8"
        }
      ],
      "stateMutability": "view",
      "type": "function"
    },
    {
      "inputs": [
        {
          "internalType": "address",
          "name": "spender",
          "type": "address"
        },
        {
          "internalType": "uint256",
          "name": "subtractedValue",
          "type": "uint256"
        }
      ],
      "name": "decreaseAllowance",
      "outputs": [
        {
          "internalType": "bool",
          "name": "",
          "type": "bool"
        }
      ],
      "stateMutability": "nonpayable",
      "type": "function"
    },
    {
      "inputs": [
        {
          "internalType": "uint256",
          "name": "amount",
          "type": "uint256"
        }
      ],
      "name": "deposit",
      "outputs": [
        {
          "internalType": "uint256",
          "name": "",
          "type": "uint256"
        }
      ],
      "stateMutability": "payable",
      "type": "function"
    },
    {
      "inputs": [],
      "name": "distributePrizeMoney",
      "outputs": [],
      "stateMutability": "payable",
      "type": "function"
    },
    {
      "inputs": [],
      "name": "duration",
      "outputs": [
        {
          "internalType": "uint256",
          "name": "",
          "type": "uint256"
        }
      ],
      "stateMutability": "view",
      "type": "function"
    },
    {
      "inputs": [
        {
          "internalType": "uint256",
          "name": "userAmount",
          "type": "uint256"
        }
      ],
      "name": "forceWithdraw",
      "outputs": [],
      "stateMutability": "payable",
      "type": "function"
    },
    {
      "inputs": [],
      "name": "getAdmin",
      "outputs": [
        {
          "internalType": "address payable",
          "name": "",
          "type": "address"
        }
      ],
      "stateMutability": "view",
      "type": "function"
    },
    {
      "inputs": [],
      "name": "getMyAccumulatedInterest",
      "outputs": [
        {
          "internalType": "uint256",
          "name": "",
          "type": "uint256"
        }
      ],
      "stateMutability": "view",
      "type": "function"
    },
    {
      "inputs": [],
      "name": "getMyTotalDeposits",
      "outputs": [
        {
          "internalType": "uint256",
          "name": "",
          "type": "uint256"
        }
      ],
      "stateMutability": "view",
      "type": "function"
    },
    {
      "inputs": [],
      "name": "getPrizeMoney",
      "outputs": [
        {
          "internalType": "uint256",
          "name": "",
          "type": "uint256"
        }
      ],
      "stateMutability": "view",
      "type": "function"
    },
    {
      "inputs": [
        {
          "internalType": "address",
          "name": "spender",
          "type": "address"
        },
        {
          "internalType": "uint256",
          "name": "addedValue",
          "type": "uint256"
        }
      ],
      "name": "increaseAllowance",
      "outputs": [
        {
          "internalType": "bool",
          "name": "",
          "type": "bool"
        }
      ],
      "stateMutability": "nonpayable",
      "type": "function"
    },
    {
      "inputs": [],
      "name": "initialize",
      "outputs": [],
      "stateMutability": "nonpayable",
      "type": "function"
    },
    {
      "inputs": [
        {
          "internalType": "uint256",
          "name": "",
          "type": "uint256"
        }
      ],
      "name": "lastLotteryRoundWinners",
      "outputs": [
        {
          "internalType": "address",
          "name": "",
          "type": "address"
        }
      ],
      "stateMutability": "view",
      "type": "function"
    },
    {
      "inputs": [],
      "name": "name",
      "outputs": [
        {
          "internalType": "string",
          "name": "",
          "type": "string"
        }
      ],
      "stateMutability": "view",
      "type": "function"
    },
    {
      "inputs": [],
      "name": "netClaimableAmount",
      "outputs": [
        {
          "internalType": "uint256",
          "name": "",
          "type": "uint256"
        }
      ],
      "stateMutability": "view",
      "type": "function"
    },
    {
      "inputs": [],
      "name": "netLockedAmount",
      "outputs": [
        {
          "internalType": "uint256",
          "name": "",
          "type": "uint256"
        }
      ],
      "stateMutability": "view",
      "type": "function"
    },
    {
      "inputs": [],
      "name": "noOfWinners",
      "outputs": [
        {
          "internalType": "uint256",
          "name": "",
          "type": "uint256"
        }
      ],
      "stateMutability": "view",
      "type": "function"
    },
    {
      "inputs": [],
      "name": "owner",
      "outputs": [
        {
          "internalType": "address",
          "name": "",
          "type": "address"
        }
      ],
      "stateMutability": "view",
      "type": "function"
    },
    {
      "inputs": [
        {
          "internalType": "uint256",
          "name": "",
          "type": "uint256"
        }
      ],
      "name": "playerData",
      "outputs": [
        {
          "internalType": "uint256",
          "name": "tokenNumber",
          "type": "uint256"
        },
        {
          "internalType": "address",
          "name": "playerAddress",
          "type": "address"
        },
        {
          "internalType": "uint256",
          "name": "startNumber",
          "type": "uint256"
        },
        {
          "internalType": "uint256",
          "name": "endNumber",
          "type": "uint256"
        },
        {
          "internalType": "uint256",
          "name": "amount",
          "type": "uint256"
        },
        {
          "internalType": "uint256",
          "name": "startTime",
          "type": "uint256"
        },
        {
          "internalType": "uint256",
          "name": "end",
          "type": "uint256"
        }
      ],
      "stateMutability": "view",
      "type": "function"
    },
    {
      "inputs": [],
      "name": "redeemClaimable",
      "outputs": [],
      "stateMutability": "payable",
      "type": "function"
    },
    {
      "inputs": [],
      "name": "renounceOwnership",
      "outputs": [],
      "stateMutability": "nonpayable",
      "type": "function"
    },
    {
      "inputs": [
        {
          "internalType": "uint256",
          "name": "_noOfWinners",
          "type": "uint256"
        }
      ],
      "name": "setNoOfWinners",
      "outputs": [],
      "stateMutability": "nonpayable",
      "type": "function"
    },
    {
      "inputs": [
        {
          "internalType": "address",
          "name": "addr",
          "type": "address"
        }
      ],
      "name": "setWinners",
      "outputs": [],
      "stateMutability": "nonpayable",
      "type": "function"
    },
    {
      "inputs": [],
      "name": "startLottery",
      "outputs": [],
      "stateMutability": "payable",
      "type": "function"
    },
    {
      "inputs": [],
      "name": "symbol",
      "outputs": [
        {
          "internalType": "string",
          "name": "",
          "type": "string"
        }
      ],
      "stateMutability": "view",
      "type": "function"
    },
    {
      "inputs": [],
      "name": "total",
      "outputs": [
        {
          "internalType": "uint256",
          "name": "",
          "type": "uint256"
        }
      ],
      "stateMutability": "view",
      "type": "function"
    },
    {
      "inputs": [],
      "name": "totalSupply",
      "outputs": [
        {
          "internalType": "uint256",
          "name": "",
          "type": "uint256"
        }
      ],
      "stateMutability": "view",
      "type": "function"
    },
    {
      "inputs": [
        {
          "internalType": "address",
          "name": "to",
          "type": "address"
        },
        {
          "internalType": "uint256",
          "name": "amount",
          "type": "uint256"
        }
      ],
      "name": "transfer",
      "outputs": [
        {
          "internalType": "bool",
          "name": "",
          "type": "bool"
        }
      ],
      "stateMutability": "nonpayable",
      "type": "function"
    },
    {
      "inputs": [
        {
          "internalType": "address",
          "name": "from",
          "type": "address"
        },
        {
          "internalType": "address",
          "name": "to",
          "type": "address"
        },
        {
          "internalType": "uint256",
          "name": "amount",
          "type": "uint256"
        }
      ],
      "name": "transferFrom",
      "outputs": [
        {
          "internalType": "bool",
          "name": "",
          "type": "bool"
        }
      ],
      "stateMutability": "nonpayable",
      "type": "function"
    },
    {
      "inputs": [
        {
          "internalType": "address",
          "name": "newOwner",
          "type": "address"
        }
      ],
      "name": "transferOwnership",
      "outputs": [],
      "stateMutability": "nonpayable",
      "type": "function"
    },
    {
      "inputs": [
        {
          "internalType": "uint256",
          "name": "",
          "type": "uint256"
        }
      ],
      "name": "winners",
      "outputs": [
        {
          "internalType": "address",
          "name": "",
          "type": "address"
        }
      ],
      "stateMutability": "view",
      "type": "function"
    },
    {
      "inputs": [
        {
          "internalType": "uint256",
          "name": "amount",
          "type": "uint256"
        }
      ],
      "name": "withdraw",
      "outputs": [],
      "stateMutability": "nonpayable",
      "type": "function"
    }
  ],
  "bytecode": "0x608060405234801561001057600080fd5b50614593806100206000396000f3fe60806040526004361061023b5760003560e01c80636e9960c31161012e578063a457c2d7116100ab578063d357d0ba1161006f578063d357d0ba14610854578063dd62ed3e1461085e578063e2a5cd2c1461089b578063f2fde38b146108c6578063f851a440146108ef5761023b565b8063a457c2d714610763578063a9059cbb146107a0578063b6b55f25146107dd578063b8033d761461080d578063d0342d651461084a5761023b565b80638da5cb5b116100f25780638da5cb5b1461067c57806395d89b41146106a7578063988276e2146106d257806398c98cad146106fb578063a2fb1175146107265761023b565b80636e9960c3146105a957806370a08231146105d4578063715018a61461061157806379a0c073146106285780638129fc1c146106655761023b565b806323b872dd116101bc57806334a7f1931161018057806334a7f193146104c057806339509351146104eb578063518da0a4146105285780635d0dd51a146105535780636d9e1cc21461057e5761023b565b806323b872dd146103e657806327f2ac6c146104235780632ddbd13a146104415780632e1a7d4d1461046c578063313ce567146104955761023b565b80630fb5a6b4116102035780630fb5a6b41461033f5780630fcc56f71461036a578063160344e21461038657806318160ddd146103905780631930b13a146103bb5761023b565b806306fdde03146102405780630737c24b1461026b578063095ea7b3146102965780630aec4ed1146102d35780630dee192914610316575b600080fd5b34801561024c57600080fd5b5061025561091a565b6040516102629190613b19565b60405180910390f35b34801561027757600080fd5b506102806109ac565b60405161028d9190613cfb565b60405180910390f35b3480156102a257600080fd5b506102bd60048036038101906102b89190613629565b610ab0565b6040516102ca9190613ae3565b60405180910390f35b3480156102df57600080fd5b506102fa60048036038101906102f5919061368e565b610ad3565b60405161030d9796959493929190613d16565b60405180910390f35b34801561032257600080fd5b5061033d60048036038101906103389190613575565b610b35565b005b34801561034b57600080fd5b50610354610c17565b6040516103619190613cfb565b60405180910390f35b610384600480360381019061037f919061368e565b610c1e565b005b61038e611059565b005b34801561039c57600080fd5b506103a5611373565b6040516103b29190613cfb565b60405180910390f35b3480156103c757600080fd5b506103d061137d565b6040516103dd9190613cfb565b60405180910390f35b3480156103f257600080fd5b5061040d600480360381019061040891906135da565b611488565b60405161041a9190613ae3565b60405180910390f35b61042b6114b7565b6040516104389190613cfb565b60405180910390f35b34801561044d57600080fd5b506104566116e9565b6040516104639190613cfb565b60405180910390f35b34801561047857600080fd5b50610493600480360381019061048e919061368e565b6116ef565b005b3480156104a157600080fd5b506104aa61192d565b6040516104b79190613d85565b60405180910390f35b3480156104cc57600080fd5b506104d5611936565b6040516104e29190613cfb565b60405180910390f35b3480156104f757600080fd5b50610512600480360381019061050d9190613629565b611942565b60405161051f9190613ae3565b60405180910390f35b34801561053457600080fd5b5061053d611979565b60405161054a9190613cfb565b60405180910390f35b34801561055f57600080fd5b5061056861197f565b6040516105759190613cfb565b60405180910390f35b34801561058a57600080fd5b506105936119d4565b6040516105a09190613cfb565b60405180910390f35b3480156105b557600080fd5b506105be611ae0565b6040516105cb9190613a3f565b60405180910390f35b3480156105e057600080fd5b506105fb60048036038101906105f69190613575565b611b0a565b6040516106089190613cfb565b60405180910390f35b34801561061d57600080fd5b50610626611b53565b005b34801561063457600080fd5b5061064f600480360381019061064a91906136e0565b611bdb565b60405161065c9190613cfb565b60405180910390f35b34801561067157600080fd5b5061067a611c46565b005b34801561068857600080fd5b50610691611da7565b60405161069e9190613a24565b60405180910390f35b3480156106b357600080fd5b506106bc611dd1565b6040516106c99190613b19565b60405180910390f35b3480156106de57600080fd5b506106f960048036038101906106f4919061368e565b611e63565b005b34801561070757600080fd5b50610710611ee9565b60405161071d9190613cfb565b60405180910390f35b34801561073257600080fd5b5061074d6004803603810190610748919061368e565b612069565b60405161075a9190613a24565b60405180910390f35b34801561076f57600080fd5b5061078a60048036038101906107859190613629565b6120a8565b6040516107979190613ae3565b60405180910390f35b3480156107ac57600080fd5b506107c760048036038101906107c29190613629565b61211f565b6040516107d49190613ae3565b60405180910390f35b6107f760048036038101906107f2919061368e565b612142565b6040516108049190613cfb565b60405180910390f35b34801561081957600080fd5b50610834600480360381019061082f919061368e565b612355565b6040516108419190613a24565b60405180910390f35b610852612394565b005b61085c61265a565b005b34801561086a57600080fd5b506108856004803603810190610880919061359e565b6128a6565b6040516108929190613cfb565b60405180910390f35b3480156108a757600080fd5b506108b061292d565b6040516108bd9190613cfb565b60405180910390f35b3480156108d257600080fd5b506108ed60048036038101906108e89190613575565b612a10565b005b3480156108fb57600080fd5b50610904612b08565b6040516109119190613a3f565b60405180910390f35b60606036805461092990613fb3565b80601f016020809104026020016040519081016040528092919081815260200182805461095590613fb3565b80156109a25780601f10610977576101008083540402835291602001916109a2565b820191906000526020600020905b81548152906001019060200180831161098557829003601f168201915b5050505050905090565b6000806109b96097612b2e565b90506000805b82811015610aa757600062015180609f60006001856109de9190613dbc565b815260200190815260200160002060050154426109fb9190613e9d565b610a059190613e12565b90506000609f6000600185610a1a9190613dbc565b81526020019081526020016000206004015490506000805b83811015610a82576103e8600384610a4a9190613e43565b610a549190613e12565b82610a5f9190613dbc565b91508183610a6d9190613dbc565b92508080610a7a90613fe5565b915050610a32565b508085610a8f9190613dbc565b94505050508080610a9f90613fe5565b9150506109bf565b50809250505090565b600080610abb612b3c565b9050610ac8818585612b44565b600191505092915050565b609f6020528060005260406000206000915090508060000154908060010160009054906101000a900473ffffffffffffffffffffffffffffffffffffffff16908060020154908060030154908060040154908060050154908060060154905087565b610b3d612b3c565b73ffffffffffffffffffffffffffffffffffffffff16610b5b611da7565b73ffffffffffffffffffffffffffffffffffffffff1614610bb1576040517f08c379a0000000000000000000000000000000000000000000000000000000008152600401610ba890613c3b565b60405180910390fd5b6098819080600181540180825580915050600190039060005260206000200160009091909190916101000a81548173ffffffffffffffffffffffffffffffffffffffff021916908373ffffffffffffffffffffffffffffffffffffffff16021790555050565b6212750081565b60008111610c61576040517f08c379a0000000000000000000000000000000000000000000000000000000008152600401610c5890613bdb565b60405180910390fd5b610c6961137d565b811115610cab576040517f08c379a0000000000000000000000000000000000000000000000000000000008152600401610ca290613c1b565b60405180910390fd5b6000610cb76097612b2e565b9050600082905060005b82811015611053573373ffffffffffffffffffffffffffffffffffffffff16609f6000600184610cf19190613dbc565b815260200190815260200160002060010160009054906101000a900473ffffffffffffffffffffffffffffffffffffffff1673ffffffffffffffffffffffffffffffffffffffff16148015610d675750609f6000600183610d529190613dbc565b81526020019081526020016000206006015442105b1561104057600062015180609f6000600185610d839190613dbc565b81526020019081526020016000206005015442610da09190613e9d565b610daa9190613e12565b90506000816002610dbb9190613e43565b601c610dc79190613e9d565b9050600060648286610dd99190613e43565b610de39190613e12565b905060008186610df39190613e9d565b905085609f6000600188610e079190613dbc565b8152602001908152602001600020600401541115610f1157609d60009054906101000a900473ffffffffffffffffffffffffffffffffffffffff1673ffffffffffffffffffffffffffffffffffffffff1663a9059cbb33836040518363ffffffff1660e01b8152600401610e7c929190613a5a565b602060405180830381600087803b158015610e9657600080fd5b505af1158015610eaa573d6000803e3d6000fd5b505050506040513d601f19601f82011682018060405250810190610ece9190613665565b5080609f6000600188610ee19190613dbc565b81526020019081526020016000206004016000828254610f019190613e9d565b9250508190555050505050611053565b609d60009054906101000a900473ffffffffffffffffffffffffffffffffffffffff1673ffffffffffffffffffffffffffffffffffffffff1663a9059cbb33609f600060018a610f619190613dbc565b8152602001908152602001600020600401546040518363ffffffff1660e01b8152600401610f90929190613a5a565b602060405180830381600087803b158015610faa57600080fd5b505af1158015610fbe573d6000803e3d6000fd5b505050506040513d601f19601f82011682018060405250810190610fe29190613665565b506000609f6000600188610ff69190613dbc565b815260200190815260200160002060040181905550609f600060018761101c9190613dbc565b815260200190815260200160002060040154866110399190613e9d565b9550505050505b808061104b90613fe5565b915050610cc1565b50505050565b611061612b3c565b73ffffffffffffffffffffffffffffffffffffffff1661107f611da7565b73ffffffffffffffffffffffffffffffffffffffff16146110d5576040517f08c379a00000000000000000000000000000000000000000000000000000000081526004016110cc90613c3b565b60405180910390fd5b60005b609e5481101561134757609e546098805490501461132f5760006110fa612d0f565b90506000609c548261110c919061405c565b9050600061111a6097612b2e565b905060005b8181101561132657609f60006001836111389190613dbc565b815260200190815260200160002060030154831015611313576000805b60988054905081101561125857609f60006001856111739190613dbc565b815260200190815260200160002060010160009054906101000a900473ffffffffffffffffffffffffffffffffffffffff1673ffffffffffffffffffffffffffffffffffffffff16609882815481106111f5577f4e487b7100000000000000000000000000000000000000000000000000000000600052603260045260246000fd5b9060005260206000200160009054906101000a900473ffffffffffffffffffffffffffffffffffffffff1673ffffffffffffffffffffffffffffffffffffffff1614156112455760019150611258565b808061125090613fe5565b915050611155565b50600015158115151415611311576098609f60006001856112799190613dbc565b815260200190815260200160002060010160009054906101000a900473ffffffffffffffffffffffffffffffffffffffff169080600181540180825580915050600190039060005260206000200160009091909190916101000a81548173ffffffffffffffffffffffffffffffffffffffff021916908373ffffffffffffffffffffffffffffffffffffffff16021790555050611326565b505b808061131e90613fe5565b91505061111f565b50505050611334565b611347565b808061133f90613fe5565b9150506110d8565b50611350612394565b6098609990805461136292919061340b565b5060986000611371919061345d565b565b6000603554905090565b60008061138a6097612b2e565b90506000805b8281101561147f573373ffffffffffffffffffffffffffffffffffffffff16609f60006001846113c09190613dbc565b815260200190815260200160002060010160009054906101000a900473ffffffffffffffffffffffffffffffffffffffff1673ffffffffffffffffffffffffffffffffffffffff161480156114365750609f60006001836114219190613dbc565b81526020019081526020016000206006015442105b1561146c57609f600060018361144c9190613dbc565b815260200190815260200160002060040154826114699190613dbc565b91505b808061147790613fe5565b915050611390565b50809250505090565b600080611493612b3c565b90506114a0858285612d6a565b6114ab858585612df6565b60019150509392505050565b60006114c1612b3c565b73ffffffffffffffffffffffffffffffffffffffff166114df611da7565b73ffffffffffffffffffffffffffffffffffffffff1614611535576040517f08c379a000000000000000000000000000000000000000000000000000000000815260040161152c90613c3b565b60405180910390fd5b60006115416097612b2e565b90506000805b8281101561162f57600062015180609f60006001856115669190613dbc565b815260200190815260200160002060050154426115839190613e9d565b61158d9190613e12565b90506000609f60006001856115a29190613dbc565b81526020019081526020016000206004015490506000805b8381101561160a576103e86002846115d29190613e43565b6115dc9190613e12565b826115e79190613dbc565b915081836115f59190613dbc565b9250848061160290613fe5565b9550506115ba565b5080856116179190613dbc565b9450505050808061162790613fe5565b915050611547565b50609d60009054906101000a900473ffffffffffffffffffffffffffffffffffffffff1673ffffffffffffffffffffffffffffffffffffffff1663a9059cbb6000836040518363ffffffff1660e01b815260040161168e929190613aba565b602060405180830381600087803b1580156116a857600080fd5b505af11580156116bc573d6000803e3d6000fd5b505050506040513d601f19601f820116820180604052508101906116e09190613665565b50809250505090565b609c5481565b6116f7612b3c565b73ffffffffffffffffffffffffffffffffffffffff16611715611da7565b73ffffffffffffffffffffffffffffffffffffffff161461176b576040517f08c379a000000000000000000000000000000000000000000000000000000000815260040161176290613c3b565b60405180910390fd5b609d60009054906101000a900473ffffffffffffffffffffffffffffffffffffffff1673ffffffffffffffffffffffffffffffffffffffff166370a08231306040518263ffffffff1660e01b81526004016117c69190613a24565b60206040518083038186803b1580156117de57600080fd5b505afa1580156117f2573d6000803e3d6000fd5b505050506040513d601f19601f8201168201806040525081019061181691906136b7565b811115611858576040517f08c379a000000000000000000000000000000000000000000000000000000000815260040161184f90613c5b565b60405180910390fd5b609d60009054906101000a900473ffffffffffffffffffffffffffffffffffffffff1673ffffffffffffffffffffffffffffffffffffffff1663a9059cbb609a60009054906101000a900473ffffffffffffffffffffffffffffffffffffffff16836040518363ffffffff1660e01b81526004016118d7929190613a5a565b602060405180830381600087803b1580156118f157600080fd5b505af1158015611905573d6000803e3d6000fd5b505050506040513d601f19601f820116820180604052508101906119299190613665565b5050565b60006012905090565b60978060000154905081565b60008061194d612b3c565b905061196e81858561195f85896128a6565b6119699190613dbc565b612b44565b600191505092915050565b609e5481565b60008061198a61292d565b90506000600190506000609c54146119b957609c546064836119ac9190613e43565b6119b69190613e12565b90505b670de0b6b3a7640000816119cd9190613e43565b9250505090565b6000806119e16097612b2e565b90506000805b82811015611ad7573373ffffffffffffffffffffffffffffffffffffffff16609f6000600184611a179190613dbc565b815260200190815260200160002060010160009054906101000a900473ffffffffffffffffffffffffffffffffffffffff1673ffffffffffffffffffffffffffffffffffffffff16148015611a8e5750609f6000600183611a789190613dbc565b8152602001908152602001600020600601544210155b15611ac457609f6000600183611aa49190613dbc565b81526020019081526020016000206004015482611ac19190613dbc565b91505b8080611acf90613fe5565b9150506119e7565b50809250505090565b6000609a60009054906101000a900473ffffffffffffffffffffffffffffffffffffffff16905090565b6000603360008373ffffffffffffffffffffffffffffffffffffffff1673ffffffffffffffffffffffffffffffffffffffff168152602001908152602001600020549050919050565b611b5b612b3c565b73ffffffffffffffffffffffffffffffffffffffff16611b79611da7565b73ffffffffffffffffffffffffffffffffffffffff1614611bcf576040517f08c379a0000000000000000000000000000000000000000000000000000000008152600401611bc690613c3b565b60405180910390fd5b611bd9600061307a565b565b6000808390506000805b84811015611c3a576402540be40062cab25d84611c029190613e43565b611c0c9190613e12565b82611c179190613dbc565b91508183611c259190613dbc565b92508080611c3290613fe5565b915050611be5565b50809250505092915050565b6000611c526001613140565b90508015611c76576001600060016101000a81548160ff0219169083151502179055505b611c9e6040518060200160405280600081525060405180602001604052806000815250613230565b611ca661328d565b33609a60006101000a81548173ffffffffffffffffffffffffffffffffffffffff021916908373ffffffffffffffffffffffffffffffffffffffff16021790555042609b8190555073796963fd33a4d40091449dde1781b2f65298a9df609d60006101000a81548173ffffffffffffffffffffffffffffffffffffffff021916908373ffffffffffffffffffffffffffffffffffffffff1602179055506000609c819055508015611da45760008060016101000a81548160ff0219169083151502179055507f7f26b83ff96e1f2b6a682f133852f6798a09c465da95921460cefb38474024986001604051611d9b9190613afe565b60405180910390a15b50565b6000606560009054906101000a900473ffffffffffffffffffffffffffffffffffffffff16905090565b606060378054611de090613fb3565b80601f0160208091040260200160405190810160405280929190818152602001828054611e0c90613fb3565b8015611e595780601f10611e2e57610100808354040283529160200191611e59565b820191906000526020600020905b815481529060010190602001808311611e3c57829003601f168201915b5050505050905090565b611e6b612b3c565b73ffffffffffffffffffffffffffffffffffffffff16611e89611da7565b73ffffffffffffffffffffffffffffffffffffffff1614611edf576040517f08c379a0000000000000000000000000000000000000000000000000000000008152600401611ed690613c3b565b60405180910390fd5b80609e8190555050565b600080611ef66097612b2e565b90506000805b82811015612060573373ffffffffffffffffffffffffffffffffffffffff16609f6000600184611f2c9190613dbc565b815260200190815260200160002060010160009054906101000a900473ffffffffffffffffffffffffffffffffffffffff1673ffffffffffffffffffffffffffffffffffffffff16141561204d57600062015180609f6000600185611f919190613dbc565b81526020019081526020016000206005015442611fae9190613e9d565b611fb89190613e12565b90506000609f6000600185611fcd9190613dbc565b81526020019081526020016000206004015490506000805b8381101561203a576402540be40062cab25d846120029190613e43565b61200c9190613e12565b826120179190613dbc565b915081836120259190613dbc565b9250808061203290613fe5565b915050611fe5565b5080856120479190613dbc565b94505050505b808061205890613fe5565b915050611efc565b50809250505090565b6098818154811061207957600080fd5b906000526020600020016000915054906101000a900473ffffffffffffffffffffffffffffffffffffffff1681565b6000806120b3612b3c565b905060006120c182866128a6565b905083811015612106576040517f08c379a00000000000000000000000000000000000000000000000000000000081526004016120fd90613cdb565b60405180910390fd5b6121138286868403612b44565b60019250505092915050565b60008061212a612b3c565b9050612137818585612df6565b600191505092915050565b600061214e60976132e6565b600061215a6097612b2e565b90506040518060e0016040528061162e836121759190613dbc565b81526020013373ffffffffffffffffffffffffffffffffffffffff1681526020016001609c546121a59190613dbc565b815260200184609c546121b89190613dbc565b815260200184815260200142815260200162127500426121d89190613dbc565b815250609f60008381526020019081526020016000206000820151816000015560208201518160010160006101000a81548173ffffffffffffffffffffffffffffffffffffffff021916908373ffffffffffffffffffffffffffffffffffffffff16021790555060408201518160020155606082015181600301556080820151816004015560a0820151816005015560c0820151816006015590505082609c60008282546122869190613dbc565b92505081905550609d60009054906101000a900473ffffffffffffffffffffffffffffffffffffffff1673ffffffffffffffffffffffffffffffffffffffff166323b872dd3330866040518463ffffffff1660e01b81526004016122ec93929190613a83565b602060405180830381600087803b15801561230657600080fd5b505af115801561231a573d6000803e3d6000fd5b505050506040513d601f19601f8201168201806040525081019061233e9190613665565b5061162e8161234d9190613dbc565b915050919050565b6099818154811061236557600080fd5b906000526020600020016000915054906101000a900473ffffffffffffffffffffffffffffffffffffffff1681565b61239c612b3c565b73ffffffffffffffffffffffffffffffffffffffff166123ba611da7565b73ffffffffffffffffffffffffffffffffffffffff1614612410576040517f08c379a000000000000000000000000000000000000000000000000000000000815260040161240790613c3b565b60405180910390fd5b600061241a6109ac565b90506000606460508361242d9190613e43565b6124379190613e12565b90506000606460148461244a9190613e43565b6124549190613e12565b90506000609880549050836124699190613e12565b9050609d60009054906101000a900473ffffffffffffffffffffffffffffffffffffffff1673ffffffffffffffffffffffffffffffffffffffff1663a9059cbb6000846040518363ffffffff1660e01b81526004016124c9929190613aba565b602060405180830381600087803b1580156124e357600080fd5b505af11580156124f7573d6000803e3d6000fd5b505050506040513d601f19601f8201168201806040525081019061251b9190613665565b5060005b60988054905081101561265357609d60009054906101000a900473ffffffffffffffffffffffffffffffffffffffff1673ffffffffffffffffffffffffffffffffffffffff1663a9059cbb609883815481106125a4577f4e487b7100000000000000000000000000000000000000000000000000000000600052603260045260246000fd5b9060005260206000200160009054906101000a900473ffffffffffffffffffffffffffffffffffffffff16846040518363ffffffff1660e01b81526004016125ed929190613aba565b602060405180830381600087803b15801561260757600080fd5b505af115801561261b573d6000803e3d6000fd5b505050506040513d601f19601f8201168201806040525081019061263f9190613665565b50808061264b90613fe5565b91505061251f565b5050505050565b60006126666097612b2e565b905060005b818110156128a2573373ffffffffffffffffffffffffffffffffffffffff16609f600060018461269b9190613dbc565b815260200190815260200160002060010160009054906101000a900473ffffffffffffffffffffffffffffffffffffffff1673ffffffffffffffffffffffffffffffffffffffff161480156127125750609f60006001836126fc9190613dbc565b8152602001908152602001600020600601544210155b1561288f57600062015180609f600060018561272e9190613dbc565b8152602001908152602001600020600501544261274b9190613e9d565b6127559190613e12565b90506000612785609f600060018661276d9190613dbc565b81526020019081526020016000206004015483611bdb565b9050609d60009054906101000a900473ffffffffffffffffffffffffffffffffffffffff1673ffffffffffffffffffffffffffffffffffffffff1663a9059cbb3383609f60006001896127d89190613dbc565b8152602001908152602001600020600401546127f49190613dbc565b6040518363ffffffff1660e01b8152600401612811929190613aba565b602060405180830381600087803b15801561282b57600080fd5b505af115801561283f573d6000803e3d6000fd5b505050506040513d601f19601f820116820180604052508101906128639190613665565b506000609f60006001866128779190613dbc565b81526020019081526020016000206004018190555050505b808061289a90613fe5565b91505061266b565b5050565b6000603460008473ffffffffffffffffffffffffffffffffffffffff1673ffffffffffffffffffffffffffffffffffffffff16815260200190815260200160002060008373ffffffffffffffffffffffffffffffffffffffff1673ffffffffffffffffffffffffffffffffffffffff16815260200190815260200160002054905092915050565b6000806000905060006129406097612b2e565b905060005b81811015612a07573373ffffffffffffffffffffffffffffffffffffffff16609f60006001846129759190613dbc565b815260200190815260200160002060010160009054906101000a900473ffffffffffffffffffffffffffffffffffffffff1673ffffffffffffffffffffffffffffffffffffffff1614156129f457609f60006001836129d49190613dbc565b815260200190815260200160002060040154836129f19190613dbc565b92505b80806129ff90613fe5565b915050612945565b50819250505090565b612a18612b3c565b73ffffffffffffffffffffffffffffffffffffffff16612a36611da7565b73ffffffffffffffffffffffffffffffffffffffff1614612a8c576040517f08c379a0000000000000000000000000000000000000000000000000000000008152600401612a8390613c3b565b60405180910390fd5b600073ffffffffffffffffffffffffffffffffffffffff168173ffffffffffffffffffffffffffffffffffffffff161415612afc576040517f08c379a0000000000000000000000000000000000000000000000000000000008152600401612af390613b5b565b60405180910390fd5b612b058161307a565b50565b609a60009054906101000a900473ffffffffffffffffffffffffffffffffffffffff1681565b600081600001549050919050565b600033905090565b600073ffffffffffffffffffffffffffffffffffffffff168373ffffffffffffffffffffffffffffffffffffffff161415612bb4576040517f08c379a0000000000000000000000000000000000000000000000000000000008152600401612bab90613c9b565b60405180910390fd5b600073ffffffffffffffffffffffffffffffffffffffff168273ffffffffffffffffffffffffffffffffffffffff161415612c24576040517f08c379a0000000000000000000000000000000000000000000000000000000008152600401612c1b90613b7b565b60405180910390fd5b80603460008573ffffffffffffffffffffffffffffffffffffffff1673ffffffffffffffffffffffffffffffffffffffff16815260200190815260200160002060008473ffffffffffffffffffffffffffffffffffffffff1673ffffffffffffffffffffffffffffffffffffffff168152602001908152602001600020819055508173ffffffffffffffffffffffffffffffffffffffff168373ffffffffffffffffffffffffffffffffffffffff167f8c5be1e5ebec7d5bd14f71427d1e84f3dd0314c0f7b2291e5b200ac8c7c3b92583604051612d029190613cfb565b60405180910390a3505050565b6000609a60009054906101000a900473ffffffffffffffffffffffffffffffffffffffff16609b544442604051602001612d4c94939291906139d6565b6040516020818303038152906040528051906020012060001c905090565b6000612d7684846128a6565b90507fffffffffffffffffffffffffffffffffffffffffffffffffffffffffffffffff8114612df05781811015612de2576040517f08c379a0000000000000000000000000000000000000000000000000000000008152600401612dd990613b9b565b60405180910390fd5b612def8484848403612b44565b5b50505050565b600073ffffffffffffffffffffffffffffffffffffffff168373ffffffffffffffffffffffffffffffffffffffff161415612e66576040517f08c379a0000000000000000000000000000000000000000000000000000000008152600401612e5d90613c7b565b60405180910390fd5b600073ffffffffffffffffffffffffffffffffffffffff168273ffffffffffffffffffffffffffffffffffffffff161415612ed6576040517f08c379a0000000000000000000000000000000000000000000000000000000008152600401612ecd90613b3b565b60405180910390fd5b612ee18383836132fc565b6000603360008573ffffffffffffffffffffffffffffffffffffffff1673ffffffffffffffffffffffffffffffffffffffff16815260200190815260200160002054905081811015612f68576040517f08c379a0000000000000000000000000000000000000000000000000000000008152600401612f5f90613bbb565b60405180910390fd5b818103603360008673ffffffffffffffffffffffffffffffffffffffff1673ffffffffffffffffffffffffffffffffffffffff1681526020019081526020016000208190555081603360008573ffffffffffffffffffffffffffffffffffffffff1673ffffffffffffffffffffffffffffffffffffffff1681526020019081526020016000206000828254612ffd9190613dbc565b925050819055508273ffffffffffffffffffffffffffffffffffffffff168473ffffffffffffffffffffffffffffffffffffffff167fddf252ad1be2c89b69c2b068fc378daa952ba7f163c4a11628f55a4df523b3ef846040516130619190613cfb565b60405180910390a3613074848484613301565b50505050565b6000606560009054906101000a900473ffffffffffffffffffffffffffffffffffffffff16905081606560006101000a81548173ffffffffffffffffffffffffffffffffffffffff021916908373ffffffffffffffffffffffffffffffffffffffff1602179055508173ffffffffffffffffffffffffffffffffffffffff168173ffffffffffffffffffffffffffffffffffffffff167f8be0079c531659141344cd1fd0a4f28419497f9722a3daafe3b4186f6b6457e060405160405180910390a35050565b60008060019054906101000a900460ff16156131b75760018260ff1614801561316f575061316d30613306565b155b6131ae576040517f08c379a00000000000000000000000000000000000000000000000000000000081526004016131a590613bfb565b60405180910390fd5b6000905061322b565b8160ff1660008054906101000a900460ff1660ff161061320c576040517f08c379a000000000000000000000000000000000000000000000000000000000815260040161320390613bfb565b60405180910390fd5b816000806101000a81548160ff021916908360ff160217905550600190505b919050565b600060019054906101000a900460ff1661327f576040517f08c379a000000000000000000000000000000000000000000000000000000000815260040161327690613cbb565b60405180910390fd5b6132898282613329565b5050565b600060019054906101000a900460ff166132dc576040517f08c379a00000000000000000000000000000000000000000000000000000000081526004016132d390613cbb565b60405180910390fd5b6132e46133aa565b565b6001816000016000828254019250508190555050565b505050565b505050565b6000808273ffffffffffffffffffffffffffffffffffffffff163b119050919050565b600060019054906101000a900460ff16613378576040517f08c379a000000000000000000000000000000000000000000000000000000000815260040161336f90613cbb565b60405180910390fd5b816036908051906020019061338e92919061347e565b5080603790805190602001906133a592919061347e565b505050565b600060019054906101000a900460ff166133f9576040517f08c379a00000000000000000000000000000000000000000000000000000000081526004016133f090613cbb565b60405180910390fd5b613409613404612b3c565b61307a565b565b82805482825590600052602060002090810192821561344c5760005260206000209182015b8281111561344b578254825591600101919060010190613430565b5b5090506134599190613504565b5090565b508054600082559060005260206000209081019061347b9190613504565b50565b82805461348a90613fb3565b90600052602060002090601f0160209004810192826134ac57600085556134f3565b82601f106134c557805160ff19168380011785556134f3565b828001600101855582156134f3579182015b828111156134f25782518255916020019190600101906134d7565b5b5090506135009190613504565b5090565b5b8082111561351d576000816000905550600101613505565b5090565b60008135905061353081614518565b92915050565b6000815190506135458161452f565b92915050565b60008135905061355a81614546565b92915050565b60008151905061356f81614546565b92915050565b60006020828403121561358757600080fd5b600061359584828501613521565b91505092915050565b600080604083850312156135b157600080fd5b60006135bf85828601613521565b92505060206135d085828601613521565b9150509250929050565b6000806000606084860312156135ef57600080fd5b60006135fd86828701613521565b935050602061360e86828701613521565b925050604061361f8682870161354b565b9150509250925092565b6000806040838503121561363c57600080fd5b600061364a85828601613521565b925050602061365b8582860161354b565b9150509250929050565b60006020828403121561367757600080fd5b600061368584828501613536565b91505092915050565b6000602082840312156136a057600080fd5b60006136ae8482850161354b565b91505092915050565b6000602082840312156136c957600080fd5b60006136d784828501613560565b91505092915050565b600080604083850312156136f357600080fd5b60006137018582860161354b565b92505060206137128582860161354b565b9150509250929050565b61372581613f38565b82525050565b61373481613ee3565b82525050565b61374b61374682613ee3565b61402e565b82525050565b61375a81613ed1565b82525050565b61376981613ef5565b82525050565b61377881613f4a565b82525050565b600061378982613da0565b6137938185613dab565b93506137a3818560208601613f80565b6137ac8161411a565b840191505092915050565b60006137c4602383613dab565b91506137cf82614138565b604082019050919050565b60006137e7602683613dab565b91506137f282614187565b604082019050919050565b600061380a602283613dab565b9150613815826141d6565b604082019050919050565b600061382d601d83613dab565b915061383882614225565b602082019050919050565b6000613850602683613dab565b915061385b8261424e565b604082019050919050565b6000613873602683613dab565b915061387e8261429d565b604082019050919050565b6000613896602e83613dab565b91506138a1826142ec565b604082019050919050565b60006138b9602b83613dab565b91506138c48261433b565b604082019050919050565b60006138dc602083613dab565b91506138e78261438a565b602082019050919050565b60006138ff601483613dab565b915061390a826143b3565b602082019050919050565b6000613922602583613dab565b915061392d826143dc565b604082019050919050565b6000613945602483613dab565b91506139508261442b565b604082019050919050565b6000613968602b83613dab565b91506139738261447a565b604082019050919050565b600061398b602583613dab565b9150613996826144c9565b604082019050919050565b6139aa81613f21565b82525050565b6139c16139bc82613f21565b614052565b82525050565b6139d081613f2b565b82525050565b60006139e2828761373a565b6014820191506139f282866139b0565b602082019150613a0282856139b0565b602082019150613a1282846139b0565b60208201915081905095945050505050565b6000602082019050613a396000830184613751565b92915050565b6000602082019050613a54600083018461372b565b92915050565b6000604082019050613a6f600083018561371c565b613a7c60208301846139a1565b9392505050565b6000606082019050613a986000830186613751565b613aa56020830185613751565b613ab260408301846139a1565b949350505050565b6000604082019050613acf6000830185613751565b613adc60208301846139a1565b9392505050565b6000602082019050613af86000830184613760565b92915050565b6000602082019050613b13600083018461376f565b92915050565b60006020820190508181036000830152613b33818461377e565b905092915050565b60006020820190508181036000830152613b54816137b7565b9050919050565b60006020820190508181036000830152613b74816137da565b9050919050565b60006020820190508181036000830152613b94816137fd565b9050919050565b60006020820190508181036000830152613bb481613820565b9050919050565b60006020820190508181036000830152613bd481613843565b9050919050565b60006020820190508181036000830152613bf481613866565b9050919050565b60006020820190508181036000830152613c1481613889565b9050919050565b60006020820190508181036000830152613c34816138ac565b9050919050565b60006020820190508181036000830152613c54816138cf565b9050919050565b60006020820190508181036000830152613c74816138f2565b9050919050565b60006020820190508181036000830152613c9481613915565b9050919050565b60006020820190508181036000830152613cb481613938565b9050919050565b60006020820190508181036000830152613cd48161395b565b9050919050565b60006020820190508181036000830152613cf48161397e565b9050919050565b6000602082019050613d1060008301846139a1565b92915050565b600060e082019050613d2b600083018a6139a1565b613d386020830189613751565b613d4560408301886139a1565b613d5260608301876139a1565b613d5f60808301866139a1565b613d6c60a08301856139a1565b613d7960c08301846139a1565b98975050505050505050565b6000602082019050613d9a60008301846139c7565b92915050565b600081519050919050565b600082825260208201905092915050565b6000613dc782613f21565b9150613dd283613f21565b9250827fffffffffffffffffffffffffffffffffffffffffffffffffffffffffffffffff03821115613e0757613e0661408d565b5b828201905092915050565b6000613e1d82613f21565b9150613e2883613f21565b925082613e3857613e376140bc565b5b828204905092915050565b6000613e4e82613f21565b9150613e5983613f21565b9250817fffffffffffffffffffffffffffffffffffffffffffffffffffffffffffffffff0483118215151615613e9257613e9161408d565b5b828202905092915050565b6000613ea882613f21565b9150613eb383613f21565b925082821015613ec657613ec561408d565b5b828203905092915050565b6000613edc82613f01565b9050919050565b6000613eee82613f01565b9050919050565b60008115159050919050565b600073ffffffffffffffffffffffffffffffffffffffff82169050919050565b6000819050919050565b600060ff82169050919050565b6000613f4382613f5c565b9050919050565b6000613f5582613f2b565b9050919050565b6000613f6782613f6e565b9050919050565b6000613f7982613f01565b9050919050565b60005b83811015613f9e578082015181840152602081019050613f83565b83811115613fad576000848401525b50505050565b60006002820490506001821680613fcb57607f821691505b60208210811415613fdf57613fde6140eb565b5b50919050565b6000613ff082613f21565b91507fffffffffffffffffffffffffffffffffffffffffffffffffffffffffffffffff8214156140235761402261408d565b5b600182019050919050565b600061403982614040565b9050919050565b600061404b8261412b565b9050919050565b6000819050919050565b600061406782613f21565b915061407283613f21565b925082614082576140816140bc565b5b828206905092915050565b7f4e487b7100000000000000000000000000000000000000000000000000000000600052601160045260246000fd5b7f4e487b7100000000000000000000000000000000000000000000000000000000600052601260045260246000fd5b7f4e487b7100000000000000000000000000000000000000000000000000000000600052602260045260246000fd5b6000601f19601f8301169050919050565b60008160601b9050919050565b7f45524332303a207472616e7366657220746f20746865207a65726f206164647260008201527f6573730000000000000000000000000000000000000000000000000000000000602082015250565b7f4f776e61626c653a206e6577206f776e657220697320746865207a65726f206160008201527f6464726573730000000000000000000000000000000000000000000000000000602082015250565b7f45524332303a20617070726f766520746f20746865207a65726f20616464726560008201527f7373000000000000000000000000000000000000000000000000000000000000602082015250565b7f45524332303a20696e73756666696369656e7420616c6c6f77616e6365000000600082015250565b7f45524332303a207472616e7366657220616d6f756e742065786365656473206260008201527f616c616e63650000000000000000000000000000000000000000000000000000602082015250565b7f576974686472617720416d6f756e74206d75737420626520677265617465722060008201527f7468616e20300000000000000000000000000000000000000000000000000000602082015250565b7f496e697469616c697a61626c653a20636f6e747261637420697320616c72656160008201527f647920696e697469616c697a6564000000000000000000000000000000000000602082015250565b7f596f752063616e6e6f74207769746864726177206d6f7265207468616e20796f60008201527f75206465706f7369746564000000000000000000000000000000000000000000602082015250565b7f4f776e61626c653a2063616c6c6572206973206e6f7420746865206f776e6572600082015250565b7f496e73756666696369656e742042616c616e6365000000000000000000000000600082015250565b7f45524332303a207472616e736665722066726f6d20746865207a65726f20616460008201527f6472657373000000000000000000000000000000000000000000000000000000602082015250565b7f45524332303a20617070726f76652066726f6d20746865207a65726f2061646460008201527f7265737300000000000000000000000000000000000000000000000000000000602082015250565b7f496e697469616c697a61626c653a20636f6e7472616374206973206e6f74206960008201527f6e697469616c697a696e67000000000000000000000000000000000000000000602082015250565b7f45524332303a2064656372656173656420616c6c6f77616e63652062656c6f7760008201527f207a65726f000000000000000000000000000000000000000000000000000000602082015250565b61452181613ed1565b811461452c57600080fd5b50565b61453881613ef5565b811461454357600080fd5b50565b61454f81613f21565b811461455a57600080fd5b5056fea26469706673582212202ab8653356aa3164cd0f90465c144e6c2bd20a4d21323be441f9ffa28acc57f164736f6c63430008040033",
  "linkReferences": {},
  "deployedLinkReferences": {}
}