{
  "_format": "hh-sol-artifact-1",
  "contractName": "POGPlay",
  "sourceName": "contracts/POGPlay.sol",
  "abi": [
    {
      "anonymous": false,
      "inputs": [
        {
          "indexed": true,
          "internalType": "address",
          "name": "owner",
          "type": "address"
        },
        {
          "indexed": true,
          "internalType": "address",
          "name": "spender",
          "type": "address"
        },
        {
          "indexed": false,
          "internalType": "uint256",
          "name": "value",
          "type": "uint256"
        }
      ],
      "name": "Approval",
      "type": "event"
    },
    {
      "anonymous": false,
      "inputs": [
        {
          "indexed": false,
          "internalType": "uint8",
          "name": "version",
          "type": "uint8"
        }
      ],
      "name": "Initialized",
      "type": "event"
    },
    {
      "anonymous": false,
      "inputs": [
        {
          "indexed": true,
          "internalType": "address",
          "name": "previousOwner",
          "type": "address"
        },
        {
          "indexed": true,
          "internalType": "address",
          "name": "newOwner",
          "type": "address"
        }
      ],
      "name": "OwnershipTransferred",
      "type": "event"
    },
    {
      "anonymous": false,
      "inputs": [
        {
          "indexed": true,
          "internalType": "address",
          "name": "from",
          "type": "address"
        },
        {
          "indexed": true,
          "internalType": "address",
          "name": "to",
          "type": "address"
        },
        {
          "indexed": false,
          "internalType": "uint256",
          "name": "value",
          "type": "uint256"
        }
      ],
      "name": "Transfer",
      "type": "event"
    },
    {
      "inputs": [],
      "name": "_itemIds",
      "outputs": [
        {
          "internalType": "uint256",
          "name": "_value",
          "type": "uint256"
        }
      ],
      "stateMutability": "view",
      "type": "function"
    },
    {
      "inputs": [],
      "name": "admin",
      "outputs": [
        {
          "internalType": "address payable",
          "name": "",
          "type": "address"
        }
      ],
      "stateMutability": "view",
      "type": "function"
    },
    {
      "inputs": [
        {
          "internalType": "address",
          "name": "owner",
          "type": "address"
        },
        {
          "internalType": "address",
          "name": "spender",
          "type": "address"
        }
      ],
      "name": "allowance",
      "outputs": [
        {
          "internalType": "uint256",
          "name": "",
          "type": "uint256"
        }
      ],
      "stateMutability": "view",
      "type": "function"
    },
    {
      "inputs": [
        {
          "internalType": "address",
          "name": "spender",
          "type": "address"
        },
        {
          "internalType": "uint256",
          "name": "amount",
          "type": "uint256"
        }
      ],
      "name": "approve",
      "outputs": [
        {
          "internalType": "bool",
          "name": "",
          "type": "bool"
        }
      ],
      "stateMutability": "nonpayable",
      "type": "function"
    },
    {
      "inputs": [
        {
          "internalType": "address",
          "name": "account",
          "type": "address"
        }
      ],
      "name": "balanceOf",
      "outputs": [
        {
          "internalType": "uint256",
          "name": "",
          "type": "uint256"
        }
      ],
      "stateMutability": "view",
      "type": "function"
    },
    {
      "inputs": [],
      "name": "burnHere",
      "outputs": [
        {
          "internalType": "uint256",
          "name": "",
          "type": "uint256"
        }
      ],
      "stateMutability": "payable",
      "type": "function"
    },
    {
      "inputs": [
        {
          "internalType": "uint256",
          "name": "principal",
          "type": "uint256"
        },
        {
          "internalType": "uint256",
          "name": "noOfDaysPassed",
          "type": "uint256"
        }
      ],
      "name": "calculateNetInterestValue",
      "outputs": [
        {
          "internalType": "uint256",
          "name": "",
          "type": "uint256"
        }
      ],
      "stateMutability": "pure",
      "type": "function"
    },
    {
      "inputs": [],
      "name": "chanceOfUserToBeWinner",
      "outputs": [
        {
          "internalType": "uint256",
          "name": "",
          "type": "uint256"
        }
      ],
      "stateMutability": "view",
      "type": "function"
    },
    {
      "inputs": [],
      "name": "decimals",
      "outputs": [
        {
          "internalType": "uint8",
          "name": "",
          "type": "uint8"
        }
      ],
      "stateMutability": "view",
      "type": "function"
    },
    {
      "inputs": [
        {
          "internalType": "address",
          "name": "spender",
          "type": "address"
        },
        {
          "internalType": "uint256",
          "name": "subtractedValue",
          "type": "uint256"
        }
      ],
      "name": "decreaseAllowance",
      "outputs": [
        {
          "internalType": "bool",
          "name": "",
          "type": "bool"
        }
      ],
      "stateMutability": "nonpayable",
      "type": "function"
    },
    {
      "inputs": [
        {
          "internalType": "uint256",
          "name": "amount",
          "type": "uint256"
        }
      ],
      "name": "deposit",
      "outputs": [
        {
          "internalType": "uint256",
          "name": "",
          "type": "uint256"
        }
      ],
      "stateMutability": "payable",
      "type": "function"
    },
    {
      "inputs": [],
      "name": "distributePrizeMoney",
      "outputs": [],
      "stateMutability": "payable",
      "type": "function"
    },
    {
      "inputs": [],
      "name": "duration",
      "outputs": [
        {
          "internalType": "uint256",
          "name": "",
          "type": "uint256"
        }
      ],
      "stateMutability": "view",
      "type": "function"
    },
    {
      "inputs": [
        {
          "internalType": "uint256",
          "name": "userAmount",
          "type": "uint256"
        }
      ],
      "name": "forceWithdraw",
      "outputs": [],
      "stateMutability": "payable",
      "type": "function"
    },
    {
      "inputs": [],
      "name": "getAdmin",
      "outputs": [
        {
          "internalType": "address payable",
          "name": "",
          "type": "address"
        }
      ],
      "stateMutability": "view",
      "type": "function"
    },
    {
      "inputs": [],
      "name": "getMyAccumulatedInterest",
      "outputs": [
        {
          "internalType": "uint256",
          "name": "",
          "type": "uint256"
        }
      ],
      "stateMutability": "view",
      "type": "function"
    },
    {
      "inputs": [],
      "name": "getMyTotalDeposits",
      "outputs": [
        {
          "internalType": "uint256",
          "name": "",
          "type": "uint256"
        }
      ],
      "stateMutability": "view",
      "type": "function"
    },
    {
      "inputs": [],
      "name": "getPrizeMoney",
      "outputs": [
        {
          "internalType": "uint256",
          "name": "",
          "type": "uint256"
        }
      ],
      "stateMutability": "view",
      "type": "function"
    },
    {
      "inputs": [
        {
          "internalType": "address",
          "name": "spender",
          "type": "address"
        },
        {
          "internalType": "uint256",
          "name": "addedValue",
          "type": "uint256"
        }
      ],
      "name": "increaseAllowance",
      "outputs": [
        {
          "internalType": "bool",
          "name": "",
          "type": "bool"
        }
      ],
      "stateMutability": "nonpayable",
      "type": "function"
    },
    {
      "inputs": [],
      "name": "initialize",
      "outputs": [],
      "stateMutability": "nonpayable",
      "type": "function"
    },
    {
      "inputs": [
        {
          "internalType": "uint256",
          "name": "",
          "type": "uint256"
        }
      ],
      "name": "lastLotteryRoundWinners",
      "outputs": [
        {
          "internalType": "address",
          "name": "",
          "type": "address"
        }
      ],
      "stateMutability": "view",
      "type": "function"
    },
    {
      "inputs": [],
      "name": "name",
      "outputs": [
        {
          "internalType": "string",
          "name": "",
          "type": "string"
        }
      ],
      "stateMutability": "view",
      "type": "function"
    },
    {
      "inputs": [],
      "name": "netClaimableAmount",
      "outputs": [
        {
          "internalType": "uint256",
          "name": "",
          "type": "uint256"
        }
      ],
      "stateMutability": "view",
      "type": "function"
    },
    {
      "inputs": [],
      "name": "netLockedAmount",
      "outputs": [
        {
          "internalType": "uint256",
          "name": "",
          "type": "uint256"
        }
      ],
      "stateMutability": "view",
      "type": "function"
    },
    {
      "inputs": [],
      "name": "owner",
      "outputs": [
        {
          "internalType": "address",
          "name": "",
          "type": "address"
        }
      ],
      "stateMutability": "view",
      "type": "function"
    },
    {
      "inputs": [
        {
          "internalType": "uint256",
          "name": "",
          "type": "uint256"
        }
      ],
      "name": "playerData",
      "outputs": [
        {
          "internalType": "uint256",
          "name": "tokenNumber",
          "type": "uint256"
        },
        {
          "internalType": "address",
          "name": "playerAddress",
          "type": "address"
        },
        {
          "internalType": "uint256",
          "name": "startNumber",
          "type": "uint256"
        },
        {
          "internalType": "uint256",
          "name": "endNumber",
          "type": "uint256"
        },
        {
          "internalType": "uint256",
          "name": "amount",
          "type": "uint256"
        },
        {
          "internalType": "uint256",
          "name": "startTime",
          "type": "uint256"
        },
        {
          "internalType": "uint256",
          "name": "end",
          "type": "uint256"
        }
      ],
      "stateMutability": "view",
      "type": "function"
    },
    {
      "inputs": [],
      "name": "redeemClaimable",
      "outputs": [],
      "stateMutability": "payable",
      "type": "function"
    },
    {
      "inputs": [],
      "name": "renounceOwnership",
      "outputs": [],
      "stateMutability": "nonpayable",
      "type": "function"
    },
    {
      "inputs": [
        {
          "internalType": "address",
          "name": "addr",
          "type": "address"
        }
      ],
      "name": "setWinners",
      "outputs": [],
      "stateMutability": "nonpayable",
      "type": "function"
    },
    {
      "inputs": [
        {
          "internalType": "uint256",
          "name": "noOfWinners",
          "type": "uint256"
        }
      ],
      "name": "startLottery",
      "outputs": [],
      "stateMutability": "payable",
      "type": "function"
    },
    {
      "inputs": [],
      "name": "symbol",
      "outputs": [
        {
          "internalType": "string",
          "name": "",
          "type": "string"
        }
      ],
      "stateMutability": "view",
      "type": "function"
    },
    {
      "inputs": [],
      "name": "total",
      "outputs": [
        {
          "internalType": "uint256",
          "name": "",
          "type": "uint256"
        }
      ],
      "stateMutability": "view",
      "type": "function"
    },
    {
      "inputs": [],
      "name": "totalSupply",
      "outputs": [
        {
          "internalType": "uint256",
          "name": "",
          "type": "uint256"
        }
      ],
      "stateMutability": "view",
      "type": "function"
    },
    {
      "inputs": [
        {
          "internalType": "address",
          "name": "to",
          "type": "address"
        },
        {
          "internalType": "uint256",
          "name": "amount",
          "type": "uint256"
        }
      ],
      "name": "transfer",
      "outputs": [
        {
          "internalType": "bool",
          "name": "",
          "type": "bool"
        }
      ],
      "stateMutability": "nonpayable",
      "type": "function"
    },
    {
      "inputs": [
        {
          "internalType": "address",
          "name": "from",
          "type": "address"
        },
        {
          "internalType": "address",
          "name": "to",
          "type": "address"
        },
        {
          "internalType": "uint256",
          "name": "amount",
          "type": "uint256"
        }
      ],
      "name": "transferFrom",
      "outputs": [
        {
          "internalType": "bool",
          "name": "",
          "type": "bool"
        }
      ],
      "stateMutability": "nonpayable",
      "type": "function"
    },
    {
      "inputs": [
        {
          "internalType": "address",
          "name": "newOwner",
          "type": "address"
        }
      ],
      "name": "transferOwnership",
      "outputs": [],
      "stateMutability": "nonpayable",
      "type": "function"
    },
    {
      "inputs": [
        {
          "internalType": "uint256",
          "name": "",
          "type": "uint256"
        }
      ],
      "name": "winners",
      "outputs": [
        {
          "internalType": "address",
          "name": "",
          "type": "address"
        }
      ],
      "stateMutability": "view",
      "type": "function"
    },
    {
      "inputs": [
        {
          "internalType": "uint256",
          "name": "amount",
          "type": "uint256"
        }
      ],
      "name": "withdraw",
      "outputs": [],
      "stateMutability": "nonpayable",
      "type": "function"
    }
  ],
  "bytecode": "0x608060405234801561001057600080fd5b506144b8806100206000396000f3fe6080604052600436106102255760003560e01c806370a0823111610123578063a9059cbb116100ab578063d357d0ba1161006f578063d357d0ba146107fc578063dd62ed3e14610806578063e2a5cd2c14610843578063f2fde38b1461086e578063f851a4401461089757610225565b8063a9059cbb1461072c578063b6b55f2514610769578063b8033d7614610799578063c6bec93a146107d6578063d0342d65146107f257610225565b80638da5cb5b116100f25780638da5cb5b1461063157806395d89b411461065c57806398c98cad14610687578063a2fb1175146106b2578063a457c2d7146106ef57610225565b806370a0823114610589578063715018a6146105c657806379a0c073146105dd5780638129fc1c1461061a57610225565b806323b872dd116101b157806334a7f1931161017557806334a7f193146104a057806339509351146104cb5780635d0dd51a146105085780636d9e1cc2146105335780636e9960c31461055e57610225565b806323b872dd146103c657806327f2ac6c146104035780632ddbd13a146104215780632e1a7d4d1461044c578063313ce5671461047557610225565b80630dee1929116101f85780630dee1929146103005780630fb5a6b4146103295780630fcc56f71461035457806318160ddd146103705780631930b13a1461039b57610225565b806306fdde031461022a5780630737c24b14610255578063095ea7b3146102805780630aec4ed1146102bd575b600080fd5b34801561023657600080fd5b5061023f6108c2565b60405161024c9190613a3e565b60405180910390f35b34801561026157600080fd5b5061026a610954565b6040516102779190613c20565b60405180910390f35b34801561028c57600080fd5b506102a760048036038101906102a29190613540565b610a56565b6040516102b49190613a08565b60405180910390f35b3480156102c957600080fd5b506102e460048036038101906102df91906135a5565b610a79565b6040516102f79796959493929190613c3b565b60405180910390f35b34801561030c57600080fd5b506103276004803603810190610322919061348c565b610adb565b005b34801561033557600080fd5b5061033e610bbd565b60405161034b9190613c20565b60405180910390f35b61036e600480360381019061036991906135a5565b610bc2565b005b34801561037c57600080fd5b50610385610ffd565b6040516103929190613c20565b60405180910390f35b3480156103a757600080fd5b506103b0611007565b6040516103bd9190613c20565b60405180910390f35b3480156103d257600080fd5b506103ed60048036038101906103e891906134f1565b611112565b6040516103fa9190613a08565b60405180910390f35b61040b611141565b6040516104189190613c20565b60405180910390f35b34801561042d57600080fd5b50610436611373565b6040516104439190613c20565b60405180910390f35b34801561045857600080fd5b50610473600480360381019061046e91906135a5565b611379565b005b34801561048157600080fd5b5061048a6115b9565b6040516104979190613caa565b60405180910390f35b3480156104ac57600080fd5b506104b56115c2565b6040516104c29190613c20565b60405180910390f35b3480156104d757600080fd5b506104f260048036038101906104ed9190613540565b6115ce565b6040516104ff9190613a08565b60405180910390f35b34801561051457600080fd5b5061051d611605565b60405161052a9190613c20565b60405180910390f35b34801561053f57600080fd5b5061054861165a565b6040516105559190613c20565b60405180910390f35b34801561056a57600080fd5b50610573611766565b6040516105809190613956565b60405180910390f35b34801561059557600080fd5b506105b060048036038101906105ab919061348c565b611790565b6040516105bd9190613c20565b60405180910390f35b3480156105d257600080fd5b506105db6117d9565b005b3480156105e957600080fd5b5061060460048036038101906105ff91906135f7565b611861565b6040516106119190613c20565b60405180910390f35b34801561062657600080fd5b5061062f6118cc565b005b34801561063d57600080fd5b50610646611a2d565b604051610653919061393b565b60405180910390f35b34801561066857600080fd5b50610671611a57565b60405161067e9190613a3e565b60405180910390f35b34801561069357600080fd5b5061069c611ae9565b6040516106a99190613c20565b60405180910390f35b3480156106be57600080fd5b506106d960048036038101906106d491906135a5565b611c67565b6040516106e6919061393b565b60405180910390f35b3480156106fb57600080fd5b5061071660048036038101906107119190613540565b611ca6565b6040516107239190613a08565b60405180910390f35b34801561073857600080fd5b50610753600480360381019061074e9190613540565b611d1d565b6040516107609190613a08565b60405180910390f35b610783600480360381019061077e91906135a5565b611d40565b6040516107909190613c20565b60405180910390f35b3480156107a557600080fd5b506107c060048036038101906107bb91906135a5565b611f51565b6040516107cd919061393b565b60405180910390f35b6107f060048036038101906107eb91906135a5565b611f90565b005b6107fa6122a7565b005b610804612571565b005b34801561081257600080fd5b5061082d600480360381019061082891906134b5565b6127bd565b60405161083a9190613c20565b60405180910390f35b34801561084f57600080fd5b50610858612844565b6040516108659190613c20565b60405180910390f35b34801561087a57600080fd5b506108956004803603810190610890919061348c565b612927565b005b3480156108a357600080fd5b506108ac612a1f565b6040516108b99190613956565b60405180910390f35b6060603680546108d190613ed8565b80601f01602080910402602001604051908101604052809291908181526020018280546108fd90613ed8565b801561094a5780601f1061091f5761010080835404028352916020019161094a565b820191906000526020600020905b81548152906001019060200180831161092d57829003601f168201915b5050505050905090565b6000806109616097612a45565b90506000805b82811015610a4d576000603c609e60006001856109849190613ce1565b815260200190815260200160002060050154426109a19190613dc2565b6109ab9190613d37565b90506000609e60006001856109c09190613ce1565b81526020019081526020016000206004015490506000805b83811015610a28576103e86003846109f09190613d68565b6109fa9190613d37565b82610a059190613ce1565b91508183610a139190613ce1565b92508080610a2090613f0a565b9150506109d8565b508085610a359190613ce1565b94505050508080610a4590613f0a565b915050610967565b50809250505090565b600080610a61612a53565b9050610a6e818585612a5b565b600191505092915050565b609e6020528060005260406000206000915090508060000154908060010160009054906101000a900473ffffffffffffffffffffffffffffffffffffffff16908060020154908060030154908060040154908060050154908060060154905087565b610ae3612a53565b73ffffffffffffffffffffffffffffffffffffffff16610b01611a2d565b73ffffffffffffffffffffffffffffffffffffffff1614610b57576040517f08c379a0000000000000000000000000000000000000000000000000000000008152600401610b4e90613b60565b60405180910390fd5b6098819080600181540180825580915050600190039060005260206000200160009091909190916101000a81548173ffffffffffffffffffffffffffffffffffffffff021916908373ffffffffffffffffffffffffffffffffffffffff16021790555050565b603c81565b60008111610c05576040517f08c379a0000000000000000000000000000000000000000000000000000000008152600401610bfc90613b00565b60405180910390fd5b610c0d611007565b811115610c4f576040517f08c379a0000000000000000000000000000000000000000000000000000000008152600401610c4690613b40565b60405180910390fd5b6000610c5b6097612a45565b9050600082905060005b82811015610ff7573373ffffffffffffffffffffffffffffffffffffffff16609e6000600184610c959190613ce1565b815260200190815260200160002060010160009054906101000a900473ffffffffffffffffffffffffffffffffffffffff1673ffffffffffffffffffffffffffffffffffffffff16148015610d0b5750609e6000600183610cf69190613ce1565b81526020019081526020016000206006015442105b15610fe4576000603c609e6000600185610d259190613ce1565b81526020019081526020016000206005015442610d429190613dc2565b610d4c9190613d37565b90506000816002610d5d9190613d68565b601c610d699190613dc2565b9050600060648286610d7b9190613d68565b610d859190613d37565b905060008186610d959190613dc2565b905085609e6000600188610da99190613ce1565b8152602001908152602001600020600401541115610eb357609d60009054906101000a900473ffffffffffffffffffffffffffffffffffffffff1673ffffffffffffffffffffffffffffffffffffffff1663a9059cbb33836040518363ffffffff1660e01b8152600401610e1e929190613971565b602060405180830381600087803b158015610e3857600080fd5b505af1158015610e4c573d6000803e3d6000fd5b505050506040513d601f19601f82011682018060405250810190610e70919061357c565b5080609e6000600188610e839190613ce1565b81526020019081526020016000206004016000828254610ea39190613dc2565b9250508190555050505050610ff7565b609d60009054906101000a900473ffffffffffffffffffffffffffffffffffffffff1673ffffffffffffffffffffffffffffffffffffffff166323b872dd3033609e600060018b610f049190613ce1565b8152602001908152602001600020600401546040518463ffffffff1660e01b8152600401610f349392919061399a565b602060405180830381600087803b158015610f4e57600080fd5b505af1158015610f62573d6000803e3d6000fd5b505050506040513d601f19601f82011682018060405250810190610f86919061357c565b506000609e6000600188610f9a9190613ce1565b815260200190815260200160002060040181905550609e6000600187610fc09190613ce1565b81526020019081526020016000206004015486610fdd9190613dc2565b9550505050505b8080610fef90613f0a565b915050610c65565b50505050565b6000603554905090565b6000806110146097612a45565b90506000805b82811015611109573373ffffffffffffffffffffffffffffffffffffffff16609e600060018461104a9190613ce1565b815260200190815260200160002060010160009054906101000a900473ffffffffffffffffffffffffffffffffffffffff1673ffffffffffffffffffffffffffffffffffffffff161480156110c05750609e60006001836110ab9190613ce1565b81526020019081526020016000206006015442105b156110f657609e60006001836110d69190613ce1565b815260200190815260200160002060040154826110f39190613ce1565b91505b808061110190613f0a565b91505061101a565b50809250505090565b60008061111d612a53565b905061112a858285612c26565b611135858585612cb2565b60019150509392505050565b600061114b612a53565b73ffffffffffffffffffffffffffffffffffffffff16611169611a2d565b73ffffffffffffffffffffffffffffffffffffffff16146111bf576040517f08c379a00000000000000000000000000000000000000000000000000000000081526004016111b690613b60565b60405180910390fd5b60006111cb6097612a45565b90506000805b828110156112b7576000603c609e60006001856111ee9190613ce1565b8152602001908152602001600020600501544261120b9190613dc2565b6112159190613d37565b90506000609e600060018561122a9190613ce1565b81526020019081526020016000206004015490506000805b83811015611292576103e860028461125a9190613d68565b6112649190613d37565b8261126f9190613ce1565b9150818361127d9190613ce1565b9250848061128a90613f0a565b955050611242565b50808561129f9190613ce1565b945050505080806112af90613f0a565b9150506111d1565b50609d60009054906101000a900473ffffffffffffffffffffffffffffffffffffffff1673ffffffffffffffffffffffffffffffffffffffff166323b872dd306000846040518463ffffffff1660e01b8152600401611318939291906139d1565b602060405180830381600087803b15801561133257600080fd5b505af1158015611346573d6000803e3d6000fd5b505050506040513d601f19601f8201168201806040525081019061136a919061357c565b50809250505090565b609c5481565b611381612a53565b73ffffffffffffffffffffffffffffffffffffffff1661139f611a2d565b73ffffffffffffffffffffffffffffffffffffffff16146113f5576040517f08c379a00000000000000000000000000000000000000000000000000000000081526004016113ec90613b60565b60405180910390fd5b609d60009054906101000a900473ffffffffffffffffffffffffffffffffffffffff1673ffffffffffffffffffffffffffffffffffffffff166370a08231306040518263ffffffff1660e01b8152600401611450919061393b565b60206040518083038186803b15801561146857600080fd5b505afa15801561147c573d6000803e3d6000fd5b505050506040513d601f19601f820116820180604052508101906114a091906135ce565b8111156114e2576040517f08c379a00000000000000000000000000000000000000000000000000000000081526004016114d990613b80565b60405180910390fd5b609d60009054906101000a900473ffffffffffffffffffffffffffffffffffffffff1673ffffffffffffffffffffffffffffffffffffffff166323b872dd30609a60009054906101000a900473ffffffffffffffffffffffffffffffffffffffff16846040518463ffffffff1660e01b81526004016115639392919061399a565b602060405180830381600087803b15801561157d57600080fd5b505af1158015611591573d6000803e3d6000fd5b505050506040513d601f19601f820116820180604052508101906115b5919061357c565b5050565b60006012905090565b60978060000154905081565b6000806115d9612a53565b90506115fa8185856115eb85896127bd565b6115f59190613ce1565b612a5b565b600191505092915050565b600080611610612844565b90506000600190506000609c541461163f57609c546064836116329190613d68565b61163c9190613d37565b90505b670de0b6b3a7640000816116539190613d68565b9250505090565b6000806116676097612a45565b90506000805b8281101561175d573373ffffffffffffffffffffffffffffffffffffffff16609e600060018461169d9190613ce1565b815260200190815260200160002060010160009054906101000a900473ffffffffffffffffffffffffffffffffffffffff1673ffffffffffffffffffffffffffffffffffffffff161480156117145750609e60006001836116fe9190613ce1565b8152602001908152602001600020600601544210155b1561174a57609e600060018361172a9190613ce1565b815260200190815260200160002060040154826117479190613ce1565b91505b808061175590613f0a565b91505061166d565b50809250505090565b6000609a60009054906101000a900473ffffffffffffffffffffffffffffffffffffffff16905090565b6000603360008373ffffffffffffffffffffffffffffffffffffffff1673ffffffffffffffffffffffffffffffffffffffff168152602001908152602001600020549050919050565b6117e1612a53565b73ffffffffffffffffffffffffffffffffffffffff166117ff611a2d565b73ffffffffffffffffffffffffffffffffffffffff1614611855576040517f08c379a000000000000000000000000000000000000000000000000000000000815260040161184c90613b60565b60405180910390fd5b61185f6000612f36565b565b6000808390506000805b848110156118c0576402540be40062cab25d846118889190613d68565b6118929190613d37565b8261189d9190613ce1565b915081836118ab9190613ce1565b925080806118b890613f0a565b91505061186b565b50809250505092915050565b60006118d86001612ffc565b905080156118fc576001600060016101000a81548160ff0219169083151502179055505b61192460405180602001604052806000815250604051806020016040528060008152506130ec565b61192c613149565b33609a60006101000a81548173ffffffffffffffffffffffffffffffffffffffff021916908373ffffffffffffffffffffffffffffffffffffffff16021790555042609b819055507302f21d483becfe74e8e1c67590d265e493498d1e609d60006101000a81548173ffffffffffffffffffffffffffffffffffffffff021916908373ffffffffffffffffffffffffffffffffffffffff1602179055506000609c819055508015611a2a5760008060016101000a81548160ff0219169083151502179055507f7f26b83ff96e1f2b6a682f133852f6798a09c465da95921460cefb38474024986001604051611a219190613a23565b60405180910390a15b50565b6000606560009054906101000a900473ffffffffffffffffffffffffffffffffffffffff16905090565b606060378054611a6690613ed8565b80601f0160208091040260200160405190810160405280929190818152602001828054611a9290613ed8565b8015611adf5780601f10611ab457610100808354040283529160200191611adf565b820191906000526020600020905b815481529060010190602001808311611ac257829003601f168201915b5050505050905090565b600080611af66097612a45565b90506000805b82811015611c5e573373ffffffffffffffffffffffffffffffffffffffff16609e6000600184611b2c9190613ce1565b815260200190815260200160002060010160009054906101000a900473ffffffffffffffffffffffffffffffffffffffff1673ffffffffffffffffffffffffffffffffffffffff161415611c4b576000603c609e6000600185611b8f9190613ce1565b81526020019081526020016000206005015442611bac9190613dc2565b611bb69190613d37565b90506000609e6000600185611bcb9190613ce1565b81526020019081526020016000206004015490506000805b83811015611c38576402540be40062cab25d84611c009190613d68565b611c0a9190613d37565b82611c159190613ce1565b91508183611c239190613ce1565b92508080611c3090613f0a565b915050611be3565b508085611c459190613ce1565b94505050505b8080611c5690613f0a565b915050611afc565b50809250505090565b60988181548110611c7757600080fd5b906000526020600020016000915054906101000a900473ffffffffffffffffffffffffffffffffffffffff1681565b600080611cb1612a53565b90506000611cbf82866127bd565b905083811015611d04576040517f08c379a0000000000000000000000000000000000000000000000000000000008152600401611cfb90613c00565b60405180910390fd5b611d118286868403612a5b565b60019250505092915050565b600080611d28612a53565b9050611d35818585612cb2565b600191505092915050565b6000611d4c60976131a2565b6000611d586097612a45565b90506040518060e0016040528061162e83611d739190613ce1565b81526020013373ffffffffffffffffffffffffffffffffffffffff1681526020016001609c54611da39190613ce1565b815260200184609c54611db69190613ce1565b8152602001848152602001428152602001603c42611dd49190613ce1565b815250609e60008381526020019081526020016000206000820151816000015560208201518160010160006101000a81548173ffffffffffffffffffffffffffffffffffffffff021916908373ffffffffffffffffffffffffffffffffffffffff16021790555060408201518160020155606082015181600301556080820151816004015560a0820151816005015560c0820151816006015590505082609c6000828254611e829190613ce1565b92505081905550609d60009054906101000a900473ffffffffffffffffffffffffffffffffffffffff1673ffffffffffffffffffffffffffffffffffffffff166323b872dd3330866040518463ffffffff1660e01b8152600401611ee8939291906139d1565b602060405180830381600087803b158015611f0257600080fd5b505af1158015611f16573d6000803e3d6000fd5b505050506040513d601f19601f82011682018060405250810190611f3a919061357c565b5061162e81611f499190613ce1565b915050919050565b60998181548110611f6157600080fd5b906000526020600020016000915054906101000a900473ffffffffffffffffffffffffffffffffffffffff1681565b611f98612a53565b73ffffffffffffffffffffffffffffffffffffffff16611fb6611a2d565b73ffffffffffffffffffffffffffffffffffffffff161461200c576040517f08c379a000000000000000000000000000000000000000000000000000000000815260040161200390613b60565b60405180910390fd5b60005b8181101561227a57816098805490501461226257600061202d6131b8565b90506000609c548261203f9190613f81565b9050600061204d6097612a45565b905060005b8181101561225957609e600060018361206b9190613ce1565b815260200190815260200160002060030154831015612246576000805b60988054905081101561218b57609e60006001856120a69190613ce1565b815260200190815260200160002060010160009054906101000a900473ffffffffffffffffffffffffffffffffffffffff1673ffffffffffffffffffffffffffffffffffffffff1660988281548110612128577f4e487b7100000000000000000000000000000000000000000000000000000000600052603260045260246000fd5b9060005260206000200160009054906101000a900473ffffffffffffffffffffffffffffffffffffffff1673ffffffffffffffffffffffffffffffffffffffff161415612178576001915061218b565b808061218390613f0a565b915050612088565b50600015158115151415612244576098609e60006001856121ac9190613ce1565b815260200190815260200160002060010160009054906101000a900473ffffffffffffffffffffffffffffffffffffffff169080600181540180825580915050600190039060005260206000200160009091909190916101000a81548173ffffffffffffffffffffffffffffffffffffffff021916908373ffffffffffffffffffffffffffffffffffffffff16021790555050612259565b505b808061225190613f0a565b915050612052565b50505050612267565b61227a565b808061227290613f0a565b91505061200f565b506122836122a7565b60986099908054612295929190613322565b50609860006122a49190613374565b50565b6122af612a53565b73ffffffffffffffffffffffffffffffffffffffff166122cd611a2d565b73ffffffffffffffffffffffffffffffffffffffff1614612323576040517f08c379a000000000000000000000000000000000000000000000000000000000815260040161231a90613b60565b60405180910390fd5b600061232d610954565b9050600060646050836123409190613d68565b61234a9190613d37565b90506000606460148461235d9190613d68565b6123679190613d37565b905060006098805490508361237c9190613d37565b9050609d60009054906101000a900473ffffffffffffffffffffffffffffffffffffffff1673ffffffffffffffffffffffffffffffffffffffff166323b872dd306000856040518463ffffffff1660e01b81526004016123de939291906139d1565b602060405180830381600087803b1580156123f857600080fd5b505af115801561240c573d6000803e3d6000fd5b505050506040513d601f19601f82011682018060405250810190612430919061357c565b5060005b60988054905081101561256a57609d60009054906101000a900473ffffffffffffffffffffffffffffffffffffffff1673ffffffffffffffffffffffffffffffffffffffff166323b872dd30609884815481106124ba577f4e487b7100000000000000000000000000000000000000000000000000000000600052603260045260246000fd5b9060005260206000200160009054906101000a900473ffffffffffffffffffffffffffffffffffffffff16856040518463ffffffff1660e01b8152600401612504939291906139d1565b602060405180830381600087803b15801561251e57600080fd5b505af1158015612532573d6000803e3d6000fd5b505050506040513d601f19601f82011682018060405250810190612556919061357c565b50808061256290613f0a565b915050612434565b5050505050565b600061257d6097612a45565b905060005b818110156127b9573373ffffffffffffffffffffffffffffffffffffffff16609e60006001846125b29190613ce1565b815260200190815260200160002060010160009054906101000a900473ffffffffffffffffffffffffffffffffffffffff1673ffffffffffffffffffffffffffffffffffffffff161480156126295750609e60006001836126139190613ce1565b8152602001908152602001600020600601544210155b156127a6576000603c609e60006001856126439190613ce1565b815260200190815260200160002060050154426126609190613dc2565b61266a9190613d37565b9050600061269a609e60006001866126829190613ce1565b81526020019081526020016000206004015483611861565b9050609d60009054906101000a900473ffffffffffffffffffffffffffffffffffffffff1673ffffffffffffffffffffffffffffffffffffffff166323b872dd303384609e600060018a6126ee9190613ce1565b81526020019081526020016000206004015461270a9190613ce1565b6040518463ffffffff1660e01b8152600401612728939291906139d1565b602060405180830381600087803b15801561274257600080fd5b505af1158015612756573d6000803e3d6000fd5b505050506040513d601f19601f8201168201806040525081019061277a919061357c565b506000609e600060018661278e9190613ce1565b81526020019081526020016000206004018190555050505b80806127b190613f0a565b915050612582565b5050565b6000603460008473ffffffffffffffffffffffffffffffffffffffff1673ffffffffffffffffffffffffffffffffffffffff16815260200190815260200160002060008373ffffffffffffffffffffffffffffffffffffffff1673ffffffffffffffffffffffffffffffffffffffff16815260200190815260200160002054905092915050565b6000806000905060006128576097612a45565b905060005b8181101561291e573373ffffffffffffffffffffffffffffffffffffffff16609e600060018461288c9190613ce1565b815260200190815260200160002060010160009054906101000a900473ffffffffffffffffffffffffffffffffffffffff1673ffffffffffffffffffffffffffffffffffffffff16141561290b57609e60006001836128eb9190613ce1565b815260200190815260200160002060040154836129089190613ce1565b92505b808061291690613f0a565b91505061285c565b50819250505090565b61292f612a53565b73ffffffffffffffffffffffffffffffffffffffff1661294d611a2d565b73ffffffffffffffffffffffffffffffffffffffff16146129a3576040517f08c379a000000000000000000000000000000000000000000000000000000000815260040161299a90613b60565b60405180910390fd5b600073ffffffffffffffffffffffffffffffffffffffff168173ffffffffffffffffffffffffffffffffffffffff161415612a13576040517f08c379a0000000000000000000000000000000000000000000000000000000008152600401612a0a90613a80565b60405180910390fd5b612a1c81612f36565b50565b609a60009054906101000a900473ffffffffffffffffffffffffffffffffffffffff1681565b600081600001549050919050565b600033905090565b600073ffffffffffffffffffffffffffffffffffffffff168373ffffffffffffffffffffffffffffffffffffffff161415612acb576040517f08c379a0000000000000000000000000000000000000000000000000000000008152600401612ac290613bc0565b60405180910390fd5b600073ffffffffffffffffffffffffffffffffffffffff168273ffffffffffffffffffffffffffffffffffffffff161415612b3b576040517f08c379a0000000000000000000000000000000000000000000000000000000008152600401612b3290613aa0565b60405180910390fd5b80603460008573ffffffffffffffffffffffffffffffffffffffff1673ffffffffffffffffffffffffffffffffffffffff16815260200190815260200160002060008473ffffffffffffffffffffffffffffffffffffffff1673ffffffffffffffffffffffffffffffffffffffff168152602001908152602001600020819055508173ffffffffffffffffffffffffffffffffffffffff168373ffffffffffffffffffffffffffffffffffffffff167f8c5be1e5ebec7d5bd14f71427d1e84f3dd0314c0f7b2291e5b200ac8c7c3b92583604051612c199190613c20565b60405180910390a3505050565b6000612c3284846127bd565b90507fffffffffffffffffffffffffffffffffffffffffffffffffffffffffffffffff8114612cac5781811015612c9e576040517f08c379a0000000000000000000000000000000000000000000000000000000008152600401612c9590613ac0565b60405180910390fd5b612cab8484848403612a5b565b5b50505050565b600073ffffffffffffffffffffffffffffffffffffffff168373ffffffffffffffffffffffffffffffffffffffff161415612d22576040517f08c379a0000000000000000000000000000000000000000000000000000000008152600401612d1990613ba0565b60405180910390fd5b600073ffffffffffffffffffffffffffffffffffffffff168273ffffffffffffffffffffffffffffffffffffffff161415612d92576040517f08c379a0000000000000000000000000000000000000000000000000000000008152600401612d8990613a60565b60405180910390fd5b612d9d838383613213565b6000603360008573ffffffffffffffffffffffffffffffffffffffff1673ffffffffffffffffffffffffffffffffffffffff16815260200190815260200160002054905081811015612e24576040517f08c379a0000000000000000000000000000000000000000000000000000000008152600401612e1b90613ae0565b60405180910390fd5b818103603360008673ffffffffffffffffffffffffffffffffffffffff1673ffffffffffffffffffffffffffffffffffffffff1681526020019081526020016000208190555081603360008573ffffffffffffffffffffffffffffffffffffffff1673ffffffffffffffffffffffffffffffffffffffff1681526020019081526020016000206000828254612eb99190613ce1565b925050819055508273ffffffffffffffffffffffffffffffffffffffff168473ffffffffffffffffffffffffffffffffffffffff167fddf252ad1be2c89b69c2b068fc378daa952ba7f163c4a11628f55a4df523b3ef84604051612f1d9190613c20565b60405180910390a3612f30848484613218565b50505050565b6000606560009054906101000a900473ffffffffffffffffffffffffffffffffffffffff16905081606560006101000a81548173ffffffffffffffffffffffffffffffffffffffff021916908373ffffffffffffffffffffffffffffffffffffffff1602179055508173ffffffffffffffffffffffffffffffffffffffff168173ffffffffffffffffffffffffffffffffffffffff167f8be0079c531659141344cd1fd0a4f28419497f9722a3daafe3b4186f6b6457e060405160405180910390a35050565b60008060019054906101000a900460ff16156130735760018260ff1614801561302b57506130293061321d565b155b61306a576040517f08c379a000000000000000000000000000000000000000000000000000000000815260040161306190613b20565b60405180910390fd5b600090506130e7565b8160ff1660008054906101000a900460ff1660ff16106130c8576040517f08c379a00000000000000000000000000000000000000000000000000000000081526004016130bf90613b20565b60405180910390fd5b816000806101000a81548160ff021916908360ff160217905550600190505b919050565b600060019054906101000a900460ff1661313b576040517f08c379a000000000000000000000000000000000000000000000000000000000815260040161313290613be0565b60405180910390fd5b6131458282613240565b5050565b600060019054906101000a900460ff16613198576040517f08c379a000000000000000000000000000000000000000000000000000000000815260040161318f90613be0565b60405180910390fd5b6131a06132c1565b565b6001816000016000828254019250508190555050565b6000609a60009054906101000a900473ffffffffffffffffffffffffffffffffffffffff16609b5444426040516020016131f594939291906138ed565b6040516020818303038152906040528051906020012060001c905090565b505050565b505050565b6000808273ffffffffffffffffffffffffffffffffffffffff163b119050919050565b600060019054906101000a900460ff1661328f576040517f08c379a000000000000000000000000000000000000000000000000000000000815260040161328690613be0565b60405180910390fd5b81603690805190602001906132a5929190613395565b5080603790805190602001906132bc929190613395565b505050565b600060019054906101000a900460ff16613310576040517f08c379a000000000000000000000000000000000000000000000000000000000815260040161330790613be0565b60405180910390fd5b61332061331b612a53565b612f36565b565b8280548282559060005260206000209081019282156133635760005260206000209182015b82811115613362578254825591600101919060010190613347565b5b509050613370919061341b565b5090565b5080546000825590600052602060002090810190613392919061341b565b50565b8280546133a190613ed8565b90600052602060002090601f0160209004810192826133c3576000855561340a565b82601f106133dc57805160ff191683800117855561340a565b8280016001018555821561340a579182015b828111156134095782518255916020019190600101906133ee565b5b509050613417919061341b565b5090565b5b8082111561343457600081600090555060010161341c565b5090565b6000813590506134478161443d565b92915050565b60008151905061345c81614454565b92915050565b6000813590506134718161446b565b92915050565b6000815190506134868161446b565b92915050565b60006020828403121561349e57600080fd5b60006134ac84828501613438565b91505092915050565b600080604083850312156134c857600080fd5b60006134d685828601613438565b92505060206134e785828601613438565b9150509250929050565b60008060006060848603121561350657600080fd5b600061351486828701613438565b935050602061352586828701613438565b925050604061353686828701613462565b9150509250925092565b6000806040838503121561355357600080fd5b600061356185828601613438565b925050602061357285828601613462565b9150509250929050565b60006020828403121561358e57600080fd5b600061359c8482850161344d565b91505092915050565b6000602082840312156135b757600080fd5b60006135c584828501613462565b91505092915050565b6000602082840312156135e057600080fd5b60006135ee84828501613477565b91505092915050565b6000806040838503121561360a57600080fd5b600061361885828601613462565b925050602061362985828601613462565b9150509250929050565b61363c81613e5d565b82525050565b61364b81613e08565b82525050565b61366261365d82613e08565b613f53565b82525050565b61367181613df6565b82525050565b61368081613e1a565b82525050565b61368f81613e6f565b82525050565b60006136a082613cc5565b6136aa8185613cd0565b93506136ba818560208601613ea5565b6136c38161403f565b840191505092915050565b60006136db602383613cd0565b91506136e68261405d565b604082019050919050565b60006136fe602683613cd0565b9150613709826140ac565b604082019050919050565b6000613721602283613cd0565b915061372c826140fb565b604082019050919050565b6000613744601d83613cd0565b915061374f8261414a565b602082019050919050565b6000613767602683613cd0565b915061377282614173565b604082019050919050565b600061378a602683613cd0565b9150613795826141c2565b604082019050919050565b60006137ad602e83613cd0565b91506137b882614211565b604082019050919050565b60006137d0602b83613cd0565b91506137db82614260565b604082019050919050565b60006137f3602083613cd0565b91506137fe826142af565b602082019050919050565b6000613816601483613cd0565b9150613821826142d8565b602082019050919050565b6000613839602583613cd0565b915061384482614301565b604082019050919050565b600061385c602483613cd0565b915061386782614350565b604082019050919050565b600061387f602b83613cd0565b915061388a8261439f565b604082019050919050565b60006138a2602583613cd0565b91506138ad826143ee565b604082019050919050565b6138c181613e46565b82525050565b6138d86138d382613e46565b613f77565b82525050565b6138e781613e50565b82525050565b60006138f98287613651565b60148201915061390982866138c7565b60208201915061391982856138c7565b60208201915061392982846138c7565b60208201915081905095945050505050565b60006020820190506139506000830184613668565b92915050565b600060208201905061396b6000830184613642565b92915050565b60006040820190506139866000830185613633565b61399360208301846138b8565b9392505050565b60006060820190506139af6000830186613668565b6139bc6020830185613633565b6139c960408301846138b8565b949350505050565b60006060820190506139e66000830186613668565b6139f36020830185613668565b613a0060408301846138b8565b949350505050565b6000602082019050613a1d6000830184613677565b92915050565b6000602082019050613a386000830184613686565b92915050565b60006020820190508181036000830152613a588184613695565b905092915050565b60006020820190508181036000830152613a79816136ce565b9050919050565b60006020820190508181036000830152613a99816136f1565b9050919050565b60006020820190508181036000830152613ab981613714565b9050919050565b60006020820190508181036000830152613ad981613737565b9050919050565b60006020820190508181036000830152613af98161375a565b9050919050565b60006020820190508181036000830152613b198161377d565b9050919050565b60006020820190508181036000830152613b39816137a0565b9050919050565b60006020820190508181036000830152613b59816137c3565b9050919050565b60006020820190508181036000830152613b79816137e6565b9050919050565b60006020820190508181036000830152613b9981613809565b9050919050565b60006020820190508181036000830152613bb98161382c565b9050919050565b60006020820190508181036000830152613bd98161384f565b9050919050565b60006020820190508181036000830152613bf981613872565b9050919050565b60006020820190508181036000830152613c1981613895565b9050919050565b6000602082019050613c3560008301846138b8565b92915050565b600060e082019050613c50600083018a6138b8565b613c5d6020830189613668565b613c6a60408301886138b8565b613c7760608301876138b8565b613c8460808301866138b8565b613c9160a08301856138b8565b613c9e60c08301846138b8565b98975050505050505050565b6000602082019050613cbf60008301846138de565b92915050565b600081519050919050565b600082825260208201905092915050565b6000613cec82613e46565b9150613cf783613e46565b9250827fffffffffffffffffffffffffffffffffffffffffffffffffffffffffffffffff03821115613d2c57613d2b613fb2565b5b828201905092915050565b6000613d4282613e46565b9150613d4d83613e46565b925082613d5d57613d5c613fe1565b5b828204905092915050565b6000613d7382613e46565b9150613d7e83613e46565b9250817fffffffffffffffffffffffffffffffffffffffffffffffffffffffffffffffff0483118215151615613db757613db6613fb2565b5b828202905092915050565b6000613dcd82613e46565b9150613dd883613e46565b925082821015613deb57613dea613fb2565b5b828203905092915050565b6000613e0182613e26565b9050919050565b6000613e1382613e26565b9050919050565b60008115159050919050565b600073ffffffffffffffffffffffffffffffffffffffff82169050919050565b6000819050919050565b600060ff82169050919050565b6000613e6882613e81565b9050919050565b6000613e7a82613e50565b9050919050565b6000613e8c82613e93565b9050919050565b6000613e9e82613e26565b9050919050565b60005b83811015613ec3578082015181840152602081019050613ea8565b83811115613ed2576000848401525b50505050565b60006002820490506001821680613ef057607f821691505b60208210811415613f0457613f03614010565b5b50919050565b6000613f1582613e46565b91507fffffffffffffffffffffffffffffffffffffffffffffffffffffffffffffffff821415613f4857613f47613fb2565b5b600182019050919050565b6000613f5e82613f65565b9050919050565b6000613f7082614050565b9050919050565b6000819050919050565b6000613f8c82613e46565b9150613f9783613e46565b925082613fa757613fa6613fe1565b5b828206905092915050565b7f4e487b7100000000000000000000000000000000000000000000000000000000600052601160045260246000fd5b7f4e487b7100000000000000000000000000000000000000000000000000000000600052601260045260246000fd5b7f4e487b7100000000000000000000000000000000000000000000000000000000600052602260045260246000fd5b6000601f19601f8301169050919050565b60008160601b9050919050565b7f45524332303a207472616e7366657220746f20746865207a65726f206164647260008201527f6573730000000000000000000000000000000000000000000000000000000000602082015250565b7f4f776e61626c653a206e6577206f776e657220697320746865207a65726f206160008201527f6464726573730000000000000000000000000000000000000000000000000000602082015250565b7f45524332303a20617070726f766520746f20746865207a65726f20616464726560008201527f7373000000000000000000000000000000000000000000000000000000000000602082015250565b7f45524332303a20696e73756666696369656e7420616c6c6f77616e6365000000600082015250565b7f45524332303a207472616e7366657220616d6f756e742065786365656473206260008201527f616c616e63650000000000000000000000000000000000000000000000000000602082015250565b7f576974686472617720416d6f756e74206d75737420626520677265617465722060008201527f7468616e20300000000000000000000000000000000000000000000000000000602082015250565b7f496e697469616c697a61626c653a20636f6e747261637420697320616c72656160008201527f647920696e697469616c697a6564000000000000000000000000000000000000602082015250565b7f596f752063616e6e6f74207769746864726177206d6f7265207468616e20796f60008201527f75206465706f7369746564000000000000000000000000000000000000000000602082015250565b7f4f776e61626c653a2063616c6c6572206973206e6f7420746865206f776e6572600082015250565b7f496e73756666696369656e742042616c616e6365000000000000000000000000600082015250565b7f45524332303a207472616e736665722066726f6d20746865207a65726f20616460008201527f6472657373000000000000000000000000000000000000000000000000000000602082015250565b7f45524332303a20617070726f76652066726f6d20746865207a65726f2061646460008201527f7265737300000000000000000000000000000000000000000000000000000000602082015250565b7f496e697469616c697a61626c653a20636f6e7472616374206973206e6f74206960008201527f6e697469616c697a696e67000000000000000000000000000000000000000000602082015250565b7f45524332303a2064656372656173656420616c6c6f77616e63652062656c6f7760008201527f207a65726f000000000000000000000000000000000000000000000000000000602082015250565b61444681613df6565b811461445157600080fd5b50565b61445d81613e1a565b811461446857600080fd5b50565b61447481613e46565b811461447f57600080fd5b5056fea26469706673582212206bc0410f60c378f0b9abc89ecac4781729626daa2105fb777e4f869ecea0d4a764736f6c63430008040033",
  "linkReferences": {},
  "deployedLinkReferences": {}
}