{
  "_format": "hh-sol-artifact-1",
  "contractName": "POGPlay",
  "sourceName": "contracts/POGPlay.sol",
  "abi": [
    {
      "anonymous": false,
      "inputs": [
        {
          "indexed": true,
          "internalType": "address",
          "name": "owner",
          "type": "address"
        },
        {
          "indexed": true,
          "internalType": "address",
          "name": "spender",
          "type": "address"
        },
        {
          "indexed": false,
          "internalType": "uint256",
          "name": "value",
          "type": "uint256"
        }
      ],
      "name": "Approval",
      "type": "event"
    },
    {
      "anonymous": false,
      "inputs": [
        {
          "indexed": false,
          "internalType": "uint8",
          "name": "version",
          "type": "uint8"
        }
      ],
      "name": "Initialized",
      "type": "event"
    },
    {
      "anonymous": false,
      "inputs": [
        {
          "indexed": true,
          "internalType": "address",
          "name": "from",
          "type": "address"
        },
        {
          "indexed": true,
          "internalType": "address",
          "name": "to",
          "type": "address"
        },
        {
          "indexed": false,
          "internalType": "uint256",
          "name": "value",
          "type": "uint256"
        }
      ],
      "name": "Transfer",
      "type": "event"
    },
    {
      "inputs": [],
      "name": "_itemIds",
      "outputs": [
        {
          "internalType": "uint256",
          "name": "_value",
          "type": "uint256"
        }
      ],
      "stateMutability": "view",
      "type": "function"
    },
    {
      "inputs": [
        {
          "internalType": "address",
          "name": "owner",
          "type": "address"
        },
        {
          "internalType": "address",
          "name": "spender",
          "type": "address"
        }
      ],
      "name": "allowance",
      "outputs": [
        {
          "internalType": "uint256",
          "name": "",
          "type": "uint256"
        }
      ],
      "stateMutability": "view",
      "type": "function"
    },
    {
      "inputs": [
        {
          "internalType": "address",
          "name": "spender",
          "type": "address"
        },
        {
          "internalType": "uint256",
          "name": "amount",
          "type": "uint256"
        }
      ],
      "name": "approve",
      "outputs": [
        {
          "internalType": "bool",
          "name": "",
          "type": "bool"
        }
      ],
      "stateMutability": "nonpayable",
      "type": "function"
    },
    {
      "inputs": [
        {
          "internalType": "address",
          "name": "account",
          "type": "address"
        }
      ],
      "name": "balanceOf",
      "outputs": [
        {
          "internalType": "uint256",
          "name": "",
          "type": "uint256"
        }
      ],
      "stateMutability": "view",
      "type": "function"
    },
    {
      "inputs": [],
      "name": "burnHere",
      "outputs": [
        {
          "internalType": "uint256",
          "name": "",
          "type": "uint256"
        }
      ],
      "stateMutability": "payable",
      "type": "function"
    },
    {
      "inputs": [
        {
          "internalType": "uint256",
          "name": "principal",
          "type": "uint256"
        },
        {
          "internalType": "uint256",
          "name": "noOfDaysPassed",
          "type": "uint256"
        }
      ],
      "name": "calculateNetInterestValue",
      "outputs": [
        {
          "internalType": "uint256",
          "name": "",
          "type": "uint256"
        }
      ],
      "stateMutability": "pure",
      "type": "function"
    },
    {
      "inputs": [],
      "name": "chanceOfUserToBeWinner",
      "outputs": [
        {
          "internalType": "uint256",
          "name": "",
          "type": "uint256"
        }
      ],
      "stateMutability": "view",
      "type": "function"
    },
    {
      "inputs": [],
      "name": "decimals",
      "outputs": [
        {
          "internalType": "uint8",
          "name": "",
          "type": "uint8"
        }
      ],
      "stateMutability": "view",
      "type": "function"
    },
    {
      "inputs": [
        {
          "internalType": "address",
          "name": "spender",
          "type": "address"
        },
        {
          "internalType": "uint256",
          "name": "subtractedValue",
          "type": "uint256"
        }
      ],
      "name": "decreaseAllowance",
      "outputs": [
        {
          "internalType": "bool",
          "name": "",
          "type": "bool"
        }
      ],
      "stateMutability": "nonpayable",
      "type": "function"
    },
    {
      "inputs": [
        {
          "internalType": "uint256",
          "name": "amount",
          "type": "uint256"
        }
      ],
      "name": "deposit",
      "outputs": [
        {
          "internalType": "uint256",
          "name": "",
          "type": "uint256"
        }
      ],
      "stateMutability": "payable",
      "type": "function"
    },
    {
      "inputs": [],
      "name": "distributePrizeMoney",
      "outputs": [],
      "stateMutability": "payable",
      "type": "function"
    },
    {
      "inputs": [],
      "name": "duration",
      "outputs": [
        {
          "internalType": "uint256",
          "name": "",
          "type": "uint256"
        }
      ],
      "stateMutability": "view",
      "type": "function"
    },
    {
      "inputs": [
        {
          "internalType": "uint256",
          "name": "userAmount",
          "type": "uint256"
        }
      ],
      "name": "forceWithdraw",
      "outputs": [],
      "stateMutability": "payable",
      "type": "function"
    },
    {
      "inputs": [],
      "name": "getMyAccumulatedInterest",
      "outputs": [
        {
          "internalType": "uint256",
          "name": "",
          "type": "uint256"
        }
      ],
      "stateMutability": "view",
      "type": "function"
    },
    {
      "inputs": [],
      "name": "getMyTotalDeposits",
      "outputs": [
        {
          "internalType": "uint256",
          "name": "",
          "type": "uint256"
        }
      ],
      "stateMutability": "view",
      "type": "function"
    },
    {
      "inputs": [],
      "name": "getPlayerData",
      "outputs": [
        {
          "components": [
            {
              "internalType": "uint256",
              "name": "tokenNumber",
              "type": "uint256"
            },
            {
              "internalType": "address",
              "name": "playerAddress",
              "type": "address"
            },
            {
              "internalType": "uint256",
              "name": "startNumber",
              "type": "uint256"
            },
            {
              "internalType": "uint256",
              "name": "endNumber",
              "type": "uint256"
            },
            {
              "internalType": "uint256",
              "name": "amount",
              "type": "uint256"
            },
            {
              "internalType": "uint256",
              "name": "startTime",
              "type": "uint256"
            },
            {
              "internalType": "uint256",
              "name": "end",
              "type": "uint256"
            }
          ],
          "internalType": "struct POGPlay.PlayersGravity[]",
          "name": "",
          "type": "tuple[]"
        }
      ],
      "stateMutability": "view",
      "type": "function"
    },
    {
      "inputs": [],
      "name": "getPrizeMoney",
      "outputs": [
        {
          "internalType": "uint256",
          "name": "",
          "type": "uint256"
        }
      ],
      "stateMutability": "view",
      "type": "function"
    },
    {
      "inputs": [],
      "name": "getRandomNumber",
      "outputs": [
        {
          "internalType": "uint256",
          "name": "",
          "type": "uint256"
        }
      ],
      "stateMutability": "view",
      "type": "function"
    },
    {
      "inputs": [
        {
          "internalType": "address",
          "name": "spender",
          "type": "address"
        },
        {
          "internalType": "uint256",
          "name": "addedValue",
          "type": "uint256"
        }
      ],
      "name": "increaseAllowance",
      "outputs": [
        {
          "internalType": "bool",
          "name": "",
          "type": "bool"
        }
      ],
      "stateMutability": "nonpayable",
      "type": "function"
    },
    {
      "inputs": [],
      "name": "initialize",
      "outputs": [],
      "stateMutability": "nonpayable",
      "type": "function"
    },
    {
      "inputs": [
        {
          "internalType": "uint256",
          "name": "",
          "type": "uint256"
        }
      ],
      "name": "lastLotteryRoundWinners",
      "outputs": [
        {
          "internalType": "address",
          "name": "",
          "type": "address"
        }
      ],
      "stateMutability": "view",
      "type": "function"
    },
    {
      "inputs": [],
      "name": "name",
      "outputs": [
        {
          "internalType": "string",
          "name": "",
          "type": "string"
        }
      ],
      "stateMutability": "view",
      "type": "function"
    },
    {
      "inputs": [],
      "name": "netClaimableAmount",
      "outputs": [
        {
          "internalType": "uint256",
          "name": "",
          "type": "uint256"
        }
      ],
      "stateMutability": "view",
      "type": "function"
    },
    {
      "inputs": [],
      "name": "netLockedAmount",
      "outputs": [
        {
          "internalType": "uint256",
          "name": "",
          "type": "uint256"
        }
      ],
      "stateMutability": "view",
      "type": "function"
    },
    {
      "inputs": [],
      "name": "owner",
      "outputs": [
        {
          "internalType": "address payable",
          "name": "",
          "type": "address"
        }
      ],
      "stateMutability": "view",
      "type": "function"
    },
    {
      "inputs": [
        {
          "internalType": "uint256",
          "name": "",
          "type": "uint256"
        }
      ],
      "name": "playerData",
      "outputs": [
        {
          "internalType": "uint256",
          "name": "tokenNumber",
          "type": "uint256"
        },
        {
          "internalType": "address",
          "name": "playerAddress",
          "type": "address"
        },
        {
          "internalType": "uint256",
          "name": "startNumber",
          "type": "uint256"
        },
        {
          "internalType": "uint256",
          "name": "endNumber",
          "type": "uint256"
        },
        {
          "internalType": "uint256",
          "name": "amount",
          "type": "uint256"
        },
        {
          "internalType": "uint256",
          "name": "startTime",
          "type": "uint256"
        },
        {
          "internalType": "uint256",
          "name": "end",
          "type": "uint256"
        }
      ],
      "stateMutability": "view",
      "type": "function"
    },
    {
      "inputs": [],
      "name": "redeemClaimable",
      "outputs": [],
      "stateMutability": "payable",
      "type": "function"
    },
    {
      "inputs": [
        {
          "internalType": "address",
          "name": "addr",
          "type": "address"
        }
      ],
      "name": "setWinners",
      "outputs": [],
      "stateMutability": "nonpayable",
      "type": "function"
    },
    {
      "inputs": [
        {
          "internalType": "uint256",
          "name": "noOfWinners",
          "type": "uint256"
        }
      ],
      "name": "startLottery",
      "outputs": [],
      "stateMutability": "payable",
      "type": "function"
    },
    {
      "inputs": [],
      "name": "symbol",
      "outputs": [
        {
          "internalType": "string",
          "name": "",
          "type": "string"
        }
      ],
      "stateMutability": "view",
      "type": "function"
    },
    {
      "inputs": [],
      "name": "total",
      "outputs": [
        {
          "internalType": "uint256",
          "name": "",
          "type": "uint256"
        }
      ],
      "stateMutability": "view",
      "type": "function"
    },
    {
      "inputs": [],
      "name": "totalSupply",
      "outputs": [
        {
          "internalType": "uint256",
          "name": "",
          "type": "uint256"
        }
      ],
      "stateMutability": "view",
      "type": "function"
    },
    {
      "inputs": [
        {
          "internalType": "address",
          "name": "to",
          "type": "address"
        },
        {
          "internalType": "uint256",
          "name": "amount",
          "type": "uint256"
        }
      ],
      "name": "transfer",
      "outputs": [
        {
          "internalType": "bool",
          "name": "",
          "type": "bool"
        }
      ],
      "stateMutability": "nonpayable",
      "type": "function"
    },
    {
      "inputs": [
        {
          "internalType": "address",
          "name": "from",
          "type": "address"
        },
        {
          "internalType": "address",
          "name": "to",
          "type": "address"
        },
        {
          "internalType": "uint256",
          "name": "amount",
          "type": "uint256"
        }
      ],
      "name": "transferFrom",
      "outputs": [
        {
          "internalType": "bool",
          "name": "",
          "type": "bool"
        }
      ],
      "stateMutability": "nonpayable",
      "type": "function"
    },
    {
      "inputs": [
        {
          "internalType": "uint256",
          "name": "",
          "type": "uint256"
        }
      ],
      "name": "winners",
      "outputs": [
        {
          "internalType": "address",
          "name": "",
          "type": "address"
        }
      ],
      "stateMutability": "view",
      "type": "function"
    }
  ],
  "bytecode": "0x608060405234801561001057600080fd5b50613eec806100206000396000f3fe6080604052600436106102045760003560e01c80636d9e1cc211610118578063a9059cbb116100a0578063d0342d651161006f578063d0342d6514610791578063d357d0ba1461079b578063dbdff2c1146107a5578063dd62ed3e146107d0578063e2a5cd2c1461080d57610204565b8063a9059cbb146106cb578063b6b55f2514610708578063b8033d7614610738578063c6bec93a1461077557610204565b80638da5cb5b116100e75780638da5cb5b146105d057806395d89b41146105fb57806398c98cad14610626578063a2fb117514610651578063a457c2d71461068e57610204565b80636d9e1cc21461051457806370a082311461053f57806379a0c0731461057c5780638129fc1c146105b957610204565b80631930b13a1161019b5780632ddbd13a1161016a5780632ddbd13a1461042b578063313ce5671461045657806334a7f1931461048157806339509351146104ac5780635d0dd51a146104e957610204565b80631930b13a1461037a5780631cf1f4ba146103a557806323b872dd146103d057806327f2ac6c1461040d57610204565b80630dee1929116101d75780630dee1929146102df5780630fb5a6b4146103085780630fcc56f71461033357806318160ddd1461034f57610204565b806306fdde03146102095780630737c24b14610234578063095ea7b31461025f5780630aec4ed11461029c575b600080fd5b34801561021557600080fd5b5061021e610838565b60405161022b919061353a565b60405180910390f35b34801561024057600080fd5b506102496108ca565b60405161025691906136bc565b60405180910390f35b34801561026b57600080fd5b5061028660048036038101906102819190612f8a565b6109ce565b6040516102939190613504565b60405180910390f35b3480156102a857600080fd5b506102c360048036038101906102be9190612fef565b6109f1565b6040516102d697969594939291906136d7565b60405180910390f35b3480156102eb57600080fd5b5061030660048036038101906103019190612ed6565b610a53565b005b34801561031457600080fd5b5061031d610ab9565b60405161032a91906136bc565b60405180910390f35b61034d60048036038101906103489190612fef565b610abe565b005b34801561035b57600080fd5b50610364610efd565b60405161037191906136bc565b60405180910390f35b34801561038657600080fd5b5061038f610f07565b60405161039c91906136bc565b60405180910390f35b3480156103b157600080fd5b506103ba611012565b6040516103c791906134e2565b60405180910390f35b3480156103dc57600080fd5b506103f760048036038101906103f29190612f3b565b6110a8565b6040516104049190613504565b60405180910390f35b6104156110d7565b60405161042291906136bc565b60405180910390f35b34801561043757600080fd5b5061044061128e565b60405161044d91906136bc565b60405180910390f35b34801561046257600080fd5b5061046b611294565b6040516104789190613746565b60405180910390f35b34801561048d57600080fd5b5061049661129d565b6040516104a391906136bc565b60405180910390f35b3480156104b857600080fd5b506104d360048036038101906104ce9190612f8a565b6112a9565b6040516104e09190613504565b60405180910390f35b3480156104f557600080fd5b506104fe6112e0565b60405161050b91906136bc565b60405180910390f35b34801561052057600080fd5b5061052961131d565b60405161053691906136bc565b60405180910390f35b34801561054b57600080fd5b5061056660048036038101906105619190612ed6565b611429565b60405161057391906136bc565b60405180910390f35b34801561058857600080fd5b506105a3600480360381019061059e9190613041565b611472565b6040516105b091906136bc565b60405180910390f35b3480156105c557600080fd5b506105ce6114dd565b005b3480156105dc57600080fd5b506105e5611636565b6040516105f29190613459565b60405180910390f35b34801561060757600080fd5b5061061061165c565b60405161061d919061353a565b60405180910390f35b34801561063257600080fd5b5061063b6116ee565b60405161064891906136bc565b60405180910390f35b34801561065d57600080fd5b5061067860048036038101906106739190612fef565b61186e565b604051610685919061343e565b60405180910390f35b34801561069a57600080fd5b506106b560048036038101906106b09190612f8a565b6118ad565b6040516106c29190613504565b60405180910390f35b3480156106d757600080fd5b506106f260048036038101906106ed9190612f8a565b611924565b6040516106ff9190613504565b60405180910390f35b610722600480360381019061071d9190612fef565b611947565b60405161072f91906136bc565b60405180910390f35b34801561074457600080fd5b5061075f600480360381019061075a9190612fef565b611b58565b60405161076c919061343e565b60405180910390f35b61078f600480360381019061078a9190612fef565b611b97565b005b610799611fb6565b005b6107a3612204565b005b3480156107b157600080fd5b506107ba612452565b6040516107c791906136bc565b60405180910390f35b3480156107dc57600080fd5b506107f760048036038101906107f29190612eff565b6124ad565b60405161080491906136bc565b60405180910390f35b34801561081957600080fd5b50610822612534565b60405161082f91906136bc565b60405180910390f35b606060368054610847906139ad565b80601f0160208091040260200160405190810160405280929190818152602001828054610873906139ad565b80156108c05780601f10610895576101008083540402835291602001916108c0565b820191906000526020600020905b8154815290600101906020018083116108a357829003601f168201915b5050505050905090565b6000806108d76065612617565b90506000805b828110156109c557600062015180606c60006001856108fc91906137b6565b815260200190815260200160002060050154426109199190613897565b610923919061380c565b90506000606c600060018561093891906137b6565b81526020019081526020016000206004015490506000805b838110156109a0576103e8600384610968919061383d565b610972919061380c565b8261097d91906137b6565b9150818361098b91906137b6565b92508480610998906139df565b955050610950565b5080856109ad91906137b6565b945050505080806109bd906139df565b9150506108dd565b50809250505090565b6000806109d9612625565b90506109e681858561262d565b600191505092915050565b606c6020528060005260406000206000915090508060000154908060010160009054906101000a900473ffffffffffffffffffffffffffffffffffffffff16908060020154908060030154908060040154908060050154908060060154905087565b6066819080600181540180825580915050600190039060005260206000200160009091909190916101000a81548173ffffffffffffffffffffffffffffffffffffffff021916908373ffffffffffffffffffffffffffffffffffffffff16021790555050565b603c81565b60008111610b01576040517f08c379a0000000000000000000000000000000000000000000000000000000008152600401610af8906135dc565b60405180910390fd5b610b09610f07565b811115610b4b576040517f08c379a0000000000000000000000000000000000000000000000000000000008152600401610b429061361c565b60405180910390fd5b6000610b576065612617565b9050600082905060005b82811015610ef7573373ffffffffffffffffffffffffffffffffffffffff16606c6000600184610b9191906137b6565b815260200190815260200160002060010160009054906101000a900473ffffffffffffffffffffffffffffffffffffffff1673ffffffffffffffffffffffffffffffffffffffff16148015610c075750606c6000600183610bf291906137b6565b81526020019081526020016000206006015442105b15610ee457600062015180606c6000600185610c2391906137b6565b81526020019081526020016000206005015442610c409190613897565b610c4a919061380c565b90506000816002610c5b919061383d565b601c610c679190613897565b90506000606482610c78919061380c565b85610c83919061383d565b905060008186610c939190613897565b905085606c6000600188610ca791906137b6565b8152602001908152602001600020600401541115610db357606b60009054906101000a900473ffffffffffffffffffffffffffffffffffffffff1673ffffffffffffffffffffffffffffffffffffffff166323b872dd3033846040518463ffffffff1660e01b8152600401610d1e939291906134ab565b602060405180830381600087803b158015610d3857600080fd5b505af1158015610d4c573d6000803e3d6000fd5b505050506040513d601f19601f82011682018060405250810190610d709190612fc6565b5080606c6000600188610d8391906137b6565b81526020019081526020016000206004016000828254610da39190613897565b9250508190555050505050610ef7565b606b60009054906101000a900473ffffffffffffffffffffffffffffffffffffffff1673ffffffffffffffffffffffffffffffffffffffff166323b872dd3033606c600060018b610e0491906137b6565b8152602001908152602001600020600401546040518463ffffffff1660e01b8152600401610e34939291906134ab565b602060405180830381600087803b158015610e4e57600080fd5b505af1158015610e62573d6000803e3d6000fd5b505050506040513d601f19601f82011682018060405250810190610e869190612fc6565b506000606c6000600188610e9a91906137b6565b815260200190815260200160002060040181905550606c6000600187610ec091906137b6565b81526020019081526020016000206004015486610edd9190613897565b9550505050505b8080610eef906139df565b915050610b61565b50505050565b6000603554905090565b600080610f146065612617565b90506000805b82811015611009573373ffffffffffffffffffffffffffffffffffffffff16606c6000600184610f4a91906137b6565b815260200190815260200160002060010160009054906101000a900473ffffffffffffffffffffffffffffffffffffffff1673ffffffffffffffffffffffffffffffffffffffff16148015610fc05750606c6000600183610fab91906137b6565b81526020019081526020016000206006015442105b15610ff657606c6000600183610fd691906137b6565b81526020019081526020016000206004015482610ff391906137b6565b91505b8080611001906139df565b915050610f1a565b50809250505090565b606060006110206065612617565b905060008167ffffffffffffffff811115611064577f4e487b7100000000000000000000000000000000000000000000000000000000600052604160045260246000fd5b60405190808252806020026020018201604052801561109d57816020015b61108a612d19565b8152602001906001900390816110825790505b509050809250505090565b6000806110b3612625565b90506110c08582856127f8565b6110cb858585612884565b60019150509392505050565b6000806110e46065612617565b90506000805b828110156111d257600062015180606c600060018561110991906137b6565b815260200190815260200160002060050154426111269190613897565b611130919061380c565b90506000606c600060018561114591906137b6565b81526020019081526020016000206004015490506000805b838110156111ad576103e8600284611175919061383d565b61117f919061380c565b8261118a91906137b6565b9150818361119891906137b6565b925084806111a5906139df565b95505061115d565b5080856111ba91906137b6565b945050505080806111ca906139df565b9150506110ea565b50606b60009054906101000a900473ffffffffffffffffffffffffffffffffffffffff1673ffffffffffffffffffffffffffffffffffffffff166323b872dd306000846040518463ffffffff1660e01b8152600401611233939291906134ab565b602060405180830381600087803b15801561124d57600080fd5b505af1158015611261573d6000803e3d6000fd5b505050506040513d601f19601f820116820180604052508101906112859190612fc6565b50809250505090565b606a5481565b60006012905090565b60658060000154905081565b6000806112b4612625565b90506112d58185856112c685896124ad565b6112d091906137b6565b61262d565b600191505092915050565b6000806112eb612534565b9050600080606a541461131557606a54606483611308919061383d565b611312919061380c565b90505b809250505090565b60008061132a6065612617565b90506000805b82811015611420573373ffffffffffffffffffffffffffffffffffffffff16606c600060018461136091906137b6565b815260200190815260200160002060010160009054906101000a900473ffffffffffffffffffffffffffffffffffffffff1673ffffffffffffffffffffffffffffffffffffffff161480156113d75750606c60006001836113c191906137b6565b8152602001908152602001600020600601544210155b1561140d57606c60006001836113ed91906137b6565b8152602001908152602001600020600401548261140a91906137b6565b91505b8080611418906139df565b915050611330565b50809250505090565b6000603360008373ffffffffffffffffffffffffffffffffffffffff1673ffffffffffffffffffffffffffffffffffffffff168152602001908152602001600020549050919050565b6000808390506000805b848110156114d1576402540be40062cab25d84611499919061383d565b6114a3919061380c565b826114ae91906137b6565b915081836114bc91906137b6565b925080806114c9906139df565b91505061147c565b50809250505092915050565b60006114e96001612b08565b9050801561150d576001600060016101000a81548160ff0219169083151502179055505b6115356040518060200160405280600081525060405180602001604052806000815250612bf8565b33606860006101000a81548173ffffffffffffffffffffffffffffffffffffffff021916908373ffffffffffffffffffffffffffffffffffffffff160217905550426069819055507302f21d483becfe74e8e1c67590d265e493498d1e606b60006101000a81548173ffffffffffffffffffffffffffffffffffffffff021916908373ffffffffffffffffffffffffffffffffffffffff1602179055506000606a8190555080156116335760008060016101000a81548160ff0219169083151502179055507f7f26b83ff96e1f2b6a682f133852f6798a09c465da95921460cefb3847402498600160405161162a919061351f565b60405180910390a15b50565b606860009054906101000a900473ffffffffffffffffffffffffffffffffffffffff1681565b60606037805461166b906139ad565b80601f0160208091040260200160405190810160405280929190818152602001828054611697906139ad565b80156116e45780601f106116b9576101008083540402835291602001916116e4565b820191906000526020600020905b8154815290600101906020018083116116c757829003601f168201915b5050505050905090565b6000806116fb6065612617565b90506000805b82811015611865573373ffffffffffffffffffffffffffffffffffffffff16606c600060018461173191906137b6565b815260200190815260200160002060010160009054906101000a900473ffffffffffffffffffffffffffffffffffffffff1673ffffffffffffffffffffffffffffffffffffffff16141561185257600062015180606c600060018561179691906137b6565b815260200190815260200160002060050154426117b39190613897565b6117bd919061380c565b90506000606c60006001856117d291906137b6565b81526020019081526020016000206004015490506000805b8381101561183f576402540be40062cab25d84611807919061383d565b611811919061380c565b8261181c91906137b6565b9150818361182a91906137b6565b92508080611837906139df565b9150506117ea565b50808561184c91906137b6565b94505050505b808061185d906139df565b915050611701565b50809250505090565b6066818154811061187e57600080fd5b906000526020600020016000915054906101000a900473ffffffffffffffffffffffffffffffffffffffff1681565b6000806118b8612625565b905060006118c682866124ad565b90508381101561190b576040517f08c379a00000000000000000000000000000000000000000000000000000000081526004016119029061369c565b60405180910390fd5b611918828686840361262d565b60019250505092915050565b60008061192f612625565b905061193c818585612884565b600191505092915050565b60006119536065612c55565b600061195f6065612617565b90506040518060e0016040528061162e8361197a91906137b6565b81526020013373ffffffffffffffffffffffffffffffffffffffff1681526020016001606a546119aa91906137b6565b815260200184606a546119bd91906137b6565b8152602001848152602001428152602001603c426119db91906137b6565b815250606c60008381526020019081526020016000206000820151816000015560208201518160010160006101000a81548173ffffffffffffffffffffffffffffffffffffffff021916908373ffffffffffffffffffffffffffffffffffffffff16021790555060408201518160020155606082015181600301556080820151816004015560a0820151816005015560c0820151816006015590505082606a6000828254611a8991906137b6565b92505081905550606b60009054906101000a900473ffffffffffffffffffffffffffffffffffffffff1673ffffffffffffffffffffffffffffffffffffffff166323b872dd3330866040518463ffffffff1660e01b8152600401611aef939291906134ab565b602060405180830381600087803b158015611b0957600080fd5b505af1158015611b1d573d6000803e3d6000fd5b505050506040513d601f19601f82011682018060405250810190611b419190612fc6565b5061162e81611b5091906137b6565b915050919050565b60678181548110611b6857600080fd5b906000526020600020016000915054906101000a900473ffffffffffffffffffffffffffffffffffffffff1681565b60005b81811015611e05578160668054905014611ded576000611bb8612452565b90506000606a5482611bca9190613a56565b90506000611bd86065612617565b905060005b81811015611de457606c6000600183611bf691906137b6565b815260200190815260200160002060030154831015611dd1576000805b606680549050811015611d1657606c6000600185611c3191906137b6565b815260200190815260200160002060010160009054906101000a900473ffffffffffffffffffffffffffffffffffffffff1673ffffffffffffffffffffffffffffffffffffffff1660668281548110611cb3577f4e487b7100000000000000000000000000000000000000000000000000000000600052603260045260246000fd5b9060005260206000200160009054906101000a900473ffffffffffffffffffffffffffffffffffffffff1673ffffffffffffffffffffffffffffffffffffffff161415611d035760019150611d16565b8080611d0e906139df565b915050611c13565b50600015158115151415611dcf576066606c6000600185611d3791906137b6565b815260200190815260200160002060010160009054906101000a900473ffffffffffffffffffffffffffffffffffffffff169080600181540180825580915050600190039060005260206000200160009091909190916101000a81548173ffffffffffffffffffffffffffffffffffffffff021916908373ffffffffffffffffffffffffffffffffffffffff16021790555050611de4565b505b8080611ddc906139df565b915050611bdd565b50505050611df2565b611e05565b8080611dfd906139df565b915050611b9a565b50611e0e611fb6565b6000606b60009054906101000a900473ffffffffffffffffffffffffffffffffffffffff1673ffffffffffffffffffffffffffffffffffffffff166370a08231306040518263ffffffff1660e01b8152600401611e6b919061343e565b60206040518083038186803b158015611e8357600080fd5b505afa158015611e97573d6000803e3d6000fd5b505050506040513d601f19601f82011682018060405250810190611ebb9190613018565b9050606b60009054906101000a900473ffffffffffffffffffffffffffffffffffffffff1673ffffffffffffffffffffffffffffffffffffffff166323b872dd30606860009054906101000a900473ffffffffffffffffffffffffffffffffffffffff16846040518463ffffffff1660e01b8152600401611f3e93929190613474565b602060405180830381600087803b158015611f5857600080fd5b505af1158015611f6c573d6000803e3d6000fd5b505050506040513d601f19601f82011682018060405250810190611f909190612fc6565b5060666067908054611fa3929190612d6c565b5060666000611fb29190612dbe565b5050565b6000611fc06108ca565b905060006064605083611fd3919061383d565b611fdd919061380c565b905060006064601484611ff0919061383d565b611ffa919061380c565b905060006066805490508361200f919061380c565b9050606b60009054906101000a900473ffffffffffffffffffffffffffffffffffffffff1673ffffffffffffffffffffffffffffffffffffffff166323b872dd306000856040518463ffffffff1660e01b8152600401612071939291906134ab565b602060405180830381600087803b15801561208b57600080fd5b505af115801561209f573d6000803e3d6000fd5b505050506040513d601f19601f820116820180604052508101906120c39190612fc6565b5060005b6066805490508110156121fd57606b60009054906101000a900473ffffffffffffffffffffffffffffffffffffffff1673ffffffffffffffffffffffffffffffffffffffff166323b872dd306066848154811061214d577f4e487b7100000000000000000000000000000000000000000000000000000000600052603260045260246000fd5b9060005260206000200160009054906101000a900473ffffffffffffffffffffffffffffffffffffffff16856040518463ffffffff1660e01b8152600401612197939291906134ab565b602060405180830381600087803b1580156121b157600080fd5b505af11580156121c5573d6000803e3d6000fd5b505050506040513d601f19601f820116820180604052508101906121e99190612fc6565b5080806121f5906139df565b9150506120c7565b5050505050565b60006122106065612617565b905060005b8181101561244e573373ffffffffffffffffffffffffffffffffffffffff16606c600060018461224591906137b6565b815260200190815260200160002060010160009054906101000a900473ffffffffffffffffffffffffffffffffffffffff1673ffffffffffffffffffffffffffffffffffffffff161480156122bc5750606c60006001836122a691906137b6565b8152602001908152602001600020600601544210155b1561243b57600062015180606c60006001856122d891906137b6565b815260200190815260200160002060050154426122f59190613897565b6122ff919061380c565b9050600061232f606c600060018661231791906137b6565b81526020019081526020016000206004015483611472565b9050606b60009054906101000a900473ffffffffffffffffffffffffffffffffffffffff1673ffffffffffffffffffffffffffffffffffffffff166323b872dd303384606c600060018a61238391906137b6565b81526020019081526020016000206004015461239f91906137b6565b6040518463ffffffff1660e01b81526004016123bd939291906134ab565b602060405180830381600087803b1580156123d757600080fd5b505af11580156123eb573d6000803e3d6000fd5b505050506040513d601f19601f8201168201806040525081019061240f9190612fc6565b506000606c600060018661242391906137b6565b81526020019081526020016000206004018190555050505b8080612446906139df565b915050612215565b5050565b6000606860009054906101000a900473ffffffffffffffffffffffffffffffffffffffff16606954444260405160200161248f94939291906133f0565b6040516020818303038152906040528051906020012060001c905090565b6000603460008473ffffffffffffffffffffffffffffffffffffffff1673ffffffffffffffffffffffffffffffffffffffff16815260200190815260200160002060008373ffffffffffffffffffffffffffffffffffffffff1673ffffffffffffffffffffffffffffffffffffffff16815260200190815260200160002054905092915050565b6000806000905060006125476065612617565b905060005b8181101561260e573373ffffffffffffffffffffffffffffffffffffffff16606c600060018461257c91906137b6565b815260200190815260200160002060010160009054906101000a900473ffffffffffffffffffffffffffffffffffffffff1673ffffffffffffffffffffffffffffffffffffffff1614156125fb57606c60006001836125db91906137b6565b815260200190815260200160002060040154836125f891906137b6565b92505b8080612606906139df565b91505061254c565b50819250505090565b600081600001549050919050565b600033905090565b600073ffffffffffffffffffffffffffffffffffffffff168373ffffffffffffffffffffffffffffffffffffffff16141561269d576040517f08c379a00000000000000000000000000000000000000000000000000000000081526004016126949061365c565b60405180910390fd5b600073ffffffffffffffffffffffffffffffffffffffff168273ffffffffffffffffffffffffffffffffffffffff16141561270d576040517f08c379a00000000000000000000000000000000000000000000000000000000081526004016127049061357c565b60405180910390fd5b80603460008573ffffffffffffffffffffffffffffffffffffffff1673ffffffffffffffffffffffffffffffffffffffff16815260200190815260200160002060008473ffffffffffffffffffffffffffffffffffffffff1673ffffffffffffffffffffffffffffffffffffffff168152602001908152602001600020819055508173ffffffffffffffffffffffffffffffffffffffff168373ffffffffffffffffffffffffffffffffffffffff167f8c5be1e5ebec7d5bd14f71427d1e84f3dd0314c0f7b2291e5b200ac8c7c3b925836040516127eb91906136bc565b60405180910390a3505050565b600061280484846124ad565b90507fffffffffffffffffffffffffffffffffffffffffffffffffffffffffffffffff811461287e5781811015612870576040517f08c379a00000000000000000000000000000000000000000000000000000000081526004016128679061359c565b60405180910390fd5b61287d848484840361262d565b5b50505050565b600073ffffffffffffffffffffffffffffffffffffffff168373ffffffffffffffffffffffffffffffffffffffff1614156128f4576040517f08c379a00000000000000000000000000000000000000000000000000000000081526004016128eb9061363c565b60405180910390fd5b600073ffffffffffffffffffffffffffffffffffffffff168273ffffffffffffffffffffffffffffffffffffffff161415612964576040517f08c379a000000000000000000000000000000000000000000000000000000000815260040161295b9061355c565b60405180910390fd5b61296f838383612c6b565b6000603360008573ffffffffffffffffffffffffffffffffffffffff1673ffffffffffffffffffffffffffffffffffffffff168152602001908152602001600020549050818110156129f6576040517f08c379a00000000000000000000000000000000000000000000000000000000081526004016129ed906135bc565b60405180910390fd5b818103603360008673ffffffffffffffffffffffffffffffffffffffff1673ffffffffffffffffffffffffffffffffffffffff1681526020019081526020016000208190555081603360008573ffffffffffffffffffffffffffffffffffffffff1673ffffffffffffffffffffffffffffffffffffffff1681526020019081526020016000206000828254612a8b91906137b6565b925050819055508273ffffffffffffffffffffffffffffffffffffffff168473ffffffffffffffffffffffffffffffffffffffff167fddf252ad1be2c89b69c2b068fc378daa952ba7f163c4a11628f55a4df523b3ef84604051612aef91906136bc565b60405180910390a3612b02848484612c70565b50505050565b60008060019054906101000a900460ff1615612b7f5760018260ff16148015612b375750612b3530612c75565b155b612b76576040517f08c379a0000000000000000000000000000000000000000000000000000000008152600401612b6d906135fc565b60405180910390fd5b60009050612bf3565b8160ff1660008054906101000a900460ff1660ff1610612bd4576040517f08c379a0000000000000000000000000000000000000000000000000000000008152600401612bcb906135fc565b60405180910390fd5b816000806101000a81548160ff021916908360ff160217905550600190505b919050565b600060019054906101000a900460ff16612c47576040517f08c379a0000000000000000000000000000000000000000000000000000000008152600401612c3e9061367c565b60405180910390fd5b612c518282612c98565b5050565b6001816000016000828254019250508190555050565b505050565b505050565b6000808273ffffffffffffffffffffffffffffffffffffffff163b119050919050565b600060019054906101000a900460ff16612ce7576040517f08c379a0000000000000000000000000000000000000000000000000000000008152600401612cde9061367c565b60405180910390fd5b8160369080519060200190612cfd929190612ddf565b508060379080519060200190612d14929190612ddf565b505050565b6040518060e0016040528060008152602001600073ffffffffffffffffffffffffffffffffffffffff16815260200160008152602001600081526020016000815260200160008152602001600081525090565b828054828255906000526020600020908101928215612dad5760005260206000209182015b82811115612dac578254825591600101919060010190612d91565b5b509050612dba9190612e65565b5090565b5080546000825590600052602060002090810190612ddc9190612e65565b50565b828054612deb906139ad565b90600052602060002090601f016020900481019282612e0d5760008555612e54565b82601f10612e2657805160ff1916838001178555612e54565b82800160010185558215612e54579182015b82811115612e53578251825591602001919060010190612e38565b5b509050612e619190612e65565b5090565b5b80821115612e7e576000816000905550600101612e66565b5090565b600081359050612e9181613e71565b92915050565b600081519050612ea681613e88565b92915050565b600081359050612ebb81613e9f565b92915050565b600081519050612ed081613e9f565b92915050565b600060208284031215612ee857600080fd5b6000612ef684828501612e82565b91505092915050565b60008060408385031215612f1257600080fd5b6000612f2085828601612e82565b9250506020612f3185828601612e82565b9150509250929050565b600080600060608486031215612f5057600080fd5b6000612f5e86828701612e82565b9350506020612f6f86828701612e82565b9250506040612f8086828701612eac565b9150509250925092565b60008060408385031215612f9d57600080fd5b6000612fab85828601612e82565b9250506020612fbc85828601612eac565b9150509250929050565b600060208284031215612fd857600080fd5b6000612fe684828501612e97565b91505092915050565b60006020828403121561300157600080fd5b600061300f84828501612eac565b91505092915050565b60006020828403121561302a57600080fd5b600061303884828501612ec1565b91505092915050565b6000806040838503121561305457600080fd5b600061306285828601612eac565b925050602061307385828601612eac565b9150509250929050565b6000613089838361331e565b60e08301905092915050565b61309e81613932565b82525050565b6130ad816138dd565b82525050565b6130c46130bf826138dd565b613a28565b82525050565b6130d3816138cb565b82525050565b6130e2816138cb565b82525050565b60006130f382613771565b6130fd8185613794565b935061310883613761565b8060005b83811015613139578151613120888261307d565b975061312b83613787565b92505060018101905061310c565b5085935050505092915050565b61314f816138ef565b82525050565b61315e81613944565b82525050565b600061316f8261377c565b61317981856137a5565b935061318981856020860161397a565b61319281613b14565b840191505092915050565b60006131aa6023836137a5565b91506131b582613b32565b604082019050919050565b60006131cd6022836137a5565b91506131d882613b81565b604082019050919050565b60006131f0601d836137a5565b91506131fb82613bd0565b602082019050919050565b60006132136026836137a5565b915061321e82613bf9565b604082019050919050565b60006132366026836137a5565b915061324182613c48565b604082019050919050565b6000613259602e836137a5565b915061326482613c97565b604082019050919050565b600061327c602b836137a5565b915061328782613ce6565b604082019050919050565b600061329f6025836137a5565b91506132aa82613d35565b604082019050919050565b60006132c26024836137a5565b91506132cd82613d84565b604082019050919050565b60006132e5602b836137a5565b91506132f082613dd3565b604082019050919050565b60006133086025836137a5565b915061331382613e22565b604082019050919050565b60e08201600082015161333460008501826133ac565b50602082015161334760208501826130ca565b50604082015161335a60408501826133ac565b50606082015161336d60608501826133ac565b50608082015161338060808501826133ac565b5060a082015161339360a08501826133ac565b5060c08201516133a660c08501826133ac565b50505050565b6133b58161391b565b82525050565b6133c48161391b565b82525050565b6133db6133d68261391b565b613a4c565b82525050565b6133ea81613925565b82525050565b60006133fc82876130b3565b60148201915061340c82866133ca565b60208201915061341c82856133ca565b60208201915061342c82846133ca565b60208201915081905095945050505050565b600060208201905061345360008301846130d9565b92915050565b600060208201905061346e60008301846130a4565b92915050565b600060608201905061348960008301866130d9565b6134966020830185613095565b6134a360408301846133bb565b949350505050565b60006060820190506134c060008301866130d9565b6134cd60208301856130d9565b6134da60408301846133bb565b949350505050565b600060208201905081810360008301526134fc81846130e8565b905092915050565b60006020820190506135196000830184613146565b92915050565b60006020820190506135346000830184613155565b92915050565b600060208201905081810360008301526135548184613164565b905092915050565b600060208201905081810360008301526135758161319d565b9050919050565b60006020820190508181036000830152613595816131c0565b9050919050565b600060208201905081810360008301526135b5816131e3565b9050919050565b600060208201905081810360008301526135d581613206565b9050919050565b600060208201905081810360008301526135f581613229565b9050919050565b600060208201905081810360008301526136158161324c565b9050919050565b600060208201905081810360008301526136358161326f565b9050919050565b6000602082019050818103600083015261365581613292565b9050919050565b60006020820190508181036000830152613675816132b5565b9050919050565b60006020820190508181036000830152613695816132d8565b9050919050565b600060208201905081810360008301526136b5816132fb565b9050919050565b60006020820190506136d160008301846133bb565b92915050565b600060e0820190506136ec600083018a6133bb565b6136f960208301896130d9565b61370660408301886133bb565b61371360608301876133bb565b61372060808301866133bb565b61372d60a08301856133bb565b61373a60c08301846133bb565b98975050505050505050565b600060208201905061375b60008301846133e1565b92915050565b6000819050602082019050919050565b600081519050919050565b600081519050919050565b6000602082019050919050565b600082825260208201905092915050565b600082825260208201905092915050565b60006137c18261391b565b91506137cc8361391b565b9250827fffffffffffffffffffffffffffffffffffffffffffffffffffffffffffffffff0382111561380157613800613a87565b5b828201905092915050565b60006138178261391b565b91506138228361391b565b92508261383257613831613ab6565b5b828204905092915050565b60006138488261391b565b91506138538361391b565b9250817fffffffffffffffffffffffffffffffffffffffffffffffffffffffffffffffff048311821515161561388c5761388b613a87565b5b828202905092915050565b60006138a28261391b565b91506138ad8361391b565b9250828210156138c0576138bf613a87565b5b828203905092915050565b60006138d6826138fb565b9050919050565b60006138e8826138fb565b9050919050565b60008115159050919050565b600073ffffffffffffffffffffffffffffffffffffffff82169050919050565b6000819050919050565b600060ff82169050919050565b600061393d82613956565b9050919050565b600061394f82613925565b9050919050565b600061396182613968565b9050919050565b6000613973826138fb565b9050919050565b60005b8381101561399857808201518184015260208101905061397d565b838111156139a7576000848401525b50505050565b600060028204905060018216806139c557607f821691505b602082108114156139d9576139d8613ae5565b5b50919050565b60006139ea8261391b565b91507fffffffffffffffffffffffffffffffffffffffffffffffffffffffffffffffff821415613a1d57613a1c613a87565b5b600182019050919050565b6000613a3382613a3a565b9050919050565b6000613a4582613b25565b9050919050565b6000819050919050565b6000613a618261391b565b9150613a6c8361391b565b925082613a7c57613a7b613ab6565b5b828206905092915050565b7f4e487b7100000000000000000000000000000000000000000000000000000000600052601160045260246000fd5b7f4e487b7100000000000000000000000000000000000000000000000000000000600052601260045260246000fd5b7f4e487b7100000000000000000000000000000000000000000000000000000000600052602260045260246000fd5b6000601f19601f8301169050919050565b60008160601b9050919050565b7f45524332303a207472616e7366657220746f20746865207a65726f206164647260008201527f6573730000000000000000000000000000000000000000000000000000000000602082015250565b7f45524332303a20617070726f766520746f20746865207a65726f20616464726560008201527f7373000000000000000000000000000000000000000000000000000000000000602082015250565b7f45524332303a20696e73756666696369656e7420616c6c6f77616e6365000000600082015250565b7f45524332303a207472616e7366657220616d6f756e742065786365656473206260008201527f616c616e63650000000000000000000000000000000000000000000000000000602082015250565b7f576974686472617720416d6f756e74206d75737420626520677265617465722060008201527f7468616e20300000000000000000000000000000000000000000000000000000602082015250565b7f496e697469616c697a61626c653a20636f6e747261637420697320616c72656160008201527f647920696e697469616c697a6564000000000000000000000000000000000000602082015250565b7f596f752063616e6e6f74207769746864726177206d6f7265207468616e20796f60008201527f75206465706f7369746564000000000000000000000000000000000000000000602082015250565b7f45524332303a207472616e736665722066726f6d20746865207a65726f20616460008201527f6472657373000000000000000000000000000000000000000000000000000000602082015250565b7f45524332303a20617070726f76652066726f6d20746865207a65726f2061646460008201527f7265737300000000000000000000000000000000000000000000000000000000602082015250565b7f496e697469616c697a61626c653a20636f6e7472616374206973206e6f74206960008201527f6e697469616c697a696e67000000000000000000000000000000000000000000602082015250565b7f45524332303a2064656372656173656420616c6c6f77616e63652062656c6f7760008201527f207a65726f000000000000000000000000000000000000000000000000000000602082015250565b613e7a816138cb565b8114613e8557600080fd5b50565b613e91816138ef565b8114613e9c57600080fd5b50565b613ea88161391b565b8114613eb357600080fd5b5056fea2646970667358221220b3666e8dfe1d4881c6cf44aaacc7e2908dd9328487512bca3a11fc6302e0dcfd64736f6c63430008040033",
  "linkReferences": {},
  "deployedLinkReferences": {}
}